{"contracts/deployed/lockContract.sol":{"lockContract":{"abi":[{"inputs":[{"internalType":"address","name":"_admin","type":"address"},{"internalType":"address","name":"_wmbGateway","type":"address"}],"stateMutability":"nonpayable","type":"constructor"},{"inputs":[],"name":"AccessControlBadConfirmation","type":"error"},{"inputs":[{"internalType":"address","name":"account","type":"address"},{"internalType":"bytes32","name":"neededRole","type":"bytes32"}],"name":"AccessControlUnauthorizedAccount","type":"error"},{"inputs":[],"name":"InvalidInitialization","type":"error"},{"inputs":[],"name":"NotInitializing","type":"error"},{"anonymous":false,"inputs":[{"indexed":true,"internalType":"bytes32","name":"messageId","type":"bytes32"},{"indexed":true,"internalType":"uint256","name":"fromChainId","type":"uint256"},{"indexed":true,"internalType":"address","name":"to","type":"address"},{"indexed":false,"internalType":"uint256","name":"amount","type":"uint256"},{"indexed":false,"internalType":"address","name":"fromSC","type":"address"}],"name":"CrossChainMint","type":"event"},{"anonymous":false,"inputs":[{"indexed":false,"internalType":"uint64","name":"version","type":"uint64"}],"name":"Initialized","type":"event"},{"anonymous":false,"inputs":[{"indexed":true,"internalType":"bytes32","name":"role","type":"bytes32"},{"indexed":true,"internalType":"bytes32","name":"previousAdminRole","type":"bytes32"},{"indexed":true,"internalType":"bytes32","name":"newAdminRole","type":"bytes32"}],"name":"RoleAdminChanged","type":"event"},{"anonymous":false,"inputs":[{"indexed":true,"internalType":"bytes32","name":"role","type":"bytes32"},{"indexed":true,"internalType":"address","name":"account","type":"address"},{"indexed":true,"internalType":"address","name":"sender","type":"address"}],"name":"RoleGranted","type":"event"},{"anonymous":false,"inputs":[{"indexed":true,"internalType":"bytes32","name":"role","type":"bytes32"},{"indexed":true,"internalType":"address","name":"account","type":"address"},{"indexed":true,"internalType":"address","name":"sender","type":"address"}],"name":"RoleRevoked","type":"event"},{"anonymous":false,"inputs":[{"indexed":false,"internalType":"address","name":"user","type":"address"},{"indexed":false,"internalType":"uint256","name":"amount","type":"uint256"}],"name":"coinsLocked","type":"event"},{"anonymous":false,"inputs":[{"indexed":false,"internalType":"address","name":"user","type":"address"},{"indexed":false,"internalType":"uint256","name":"amount","type":"uint256"}],"name":"coinsReleased","type":"event"},{"inputs":[],"name":"DEFAULT_ADMIN_ROLE","outputs":[{"internalType":"bytes32","name":"","type":"bytes32"}],"stateMutability":"view","type":"function"},{"inputs":[{"internalType":"address","name":"user","type":"address"}],"name":"balanceOf","outputs":[{"internalType":"uint256","name":"","type":"uint256"}],"stateMutability":"view","type":"function"},{"inputs":[{"internalType":"uint256","name":"toChainId","type":"uint256"},{"internalType":"address","name":"toSC","type":"address"},{"internalType":"address","name":"toUser","type":"address"},{"internalType":"uint256","name":"amount","type":"uint256"},{"internalType":"uint256","name":"gasLimit","type":"uint256"}],"name":"crossTo","outputs":[],"stateMutability":"payable","type":"function"},{"inputs":[{"internalType":"uint256","name":"toChain","type":"uint256"},{"internalType":"uint256","name":"gasLimit","type":"uint256"}],"name":"estimateFee","outputs":[{"internalType":"uint256","name":"","type":"uint256"}],"stateMutability":"view","type":"function"},{"inputs":[{"internalType":"bytes32","name":"role","type":"bytes32"}],"name":"getRoleAdmin","outputs":[{"internalType":"bytes32","name":"","type":"bytes32"}],"stateMutability":"view","type":"function"},{"inputs":[{"internalType":"bytes32","name":"role","type":"bytes32"},{"internalType":"address","name":"account","type":"address"}],"name":"grantRole","outputs":[],"stateMutability":"nonpayable","type":"function"},{"inputs":[{"internalType":"bytes32","name":"role","type":"bytes32"},{"internalType":"address","name":"account","type":"address"}],"name":"hasRole","outputs":[{"internalType":"bool","name":"","type":"bool"}],"stateMutability":"view","type":"function"},{"inputs":[{"internalType":"address","name":"admin","type":"address"},{"internalType":"address","name":"_wmbGateway","type":"address"}],"name":"initialize","outputs":[],"stateMutability":"nonpayable","type":"function"},{"inputs":[{"internalType":"bytes32","name":"role","type":"bytes32"},{"internalType":"address","name":"callerConfirmation","type":"address"}],"name":"renounceRole","outputs":[],"stateMutability":"nonpayable","type":"function"},{"inputs":[{"internalType":"bytes32","name":"role","type":"bytes32"},{"internalType":"address","name":"account","type":"address"}],"name":"revokeRole","outputs":[],"stateMutability":"nonpayable","type":"function"},{"inputs":[{"internalType":"uint256[]","name":"fromChainIds","type":"uint256[]"},{"internalType":"address[]","name":"froms","type":"address[]"},{"internalType":"bool[]","name":"trusted","type":"bool[]"}],"name":"setTrustedRemotes","outputs":[],"stateMutability":"nonpayable","type":"function"},{"inputs":[{"internalType":"bytes4","name":"interfaceId","type":"bytes4"}],"name":"supportsInterface","outputs":[{"internalType":"bool","name":"","type":"bool"}],"stateMutability":"view","type":"function"},{"inputs":[],"name":"totalSupply","outputs":[{"internalType":"uint256","name":"","type":"uint256"}],"stateMutability":"view","type":"function"},{"inputs":[{"internalType":"uint256","name":"","type":"uint256"},{"internalType":"address","name":"","type":"address"}],"name":"trustedRemotes","outputs":[{"internalType":"bool","name":"","type":"bool"}],"stateMutability":"view","type":"function"},{"inputs":[{"internalType":"uint256","name":"amount","type":"uint256"}],"name":"withdrawCoins","outputs":[],"stateMutability":"nonpayable","type":"function"},{"inputs":[],"name":"wmbGateway","outputs":[{"internalType":"address","name":"","type":"address"}],"stateMutability":"view","type":"function"},{"inputs":[{"internalType":"bytes","name":"data","type":"bytes"},{"internalType":"bytes32","name":"messageId","type":"bytes32"},{"internalType":"uint256","name":"fromChainId","type":"uint256"},{"internalType":"address","name":"from","type":"address"}],"name":"wmbReceive","outputs":[],"stateMutability":"nonpayable","type":"function"}],"evm":{"bytecode":{"linkReferences":{},"object":"60806040523480156200001157600080fd5b506040516200274838038062002748833981810160405281019062000037919062000448565b6200004982826200005160201b60201c565b50506200050d565b6000620000636200023f60201b60201c565b905060008160000160089054906101000a900460ff1615905060008260000160009054906101000a900467ffffffffffffffff1690506000808267ffffffffffffffff16148015620000b25750825b9050600060018367ffffffffffffffff16148015620000e8575060003073ffffffffffffffffffffffffffffffffffffffff163b145b905081158015620000f7575080155b156200012f576040517ff92ee8a900000000000000000000000000000000000000000000000000000000815260040160405180910390fd5b60018560000160006101000a81548167ffffffffffffffff021916908367ffffffffffffffff1602179055508315620001805760018560000160086101000a81548160ff0219169083151502179055505b620001956000801b886200026760201b60201c565b5085600460006101000a81548173ffffffffffffffffffffffffffffffffffffffff021916908373ffffffffffffffffffffffffffffffffffffffff1602179055508315620002365760008560000160086101000a81548160ff0219169083151502179055507fc7f505b2f371ae2175ee4913f4499e1f2633a7b5936321eed1cdaeb6115181d260016040516200022d9190620004f0565b60405180910390a15b50505050505050565b60007ff0c57e16840df040f15088dc2f81fe391c3923bec73e23a9662efc9c229c6a00905090565b60006200027b83836200036b60201b60201c565b620003605760016003600085815260200190815260200160002060000160008473ffffffffffffffffffffffffffffffffffffffff1673ffffffffffffffffffffffffffffffffffffffff16815260200190815260200160002060006101000a81548160ff021916908315150217905550620002fc620003d660201b60201c565b73ffffffffffffffffffffffffffffffffffffffff168273ffffffffffffffffffffffffffffffffffffffff16847f2f8788117e7eff1d82e926ec794901d17c78024a50270940304540a733656f0d60405160405180910390a46001905062000365565b600090505b92915050565b60006003600084815260200190815260200160002060000160008373ffffffffffffffffffffffffffffffffffffffff1673ffffffffffffffffffffffffffffffffffffffff16815260200190815260200160002060009054906101000a900460ff16905092915050565b600033905090565b600080fd5b600073ffffffffffffffffffffffffffffffffffffffff82169050919050565b60006200041082620003e3565b9050919050565b620004228162000403565b81146200042e57600080fd5b50565b600081519050620004428162000417565b92915050565b60008060408385031215620004625762000461620003de565b5b6000620004728582860162000431565b9250506020620004858582860162000431565b9150509250929050565b6000819050919050565b600067ffffffffffffffff82169050919050565b6000819050919050565b6000620004d8620004d2620004cc846200048f565b620004ad565b62000499565b9050919050565b620004ea81620004b7565b82525050565b6000602082019050620005076000830184620004df565b92915050565b61222b806200051d6000396000f3fe6080604052600436106100fd5760003560e01c8063485cc9551161009557806391d148541161006457806391d1485414610335578063a217fddf14610372578063d547741f1461039d578063e3d4683b146103c6578063f9f95a0f14610403576100fd565b8063485cc9551461028a5780635f4f9f14146102b357806370a08231146102cf5780637f34071d1461030c576100fd565b80632f2ff15d116100d15780632f2ff15d146101e45780633088a5f91461020d57806336568abe146102385780633a1a5b7614610261576100fd565b8062e1d8d01461010257806301ffc9a71461013f57806318160ddd1461017c578063248a9ca3146101a7575b600080fd5b34801561010e57600080fd5b5061012960048036038101906101249190611324565b61042c565b6040516101369190611373565b60405180910390f35b34801561014b57600080fd5b50610166600480360381019061016191906113e6565b6104d3565b604051610173919061142e565b60405180910390f35b34801561018857600080fd5b5061019161054d565b60405161019e9190611373565b60405180910390f35b3480156101b357600080fd5b506101ce60048036038101906101c9919061147f565b610553565b6040516101db91906114bb565b60405180910390f35b3480156101f057600080fd5b5061020b60048036038101906102069190611534565b610573565b005b34801561021957600080fd5b50610222610595565b60405161022f9190611583565b60405180910390f35b34801561024457600080fd5b5061025f600480360381019061025a9190611534565b6105bb565b005b34801561026d57600080fd5b5061028860048036038101906102839190611603565b610636565b005b34801561029657600080fd5b506102b160048036038101906102ac919061168b565b610777565b005b6102cd60048036038101906102c891906116cb565b61094d565b005b3480156102db57600080fd5b506102f660048036038101906102f19190611746565b61099b565b6040516103039190611373565b60405180910390f35b34801561031857600080fd5b50610333600480360381019061032e9190611875565b6109e4565b005b34801561034157600080fd5b5061035c60048036038101906103579190611534565b610b7c565b604051610369919061142e565b60405180910390f35b34801561037e57600080fd5b50610387610be7565b60405161039491906114bb565b60405180910390f35b3480156103a957600080fd5b506103c460048036038101906103bf9190611534565b610bee565b005b3480156103d257600080fd5b506103ed60048036038101906103e89190611929565b610c10565b6040516103fa919061142e565b60405180910390f35b34801561040f57600080fd5b5061042a60048036038101906104259190611969565b610c3f565b005b6000600460009054906101000a900473ffffffffffffffffffffffffffffffffffffffff1673ffffffffffffffffffffffffffffffffffffffff1662e1d8d084846040518363ffffffff1660e01b815260040161048a929190611996565b602060405180830381865afa1580156104a7573d6000803e3d6000fd5b505050506040513d601f19601f820116820180604052508101906104cb91906119d4565b905092915050565b60007f7965db0b000000000000000000000000000000000000000000000000000000007bffffffffffffffffffffffffffffffffffffffffffffffffffffffff1916827bffffffffffffffffffffffffffffffffffffffffffffffffffffffff19161480610546575061054582610db2565b5b9050919050565b60005481565b600060036000838152602001908152602001600020600101549050919050565b61057c82610553565b61058581610e1c565b61058f8383610e30565b50505050565b600460009054906101000a900473ffffffffffffffffffffffffffffffffffffffff1681565b6105c3610f22565b73ffffffffffffffffffffffffffffffffffffffff168173ffffffffffffffffffffffffffffffffffffffff1614610627576040517f6697b23200000000000000000000000000000000000000000000000000000000815260040160405180910390fd5b6106318282610f2a565b505050565b600460009054906101000a900473ffffffffffffffffffffffffffffffffffffffff1673ffffffffffffffffffffffffffffffffffffffff163373ffffffffffffffffffffffffffffffffffffffff16146106c6576040517f08c379a00000000000000000000000000000000000000000000000000000000081526004016106bd90611a84565b60405180910390fd5b6005600083815260200190815260200160002060008273ffffffffffffffffffffffffffffffffffffffff1673ffffffffffffffffffffffffffffffffffffffff16815260200190815260200160002060009054906101000a900460ff16610763576040517f08c379a000000000000000000000000000000000000000000000000000000000815260040161075a90611af0565b60405180910390fd5b610770858585858561101d565b5050505050565b6000610781611099565b905060008160000160089054906101000a900460ff1615905060008260000160009054906101000a900467ffffffffffffffff1690506000808267ffffffffffffffff161480156107cf5750825b9050600060018367ffffffffffffffff16148015610804575060003073ffffffffffffffffffffffffffffffffffffffff163b145b905081158015610812575080155b15610849576040517ff92ee8a900000000000000000000000000000000000000000000000000000000815260040160405180910390fd5b60018560000160006101000a81548167ffffffffffffffff021916908367ffffffffffffffff16021790555083156108995760018560000160086101000a81548160ff0219169083151502179055505b6108a66000801b88610e30565b5085600460006101000a81548173ffffffffffffffffffffffffffffffffffffffff021916908373ffffffffffffffffffffffffffffffffffffffff16021790555083156109445760008560000160086101000a81548160ff0219169083151502179055507fc7f505b2f371ae2175ee4913f4499e1f2633a7b5936321eed1cdaeb6115181d2600160405161093b9190611b69565b60405180910390a15b50505050505050565b61095733836110c1565b6000610963868361042c565b90506109928686868660405160200161097d929190611b84565b604051602081830303815290604052846111da565b50505050505050565b6000600160008373ffffffffffffffffffffffffffffffffffffffff1673ffffffffffffffffffffffffffffffffffffffff168152602001908152602001600020549050919050565b6109f16000801b33610b7c565b610a30576040517f08c379a0000000000000000000000000000000000000000000000000000000008152600401610a2790611c1f565b60405180910390fd5b8383905086869050148015610a4a57508181905084849050145b610a89576040517f08c379a0000000000000000000000000000000000000000000000000000000008152600401610a8090611c8b565b60405180910390fd5b60005b86869050811015610b7357828282818110610aaa57610aa9611cab565b5b9050602002016020810190610abf9190611d06565b60056000898985818110610ad657610ad5611cab565b5b9050602002013581526020019081526020016000206000878785818110610b0057610aff611cab565b5b9050602002016020810190610b159190611746565b73ffffffffffffffffffffffffffffffffffffffff1673ffffffffffffffffffffffffffffffffffffffff16815260200190815260200160002060006101000a81548160ff0219169083151502179055508080600101915050610a8c565b50505050505050565b60006003600084815260200190815260200160002060000160008373ffffffffffffffffffffffffffffffffffffffff1673ffffffffffffffffffffffffffffffffffffffff16815260200190815260200160002060009054906101000a900460ff16905092915050565b6000801b81565b610bf782610553565b610c0081610e1c565b610c0a8383610f2a565b50505050565b60056020528160005260406000206020528060005260406000206000915091509054906101000a900460ff1681565b80600160003373ffffffffffffffffffffffffffffffffffffffff1673ffffffffffffffffffffffffffffffffffffffff168152602001908152602001600020541015610cc1576040517f08c379a0000000000000000000000000000000000000000000000000000000008152600401610cb890611d7f565b60405180910390fd5b80600160003373ffffffffffffffffffffffffffffffffffffffff1673ffffffffffffffffffffffffffffffffffffffff1681526020019081526020016000206000828254610d109190611dce565b925050819055503373ffffffffffffffffffffffffffffffffffffffff166108fc829081150290604051600060405180830381858888f19350505050158015610d5d573d6000803e3d6000fd5b5080600080828254610d6f9190611dce565b925050819055507ffad10879470dbb69d36fd4817063d4d24960b3f59d7ebd6192dbc627e4bc13743382604051610da7929190611b84565b60405180910390a150565b60007f01ffc9a7000000000000000000000000000000000000000000000000000000007bffffffffffffffffffffffffffffffffffffffffffffffffffffffff1916827bffffffffffffffffffffffffffffffffffffffffffffffffffffffff1916149050919050565b610e2d81610e28610f22565b611289565b50565b6000610e3c8383610b7c565b610f175760016003600085815260200190815260200160002060000160008473ffffffffffffffffffffffffffffffffffffffff1673ffffffffffffffffffffffffffffffffffffffff16815260200190815260200160002060006101000a81548160ff021916908315150217905550610eb4610f22565b73ffffffffffffffffffffffffffffffffffffffff168273ffffffffffffffffffffffffffffffffffffffff16847f2f8788117e7eff1d82e926ec794901d17c78024a50270940304540a733656f0d60405160405180910390a460019050610f1c565b600090505b92915050565b600033905090565b6000610f368383610b7c565b156110125760006003600085815260200190815260200160002060000160008473ffffffffffffffffffffffffffffffffffffffff1673ffffffffffffffffffffffffffffffffffffffff16815260200190815260200160002060006101000a81548160ff021916908315150217905550610faf610f22565b73ffffffffffffffffffffffffffffffffffffffff168273ffffffffffffffffffffffffffffffffffffffff16847ff6391f5c32d9c69d2a47ea670b442974b53935d1edc7fd64eb21e047a839171b60405160405180910390a460019050611017565b600090505b92915050565b600080868681019061102f9190611f81565b50925092505061103e81610c3f565b8173ffffffffffffffffffffffffffffffffffffffff1684867fe54144d90f48a9826fdec75d150b5bfc91c0752524eb604a5ffba496b6dd0aab8487604051611088929190612004565b60405180910390a450505050505050565b60007ff0c57e16840df040f15088dc2f81fe391c3923bec73e23a9662efc9c229c6a00905090565b8173ffffffffffffffffffffffffffffffffffffffff163373ffffffffffffffffffffffffffffffffffffffff161461112f576040517f08c379a000000000000000000000000000000000000000000000000000000000815260040161112690612079565b60405180910390fd5b80600160003373ffffffffffffffffffffffffffffffffffffffff1673ffffffffffffffffffffffffffffffffffffffff168152602001908152602001600020600082825461117e9190612099565b92505081905550806000808282546111969190612099565b925050819055507f252449aa0b7de4aef34faa5608272066c34f2cea678fa4ee8850380955ef09b633826040516111ce929190611b84565b60405180910390a15050565b6000600460009054906101000a900473ffffffffffffffffffffffffffffffffffffffff1673ffffffffffffffffffffffffffffffffffffffff1663fe39827b838787876040518563ffffffff1660e01b815260040161123c9392919061214c565b60206040518083038185885af115801561125a573d6000803e3d6000fd5b50505050506040513d601f19601f8201168201806040525081019061127f919061219f565b9050949350505050565b6112938282610b7c565b6112d65780826040517fe2517d3f0000000000000000000000000000000000000000000000000000000081526004016112cd9291906121cc565b60405180910390fd5b5050565b6000604051905090565b600080fd5b600080fd5b6000819050919050565b611301816112ee565b811461130c57600080fd5b50565b60008135905061131e816112f8565b92915050565b6000806040838503121561133b5761133a6112e4565b5b60006113498582860161130f565b925050602061135a8582860161130f565b9150509250929050565b61136d816112ee565b82525050565b60006020820190506113886000830184611364565b92915050565b60007fffffffff0000000000000000000000000000000000000000000000000000000082169050919050565b6113c38161138e565b81146113ce57600080fd5b50565b6000813590506113e0816113ba565b92915050565b6000602082840312156113fc576113fb6112e4565b5b600061140a848285016113d1565b91505092915050565b60008115159050919050565b61142881611413565b82525050565b6000602082019050611443600083018461141f565b92915050565b6000819050919050565b61145c81611449565b811461146757600080fd5b50565b60008135905061147981611453565b92915050565b600060208284031215611495576114946112e4565b5b60006114a38482850161146a565b91505092915050565b6114b581611449565b82525050565b60006020820190506114d060008301846114ac565b92915050565b600073ffffffffffffffffffffffffffffffffffffffff82169050919050565b6000611501826114d6565b9050919050565b611511816114f6565b811461151c57600080fd5b50565b60008135905061152e81611508565b92915050565b6000806040838503121561154b5761154a6112e4565b5b60006115598582860161146a565b925050602061156a8582860161151f565b9150509250929050565b61157d816114f6565b82525050565b60006020820190506115986000830184611574565b92915050565b600080fd5b600080fd5b600080fd5b60008083601f8401126115c3576115c261159e565b5b8235905067ffffffffffffffff8111156115e0576115df6115a3565b5b6020830191508360018202830111156115fc576115fb6115a8565b5b9250929050565b60008060008060006080868803121561161f5761161e6112e4565b5b600086013567ffffffffffffffff81111561163d5761163c6112e9565b5b611649888289016115ad565b9550955050602061165c8882890161146a565b935050604061166d8882890161130f565b925050606061167e8882890161151f565b9150509295509295909350565b600080604083850312156116a2576116a16112e4565b5b60006116b08582860161151f565b92505060206116c18582860161151f565b9150509250929050565b600080600080600060a086880312156116e7576116e66112e4565b5b60006116f58882890161130f565b95505060206117068882890161151f565b94505060406117178882890161151f565b93505060606117288882890161130f565b92505060806117398882890161130f565b9150509295509295909350565b60006020828403121561175c5761175b6112e4565b5b600061176a8482850161151f565b91505092915050565b60008083601f8401126117895761178861159e565b5b8235905067ffffffffffffffff8111156117a6576117a56115a3565b5b6020830191508360208202830111156117c2576117c16115a8565b5b9250929050565b60008083601f8401126117df576117de61159e565b5b8235905067ffffffffffffffff8111156117fc576117fb6115a3565b5b602083019150836020820283011115611818576118176115a8565b5b9250929050565b60008083601f8401126118355761183461159e565b5b8235905067ffffffffffffffff811115611852576118516115a3565b5b60208301915083602082028301111561186e5761186d6115a8565b5b9250929050565b60008060008060008060608789031215611892576118916112e4565b5b600087013567ffffffffffffffff8111156118b0576118af6112e9565b5b6118bc89828a01611773565b9650965050602087013567ffffffffffffffff8111156118df576118de6112e9565b5b6118eb89828a016117c9565b9450945050604087013567ffffffffffffffff81111561190e5761190d6112e9565b5b61191a89828a0161181f565b92509250509295509295509295565b600080604083850312156119405761193f6112e4565b5b600061194e8582860161130f565b925050602061195f8582860161151f565b9150509250929050565b60006020828403121561197f5761197e6112e4565b5b600061198d8482850161130f565b91505092915050565b60006040820190506119ab6000830185611364565b6119b86020830184611364565b9392505050565b6000815190506119ce816112f8565b92915050565b6000602082840312156119ea576119e96112e4565b5b60006119f8848285016119bf565b91505092915050565b600082825260208201905092915050565b7f576d624170703a204f6e6c7920574d4220676174657761792063616e2063616c60008201527f6c20746869732066756e6374696f6e0000000000000000000000000000000000602082015250565b6000611a6e602f83611a01565b9150611a7982611a12565b604082019050919050565b60006020820190508181036000830152611a9d81611a61565b9050919050565b7f576d624170703a2052656d6f7465206973206e6f742074727573746564000000600082015250565b6000611ada601d83611a01565b9150611ae582611aa4565b602082019050919050565b60006020820190508181036000830152611b0981611acd565b9050919050565b6000819050919050565b600067ffffffffffffffff82169050919050565b6000819050919050565b6000611b53611b4e611b4984611b10565b611b2e565b611b1a565b9050919050565b611b6381611b38565b82525050565b6000602082019050611b7e6000830184611b5a565b92915050565b6000604082019050611b996000830185611574565b611ba66020830184611364565b9392505050565b7f576d624170703a206d75737420686176652061646d696e20726f6c6520746f2060008201527f73657420747275737465642072656d6f74657300000000000000000000000000602082015250565b6000611c09603383611a01565b9150611c1482611bad565b604082019050919050565b60006020820190508181036000830152611c3881611bfc565b9050919050565b7f576d624170703a20696e76616c696420696e7075740000000000000000000000600082015250565b6000611c75601583611a01565b9150611c8082611c3f565b602082019050919050565b60006020820190508181036000830152611ca481611c68565b9050919050565b7f4e487b7100000000000000000000000000000000000000000000000000000000600052603260045260246000fd5b611ce381611413565b8114611cee57600080fd5b50565b600081359050611d0081611cda565b92915050565b600060208284031215611d1c57611d1b6112e4565b5b6000611d2a84828501611cf1565b91505092915050565b7f496e73756666696369656e742062616c616e6365000000000000000000000000600082015250565b6000611d69601483611a01565b9150611d7482611d33565b602082019050919050565b60006020820190508181036000830152611d9881611d5c565b9050919050565b7f4e487b7100000000000000000000000000000000000000000000000000000000600052601160045260246000fd5b6000611dd9826112ee565b9150611de4836112ee565b9250828203905081811115611dfc57611dfb611d9f565b5b92915050565b6000611e0d826114d6565b9050919050565b611e1d81611e02565b8114611e2857600080fd5b50565b600081359050611e3a81611e14565b92915050565b600080fd5b6000601f19601f8301169050919050565b7f4e487b7100000000000000000000000000000000000000000000000000000000600052604160045260246000fd5b611e8e82611e45565b810181811067ffffffffffffffff82111715611ead57611eac611e56565b5b80604052505050565b6000611ec06112da565b9050611ecc8282611e85565b919050565b600067ffffffffffffffff821115611eec57611eeb611e56565b5b611ef582611e45565b9050602081019050919050565b82818337600083830152505050565b6000611f24611f1f84611ed1565b611eb6565b905082815260208101848484011115611f4057611f3f611e40565b5b611f4b848285611f02565b509392505050565b600082601f830112611f6857611f6761159e565b5b8135611f78848260208601611f11565b91505092915050565b60008060008060808587031215611f9b57611f9a6112e4565b5b6000611fa987828801611e2b565b9450506020611fba87828801611e2b565b9350506040611fcb8782880161130f565b925050606085013567ffffffffffffffff811115611fec57611feb6112e9565b5b611ff887828801611f53565b91505092959194509250565b60006040820190506120196000830185611364565b6120266020830184611574565b9392505050565b7f4f6e6c79206f776e65722063616e204c6f636b20436f696e7300000000000000600082015250565b6000612063601983611a01565b915061206e8261202d565b602082019050919050565b6000602082019050818103600083015261209281612056565b9050919050565b60006120a4826112ee565b91506120af836112ee565b92508282019050808211156120c7576120c6611d9f565b5b92915050565b600081519050919050565b600082825260208201905092915050565b60005b838110156121075780820151818401526020810190506120ec565b60008484015250505050565b600061211e826120cd565b61212881856120d8565b93506121388185602086016120e9565b61214181611e45565b840191505092915050565b60006060820190506121616000830186611364565b61216e6020830185611574565b81810360408301526121808184612113565b9050949350505050565b60008151905061219981611453565b92915050565b6000602082840312156121b5576121b46112e4565b5b60006121c38482850161218a565b91505092915050565b60006040820190506121e16000830185611574565b6121ee60208301846114ac565b939250505056fea264697066735822122028a99455e9c8ea4e1c7207b485508f6e3455edcabd45bb1d8a939b9c0f5c0edf64736f6c63430008160033","opcodes":"PUSH1 0x80 PUSH1 0x40 MSTORE CALLVALUE DUP1 ISZERO PUSH3 0x11 JUMPI PUSH1 0x0 DUP1 REVERT JUMPDEST POP PUSH1 0x40 MLOAD PUSH3 0x2748 CODESIZE SUB DUP1 PUSH3 0x2748 DUP4 CODECOPY DUP2 DUP2 ADD PUSH1 0x40 MSTORE DUP2 ADD SWAP1 PUSH3 0x37 SWAP2 SWAP1 PUSH3 0x448 JUMP JUMPDEST PUSH3 0x49 DUP3 DUP3 PUSH3 0x51 PUSH1 0x20 SHL PUSH1 0x20 SHR JUMP JUMPDEST POP POP PUSH3 0x50D JUMP JUMPDEST PUSH1 0x0 PUSH3 0x63 PUSH3 0x23F PUSH1 0x20 SHL PUSH1 0x20 SHR JUMP JUMPDEST SWAP1 POP PUSH1 0x0 DUP2 PUSH1 0x0 ADD PUSH1 0x8 SWAP1 SLOAD SWAP1 PUSH2 0x100 EXP SWAP1 DIV PUSH1 0xFF AND ISZERO SWAP1 POP PUSH1 0x0 DUP3 PUSH1 0x0 ADD PUSH1 0x0 SWAP1 SLOAD SWAP1 PUSH2 0x100 EXP SWAP1 DIV PUSH8 0xFFFFFFFFFFFFFFFF AND SWAP1 POP PUSH1 0x0 DUP1 DUP3 PUSH8 0xFFFFFFFFFFFFFFFF AND EQ DUP1 ISZERO PUSH3 0xB2 JUMPI POP DUP3 JUMPDEST SWAP1 POP PUSH1 0x0 PUSH1 0x1 DUP4 PUSH8 0xFFFFFFFFFFFFFFFF AND EQ DUP1 ISZERO PUSH3 0xE8 JUMPI POP PUSH1 0x0 ADDRESS PUSH20 0xFFFFFFFFFFFFFFFFFFFFFFFFFFFFFFFFFFFFFFFF AND EXTCODESIZE EQ JUMPDEST SWAP1 POP DUP2 ISZERO DUP1 ISZERO PUSH3 0xF7 JUMPI POP DUP1 ISZERO JUMPDEST ISZERO PUSH3 0x12F JUMPI PUSH1 0x40 MLOAD PUSH32 0xF92EE8A900000000000000000000000000000000000000000000000000000000 DUP2 MSTORE PUSH1 0x4 ADD PUSH1 0x40 MLOAD DUP1 SWAP2 SUB SWAP1 REVERT JUMPDEST PUSH1 0x1 DUP6 PUSH1 0x0 ADD PUSH1 0x0 PUSH2 0x100 EXP DUP2 SLOAD DUP2 PUSH8 0xFFFFFFFFFFFFFFFF MUL NOT AND SWAP1 DUP4 PUSH8 0xFFFFFFFFFFFFFFFF AND MUL OR SWAP1 SSTORE POP DUP4 ISZERO PUSH3 0x180 JUMPI PUSH1 0x1 DUP6 PUSH1 0x0 ADD PUSH1 0x8 PUSH2 0x100 EXP DUP2 SLOAD DUP2 PUSH1 0xFF MUL NOT AND SWAP1 DUP4 ISZERO ISZERO MUL OR SWAP1 SSTORE POP JUMPDEST PUSH3 0x195 PUSH1 0x0 DUP1 SHL DUP9 PUSH3 0x267 PUSH1 0x20 SHL PUSH1 0x20 SHR JUMP JUMPDEST POP DUP6 PUSH1 0x4 PUSH1 0x0 PUSH2 0x100 EXP DUP2 SLOAD DUP2 PUSH20 0xFFFFFFFFFFFFFFFFFFFFFFFFFFFFFFFFFFFFFFFF MUL NOT AND SWAP1 DUP4 PUSH20 0xFFFFFFFFFFFFFFFFFFFFFFFFFFFFFFFFFFFFFFFF AND MUL OR SWAP1 SSTORE POP DUP4 ISZERO PUSH3 0x236 JUMPI PUSH1 0x0 DUP6 PUSH1 0x0 ADD PUSH1 0x8 PUSH2 0x100 EXP DUP2 SLOAD DUP2 PUSH1 0xFF MUL NOT AND SWAP1 DUP4 ISZERO ISZERO MUL OR SWAP1 SSTORE POP PUSH32 0xC7F505B2F371AE2175EE4913F4499E1F2633A7B5936321EED1CDAEB6115181D2 PUSH1 0x1 PUSH1 0x40 MLOAD PUSH3 0x22D SWAP2 SWAP1 PUSH3 0x4F0 JUMP JUMPDEST PUSH1 0x40 MLOAD DUP1 SWAP2 SUB SWAP1 LOG1 JUMPDEST POP POP POP POP POP POP POP JUMP JUMPDEST PUSH1 0x0 PUSH32 0xF0C57E16840DF040F15088DC2F81FE391C3923BEC73E23A9662EFC9C229C6A00 SWAP1 POP SWAP1 JUMP JUMPDEST PUSH1 0x0 PUSH3 0x27B DUP4 DUP4 PUSH3 0x36B PUSH1 0x20 SHL PUSH1 0x20 SHR JUMP JUMPDEST PUSH3 0x360 JUMPI PUSH1 0x1 PUSH1 0x3 PUSH1 0x0 DUP6 DUP2 MSTORE PUSH1 0x20 ADD SWAP1 DUP2 MSTORE PUSH1 0x20 ADD PUSH1 0x0 KECCAK256 PUSH1 0x0 ADD PUSH1 0x0 DUP5 PUSH20 0xFFFFFFFFFFFFFFFFFFFFFFFFFFFFFFFFFFFFFFFF AND PUSH20 0xFFFFFFFFFFFFFFFFFFFFFFFFFFFFFFFFFFFFFFFF AND DUP2 MSTORE PUSH1 0x20 ADD SWAP1 DUP2 MSTORE PUSH1 0x20 ADD PUSH1 0x0 KECCAK256 PUSH1 0x0 PUSH2 0x100 EXP DUP2 SLOAD DUP2 PUSH1 0xFF MUL NOT AND SWAP1 DUP4 ISZERO ISZERO MUL OR SWAP1 SSTORE POP PUSH3 0x2FC PUSH3 0x3D6 PUSH1 0x20 SHL PUSH1 0x20 SHR JUMP JUMPDEST PUSH20 0xFFFFFFFFFFFFFFFFFFFFFFFFFFFFFFFFFFFFFFFF AND DUP3 PUSH20 0xFFFFFFFFFFFFFFFFFFFFFFFFFFFFFFFFFFFFFFFF AND DUP5 PUSH32 0x2F8788117E7EFF1D82E926EC794901D17C78024A50270940304540A733656F0D PUSH1 0x40 MLOAD PUSH1 0x40 MLOAD DUP1 SWAP2 SUB SWAP1 LOG4 PUSH1 0x1 SWAP1 POP PUSH3 0x365 JUMP JUMPDEST PUSH1 0x0 SWAP1 POP JUMPDEST SWAP3 SWAP2 POP POP JUMP JUMPDEST PUSH1 0x0 PUSH1 0x3 PUSH1 0x0 DUP5 DUP2 MSTORE PUSH1 0x20 ADD SWAP1 DUP2 MSTORE PUSH1 0x20 ADD PUSH1 0x0 KECCAK256 PUSH1 0x0 ADD PUSH1 0x0 DUP4 PUSH20 0xFFFFFFFFFFFFFFFFFFFFFFFFFFFFFFFFFFFFFFFF AND PUSH20 0xFFFFFFFFFFFFFFFFFFFFFFFFFFFFFFFFFFFFFFFF AND DUP2 MSTORE PUSH1 0x20 ADD SWAP1 DUP2 MSTORE PUSH1 0x20 ADD PUSH1 0x0 KECCAK256 PUSH1 0x0 SWAP1 SLOAD SWAP1 PUSH2 0x100 EXP SWAP1 DIV PUSH1 0xFF AND SWAP1 POP SWAP3 SWAP2 POP POP JUMP JUMPDEST PUSH1 0x0 CALLER SWAP1 POP SWAP1 JUMP JUMPDEST PUSH1 0x0 DUP1 REVERT JUMPDEST PUSH1 0x0 PUSH20 0xFFFFFFFFFFFFFFFFFFFFFFFFFFFFFFFFFFFFFFFF DUP3 AND SWAP1 POP SWAP2 SWAP1 POP JUMP JUMPDEST PUSH1 0x0 PUSH3 0x410 DUP3 PUSH3 0x3E3 JUMP JUMPDEST SWAP1 POP SWAP2 SWAP1 POP JUMP JUMPDEST PUSH3 0x422 DUP2 PUSH3 0x403 JUMP JUMPDEST DUP2 EQ PUSH3 0x42E JUMPI PUSH1 0x0 DUP1 REVERT JUMPDEST POP JUMP JUMPDEST PUSH1 0x0 DUP2 MLOAD SWAP1 POP PUSH3 0x442 DUP2 PUSH3 0x417 JUMP JUMPDEST SWAP3 SWAP2 POP POP JUMP JUMPDEST PUSH1 0x0 DUP1 PUSH1 0x40 DUP4 DUP6 SUB SLT ISZERO PUSH3 0x462 JUMPI PUSH3 0x461 PUSH3 0x3DE JUMP JUMPDEST JUMPDEST PUSH1 0x0 PUSH3 0x472 DUP6 DUP3 DUP7 ADD PUSH3 0x431 JUMP JUMPDEST SWAP3 POP POP PUSH1 0x20 PUSH3 0x485 DUP6 DUP3 DUP7 ADD PUSH3 0x431 JUMP JUMPDEST SWAP2 POP POP SWAP3 POP SWAP3 SWAP1 POP JUMP JUMPDEST PUSH1 0x0 DUP2 SWAP1 POP SWAP2 SWAP1 POP JUMP JUMPDEST PUSH1 0x0 PUSH8 0xFFFFFFFFFFFFFFFF DUP3 AND SWAP1 POP SWAP2 SWAP1 POP JUMP JUMPDEST PUSH1 0x0 DUP2 SWAP1 POP SWAP2 SWAP1 POP JUMP JUMPDEST PUSH1 0x0 PUSH3 0x4D8 PUSH3 0x4D2 PUSH3 0x4CC DUP5 PUSH3 0x48F JUMP JUMPDEST PUSH3 0x4AD JUMP JUMPDEST PUSH3 0x499 JUMP JUMPDEST SWAP1 POP SWAP2 SWAP1 POP JUMP JUMPDEST PUSH3 0x4EA DUP2 PUSH3 0x4B7 JUMP JUMPDEST DUP3 MSTORE POP POP JUMP JUMPDEST PUSH1 0x0 PUSH1 0x20 DUP3 ADD SWAP1 POP PUSH3 0x507 PUSH1 0x0 DUP4 ADD DUP5 PUSH3 0x4DF JUMP JUMPDEST SWAP3 SWAP2 POP POP JUMP JUMPDEST PUSH2 0x222B DUP1 PUSH3 0x51D PUSH1 0x0 CODECOPY PUSH1 0x0 RETURN INVALID PUSH1 0x80 PUSH1 0x40 MSTORE PUSH1 0x4 CALLDATASIZE LT PUSH2 0xFD JUMPI PUSH1 0x0 CALLDATALOAD PUSH1 0xE0 SHR DUP1 PUSH4 0x485CC955 GT PUSH2 0x95 JUMPI DUP1 PUSH4 0x91D14854 GT PUSH2 0x64 JUMPI DUP1 PUSH4 0x91D14854 EQ PUSH2 0x335 JUMPI DUP1 PUSH4 0xA217FDDF EQ PUSH2 0x372 JUMPI DUP1 PUSH4 0xD547741F EQ PUSH2 0x39D JUMPI DUP1 PUSH4 0xE3D4683B EQ PUSH2 0x3C6 JUMPI DUP1 PUSH4 0xF9F95A0F EQ PUSH2 0x403 JUMPI PUSH2 0xFD JUMP JUMPDEST DUP1 PUSH4 0x485CC955 EQ PUSH2 0x28A JUMPI DUP1 PUSH4 0x5F4F9F14 EQ PUSH2 0x2B3 JUMPI DUP1 PUSH4 0x70A08231 EQ PUSH2 0x2CF JUMPI DUP1 PUSH4 0x7F34071D EQ PUSH2 0x30C JUMPI PUSH2 0xFD JUMP JUMPDEST DUP1 PUSH4 0x2F2FF15D GT PUSH2 0xD1 JUMPI DUP1 PUSH4 0x2F2FF15D EQ PUSH2 0x1E4 JUMPI DUP1 PUSH4 0x3088A5F9 EQ PUSH2 0x20D JUMPI DUP1 PUSH4 0x36568ABE EQ PUSH2 0x238 JUMPI DUP1 PUSH4 0x3A1A5B76 EQ PUSH2 0x261 JUMPI PUSH2 0xFD JUMP JUMPDEST DUP1 PUSH3 0xE1D8D0 EQ PUSH2 0x102 JUMPI DUP1 PUSH4 0x1FFC9A7 EQ PUSH2 0x13F JUMPI DUP1 PUSH4 0x18160DDD EQ PUSH2 0x17C JUMPI DUP1 PUSH4 0x248A9CA3 EQ PUSH2 0x1A7 JUMPI JUMPDEST PUSH1 0x0 DUP1 REVERT JUMPDEST CALLVALUE DUP1 ISZERO PUSH2 0x10E JUMPI PUSH1 0x0 DUP1 REVERT JUMPDEST POP PUSH2 0x129 PUSH1 0x4 DUP1 CALLDATASIZE SUB DUP2 ADD SWAP1 PUSH2 0x124 SWAP2 SWAP1 PUSH2 0x1324 JUMP JUMPDEST PUSH2 0x42C JUMP JUMPDEST PUSH1 0x40 MLOAD PUSH2 0x136 SWAP2 SWAP1 PUSH2 0x1373 JUMP JUMPDEST PUSH1 0x40 MLOAD DUP1 SWAP2 SUB SWAP1 RETURN JUMPDEST CALLVALUE DUP1 ISZERO PUSH2 0x14B JUMPI PUSH1 0x0 DUP1 REVERT JUMPDEST POP PUSH2 0x166 PUSH1 0x4 DUP1 CALLDATASIZE SUB DUP2 ADD SWAP1 PUSH2 0x161 SWAP2 SWAP1 PUSH2 0x13E6 JUMP JUMPDEST PUSH2 0x4D3 JUMP JUMPDEST PUSH1 0x40 MLOAD PUSH2 0x173 SWAP2 SWAP1 PUSH2 0x142E JUMP JUMPDEST PUSH1 0x40 MLOAD DUP1 SWAP2 SUB SWAP1 RETURN JUMPDEST CALLVALUE DUP1 ISZERO PUSH2 0x188 JUMPI PUSH1 0x0 DUP1 REVERT JUMPDEST POP PUSH2 0x191 PUSH2 0x54D JUMP JUMPDEST PUSH1 0x40 MLOAD PUSH2 0x19E SWAP2 SWAP1 PUSH2 0x1373 JUMP JUMPDEST PUSH1 0x40 MLOAD DUP1 SWAP2 SUB SWAP1 RETURN JUMPDEST CALLVALUE DUP1 ISZERO PUSH2 0x1B3 JUMPI PUSH1 0x0 DUP1 REVERT JUMPDEST POP PUSH2 0x1CE PUSH1 0x4 DUP1 CALLDATASIZE SUB DUP2 ADD SWAP1 PUSH2 0x1C9 SWAP2 SWAP1 PUSH2 0x147F JUMP JUMPDEST PUSH2 0x553 JUMP JUMPDEST PUSH1 0x40 MLOAD PUSH2 0x1DB SWAP2 SWAP1 PUSH2 0x14BB JUMP JUMPDEST PUSH1 0x40 MLOAD DUP1 SWAP2 SUB SWAP1 RETURN JUMPDEST CALLVALUE DUP1 ISZERO PUSH2 0x1F0 JUMPI PUSH1 0x0 DUP1 REVERT JUMPDEST POP PUSH2 0x20B PUSH1 0x4 DUP1 CALLDATASIZE SUB DUP2 ADD SWAP1 PUSH2 0x206 SWAP2 SWAP1 PUSH2 0x1534 JUMP JUMPDEST PUSH2 0x573 JUMP JUMPDEST STOP JUMPDEST CALLVALUE DUP1 ISZERO PUSH2 0x219 JUMPI PUSH1 0x0 DUP1 REVERT JUMPDEST POP PUSH2 0x222 PUSH2 0x595 JUMP JUMPDEST PUSH1 0x40 MLOAD PUSH2 0x22F SWAP2 SWAP1 PUSH2 0x1583 JUMP JUMPDEST PUSH1 0x40 MLOAD DUP1 SWAP2 SUB SWAP1 RETURN JUMPDEST CALLVALUE DUP1 ISZERO PUSH2 0x244 JUMPI PUSH1 0x0 DUP1 REVERT JUMPDEST POP PUSH2 0x25F PUSH1 0x4 DUP1 CALLDATASIZE SUB DUP2 ADD SWAP1 PUSH2 0x25A SWAP2 SWAP1 PUSH2 0x1534 JUMP JUMPDEST PUSH2 0x5BB JUMP JUMPDEST STOP JUMPDEST CALLVALUE DUP1 ISZERO PUSH2 0x26D JUMPI PUSH1 0x0 DUP1 REVERT JUMPDEST POP PUSH2 0x288 PUSH1 0x4 DUP1 CALLDATASIZE SUB DUP2 ADD SWAP1 PUSH2 0x283 SWAP2 SWAP1 PUSH2 0x1603 JUMP JUMPDEST PUSH2 0x636 JUMP JUMPDEST STOP JUMPDEST CALLVALUE DUP1 ISZERO PUSH2 0x296 JUMPI PUSH1 0x0 DUP1 REVERT JUMPDEST POP PUSH2 0x2B1 PUSH1 0x4 DUP1 CALLDATASIZE SUB DUP2 ADD SWAP1 PUSH2 0x2AC SWAP2 SWAP1 PUSH2 0x168B JUMP JUMPDEST PUSH2 0x777 JUMP JUMPDEST STOP JUMPDEST PUSH2 0x2CD PUSH1 0x4 DUP1 CALLDATASIZE SUB DUP2 ADD SWAP1 PUSH2 0x2C8 SWAP2 SWAP1 PUSH2 0x16CB JUMP JUMPDEST PUSH2 0x94D JUMP JUMPDEST STOP JUMPDEST CALLVALUE DUP1 ISZERO PUSH2 0x2DB JUMPI PUSH1 0x0 DUP1 REVERT JUMPDEST POP PUSH2 0x2F6 PUSH1 0x4 DUP1 CALLDATASIZE SUB DUP2 ADD SWAP1 PUSH2 0x2F1 SWAP2 SWAP1 PUSH2 0x1746 JUMP JUMPDEST PUSH2 0x99B JUMP JUMPDEST PUSH1 0x40 MLOAD PUSH2 0x303 SWAP2 SWAP1 PUSH2 0x1373 JUMP JUMPDEST PUSH1 0x40 MLOAD DUP1 SWAP2 SUB SWAP1 RETURN JUMPDEST CALLVALUE DUP1 ISZERO PUSH2 0x318 JUMPI PUSH1 0x0 DUP1 REVERT JUMPDEST POP PUSH2 0x333 PUSH1 0x4 DUP1 CALLDATASIZE SUB DUP2 ADD SWAP1 PUSH2 0x32E SWAP2 SWAP1 PUSH2 0x1875 JUMP JUMPDEST PUSH2 0x9E4 JUMP JUMPDEST STOP JUMPDEST CALLVALUE DUP1 ISZERO PUSH2 0x341 JUMPI PUSH1 0x0 DUP1 REVERT JUMPDEST POP PUSH2 0x35C PUSH1 0x4 DUP1 CALLDATASIZE SUB DUP2 ADD SWAP1 PUSH2 0x357 SWAP2 SWAP1 PUSH2 0x1534 JUMP JUMPDEST PUSH2 0xB7C JUMP JUMPDEST PUSH1 0x40 MLOAD PUSH2 0x369 SWAP2 SWAP1 PUSH2 0x142E JUMP JUMPDEST PUSH1 0x40 MLOAD DUP1 SWAP2 SUB SWAP1 RETURN JUMPDEST CALLVALUE DUP1 ISZERO PUSH2 0x37E JUMPI PUSH1 0x0 DUP1 REVERT JUMPDEST POP PUSH2 0x387 PUSH2 0xBE7 JUMP JUMPDEST PUSH1 0x40 MLOAD PUSH2 0x394 SWAP2 SWAP1 PUSH2 0x14BB JUMP JUMPDEST PUSH1 0x40 MLOAD DUP1 SWAP2 SUB SWAP1 RETURN JUMPDEST CALLVALUE DUP1 ISZERO PUSH2 0x3A9 JUMPI PUSH1 0x0 DUP1 REVERT JUMPDEST POP PUSH2 0x3C4 PUSH1 0x4 DUP1 CALLDATASIZE SUB DUP2 ADD SWAP1 PUSH2 0x3BF SWAP2 SWAP1 PUSH2 0x1534 JUMP JUMPDEST PUSH2 0xBEE JUMP JUMPDEST STOP JUMPDEST CALLVALUE DUP1 ISZERO PUSH2 0x3D2 JUMPI PUSH1 0x0 DUP1 REVERT JUMPDEST POP PUSH2 0x3ED PUSH1 0x4 DUP1 CALLDATASIZE SUB DUP2 ADD SWAP1 PUSH2 0x3E8 SWAP2 SWAP1 PUSH2 0x1929 JUMP JUMPDEST PUSH2 0xC10 JUMP JUMPDEST PUSH1 0x40 MLOAD PUSH2 0x3FA SWAP2 SWAP1 PUSH2 0x142E JUMP JUMPDEST PUSH1 0x40 MLOAD DUP1 SWAP2 SUB SWAP1 RETURN JUMPDEST CALLVALUE DUP1 ISZERO PUSH2 0x40F JUMPI PUSH1 0x0 DUP1 REVERT JUMPDEST POP PUSH2 0x42A PUSH1 0x4 DUP1 CALLDATASIZE SUB DUP2 ADD SWAP1 PUSH2 0x425 SWAP2 SWAP1 PUSH2 0x1969 JUMP JUMPDEST PUSH2 0xC3F JUMP JUMPDEST STOP JUMPDEST PUSH1 0x0 PUSH1 0x4 PUSH1 0x0 SWAP1 SLOAD SWAP1 PUSH2 0x100 EXP SWAP1 DIV PUSH20 0xFFFFFFFFFFFFFFFFFFFFFFFFFFFFFFFFFFFFFFFF AND PUSH20 0xFFFFFFFFFFFFFFFFFFFFFFFFFFFFFFFFFFFFFFFF AND PUSH3 0xE1D8D0 DUP5 DUP5 PUSH1 0x40 MLOAD DUP4 PUSH4 0xFFFFFFFF AND PUSH1 0xE0 SHL DUP2 MSTORE PUSH1 0x4 ADD PUSH2 0x48A SWAP3 SWAP2 SWAP1 PUSH2 0x1996 JUMP JUMPDEST PUSH1 0x20 PUSH1 0x40 MLOAD DUP1 DUP4 SUB DUP2 DUP7 GAS STATICCALL ISZERO DUP1 ISZERO PUSH2 0x4A7 JUMPI RETURNDATASIZE PUSH1 0x0 DUP1 RETURNDATACOPY RETURNDATASIZE PUSH1 0x0 REVERT JUMPDEST POP POP POP POP PUSH1 0x40 MLOAD RETURNDATASIZE PUSH1 0x1F NOT PUSH1 0x1F DUP3 ADD AND DUP3 ADD DUP1 PUSH1 0x40 MSTORE POP DUP2 ADD SWAP1 PUSH2 0x4CB SWAP2 SWAP1 PUSH2 0x19D4 JUMP JUMPDEST SWAP1 POP SWAP3 SWAP2 POP POP JUMP JUMPDEST PUSH1 0x0 PUSH32 0x7965DB0B00000000000000000000000000000000000000000000000000000000 PUSH28 0xFFFFFFFFFFFFFFFFFFFFFFFFFFFFFFFFFFFFFFFFFFFFFFFFFFFFFFFF NOT AND DUP3 PUSH28 0xFFFFFFFFFFFFFFFFFFFFFFFFFFFFFFFFFFFFFFFFFFFFFFFFFFFFFFFF NOT AND EQ DUP1 PUSH2 0x546 JUMPI POP PUSH2 0x545 DUP3 PUSH2 0xDB2 JUMP JUMPDEST JUMPDEST SWAP1 POP SWAP2 SWAP1 POP JUMP JUMPDEST PUSH1 0x0 SLOAD DUP2 JUMP JUMPDEST PUSH1 0x0 PUSH1 0x3 PUSH1 0x0 DUP4 DUP2 MSTORE PUSH1 0x20 ADD SWAP1 DUP2 MSTORE PUSH1 0x20 ADD PUSH1 0x0 KECCAK256 PUSH1 0x1 ADD SLOAD SWAP1 POP SWAP2 SWAP1 POP JUMP JUMPDEST PUSH2 0x57C DUP3 PUSH2 0x553 JUMP JUMPDEST PUSH2 0x585 DUP2 PUSH2 0xE1C JUMP JUMPDEST PUSH2 0x58F DUP4 DUP4 PUSH2 0xE30 JUMP JUMPDEST POP POP POP POP JUMP JUMPDEST PUSH1 0x4 PUSH1 0x0 SWAP1 SLOAD SWAP1 PUSH2 0x100 EXP SWAP1 DIV PUSH20 0xFFFFFFFFFFFFFFFFFFFFFFFFFFFFFFFFFFFFFFFF AND DUP2 JUMP JUMPDEST PUSH2 0x5C3 PUSH2 0xF22 JUMP JUMPDEST PUSH20 0xFFFFFFFFFFFFFFFFFFFFFFFFFFFFFFFFFFFFFFFF AND DUP2 PUSH20 0xFFFFFFFFFFFFFFFFFFFFFFFFFFFFFFFFFFFFFFFF AND EQ PUSH2 0x627 JUMPI PUSH1 0x40 MLOAD PUSH32 0x6697B23200000000000000000000000000000000000000000000000000000000 DUP2 MSTORE PUSH1 0x4 ADD PUSH1 0x40 MLOAD DUP1 SWAP2 SUB SWAP1 REVERT JUMPDEST PUSH2 0x631 DUP3 DUP3 PUSH2 0xF2A JUMP JUMPDEST POP POP POP JUMP JUMPDEST PUSH1 0x4 PUSH1 0x0 SWAP1 SLOAD SWAP1 PUSH2 0x100 EXP SWAP1 DIV PUSH20 0xFFFFFFFFFFFFFFFFFFFFFFFFFFFFFFFFFFFFFFFF AND PUSH20 0xFFFFFFFFFFFFFFFFFFFFFFFFFFFFFFFFFFFFFFFF AND CALLER PUSH20 0xFFFFFFFFFFFFFFFFFFFFFFFFFFFFFFFFFFFFFFFF AND EQ PUSH2 0x6C6 JUMPI PUSH1 0x40 MLOAD PUSH32 0x8C379A000000000000000000000000000000000000000000000000000000000 DUP2 MSTORE PUSH1 0x4 ADD PUSH2 0x6BD SWAP1 PUSH2 0x1A84 JUMP JUMPDEST PUSH1 0x40 MLOAD DUP1 SWAP2 SUB SWAP1 REVERT JUMPDEST PUSH1 0x5 PUSH1 0x0 DUP4 DUP2 MSTORE PUSH1 0x20 ADD SWAP1 DUP2 MSTORE PUSH1 0x20 ADD PUSH1 0x0 KECCAK256 PUSH1 0x0 DUP3 PUSH20 0xFFFFFFFFFFFFFFFFFFFFFFFFFFFFFFFFFFFFFFFF AND PUSH20 0xFFFFFFFFFFFFFFFFFFFFFFFFFFFFFFFFFFFFFFFF AND DUP2 MSTORE PUSH1 0x20 ADD SWAP1 DUP2 MSTORE PUSH1 0x20 ADD PUSH1 0x0 KECCAK256 PUSH1 0x0 SWAP1 SLOAD SWAP1 PUSH2 0x100 EXP SWAP1 DIV PUSH1 0xFF AND PUSH2 0x763 JUMPI PUSH1 0x40 MLOAD PUSH32 0x8C379A000000000000000000000000000000000000000000000000000000000 DUP2 MSTORE PUSH1 0x4 ADD PUSH2 0x75A SWAP1 PUSH2 0x1AF0 JUMP JUMPDEST PUSH1 0x40 MLOAD DUP1 SWAP2 SUB SWAP1 REVERT JUMPDEST PUSH2 0x770 DUP6 DUP6 DUP6 DUP6 DUP6 PUSH2 0x101D JUMP JUMPDEST POP POP POP POP POP JUMP JUMPDEST PUSH1 0x0 PUSH2 0x781 PUSH2 0x1099 JUMP JUMPDEST SWAP1 POP PUSH1 0x0 DUP2 PUSH1 0x0 ADD PUSH1 0x8 SWAP1 SLOAD SWAP1 PUSH2 0x100 EXP SWAP1 DIV PUSH1 0xFF AND ISZERO SWAP1 POP PUSH1 0x0 DUP3 PUSH1 0x0 ADD PUSH1 0x0 SWAP1 SLOAD SWAP1 PUSH2 0x100 EXP SWAP1 DIV PUSH8 0xFFFFFFFFFFFFFFFF AND SWAP1 POP PUSH1 0x0 DUP1 DUP3 PUSH8 0xFFFFFFFFFFFFFFFF AND EQ DUP1 ISZERO PUSH2 0x7CF JUMPI POP DUP3 JUMPDEST SWAP1 POP PUSH1 0x0 PUSH1 0x1 DUP4 PUSH8 0xFFFFFFFFFFFFFFFF AND EQ DUP1 ISZERO PUSH2 0x804 JUMPI POP PUSH1 0x0 ADDRESS PUSH20 0xFFFFFFFFFFFFFFFFFFFFFFFFFFFFFFFFFFFFFFFF AND EXTCODESIZE EQ JUMPDEST SWAP1 POP DUP2 ISZERO DUP1 ISZERO PUSH2 0x812 JUMPI POP DUP1 ISZERO JUMPDEST ISZERO PUSH2 0x849 JUMPI PUSH1 0x40 MLOAD PUSH32 0xF92EE8A900000000000000000000000000000000000000000000000000000000 DUP2 MSTORE PUSH1 0x4 ADD PUSH1 0x40 MLOAD DUP1 SWAP2 SUB SWAP1 REVERT JUMPDEST PUSH1 0x1 DUP6 PUSH1 0x0 ADD PUSH1 0x0 PUSH2 0x100 EXP DUP2 SLOAD DUP2 PUSH8 0xFFFFFFFFFFFFFFFF MUL NOT AND SWAP1 DUP4 PUSH8 0xFFFFFFFFFFFFFFFF AND MUL OR SWAP1 SSTORE POP DUP4 ISZERO PUSH2 0x899 JUMPI PUSH1 0x1 DUP6 PUSH1 0x0 ADD PUSH1 0x8 PUSH2 0x100 EXP DUP2 SLOAD DUP2 PUSH1 0xFF MUL NOT AND SWAP1 DUP4 ISZERO ISZERO MUL OR SWAP1 SSTORE POP JUMPDEST PUSH2 0x8A6 PUSH1 0x0 DUP1 SHL DUP9 PUSH2 0xE30 JUMP JUMPDEST POP DUP6 PUSH1 0x4 PUSH1 0x0 PUSH2 0x100 EXP DUP2 SLOAD DUP2 PUSH20 0xFFFFFFFFFFFFFFFFFFFFFFFFFFFFFFFFFFFFFFFF MUL NOT AND SWAP1 DUP4 PUSH20 0xFFFFFFFFFFFFFFFFFFFFFFFFFFFFFFFFFFFFFFFF AND MUL OR SWAP1 SSTORE POP DUP4 ISZERO PUSH2 0x944 JUMPI PUSH1 0x0 DUP6 PUSH1 0x0 ADD PUSH1 0x8 PUSH2 0x100 EXP DUP2 SLOAD DUP2 PUSH1 0xFF MUL NOT AND SWAP1 DUP4 ISZERO ISZERO MUL OR SWAP1 SSTORE POP PUSH32 0xC7F505B2F371AE2175EE4913F4499E1F2633A7B5936321EED1CDAEB6115181D2 PUSH1 0x1 PUSH1 0x40 MLOAD PUSH2 0x93B SWAP2 SWAP1 PUSH2 0x1B69 JUMP JUMPDEST PUSH1 0x40 MLOAD DUP1 SWAP2 SUB SWAP1 LOG1 JUMPDEST POP POP POP POP POP POP POP JUMP JUMPDEST PUSH2 0x957 CALLER DUP4 PUSH2 0x10C1 JUMP JUMPDEST PUSH1 0x0 PUSH2 0x963 DUP7 DUP4 PUSH2 0x42C JUMP JUMPDEST SWAP1 POP PUSH2 0x992 DUP7 DUP7 DUP7 DUP7 PUSH1 0x40 MLOAD PUSH1 0x20 ADD PUSH2 0x97D SWAP3 SWAP2 SWAP1 PUSH2 0x1B84 JUMP JUMPDEST PUSH1 0x40 MLOAD PUSH1 0x20 DUP2 DUP4 SUB SUB DUP2 MSTORE SWAP1 PUSH1 0x40 MSTORE DUP5 PUSH2 0x11DA JUMP JUMPDEST POP POP POP POP POP POP POP JUMP JUMPDEST PUSH1 0x0 PUSH1 0x1 PUSH1 0x0 DUP4 PUSH20 0xFFFFFFFFFFFFFFFFFFFFFFFFFFFFFFFFFFFFFFFF AND PUSH20 0xFFFFFFFFFFFFFFFFFFFFFFFFFFFFFFFFFFFFFFFF AND DUP2 MSTORE PUSH1 0x20 ADD SWAP1 DUP2 MSTORE PUSH1 0x20 ADD PUSH1 0x0 KECCAK256 SLOAD SWAP1 POP SWAP2 SWAP1 POP JUMP JUMPDEST PUSH2 0x9F1 PUSH1 0x0 DUP1 SHL CALLER PUSH2 0xB7C JUMP JUMPDEST PUSH2 0xA30 JUMPI PUSH1 0x40 MLOAD PUSH32 0x8C379A000000000000000000000000000000000000000000000000000000000 DUP2 MSTORE PUSH1 0x4 ADD PUSH2 0xA27 SWAP1 PUSH2 0x1C1F JUMP JUMPDEST PUSH1 0x40 MLOAD DUP1 SWAP2 SUB SWAP1 REVERT JUMPDEST DUP4 DUP4 SWAP1 POP DUP7 DUP7 SWAP1 POP EQ DUP1 ISZERO PUSH2 0xA4A JUMPI POP DUP2 DUP2 SWAP1 POP DUP5 DUP5 SWAP1 POP EQ JUMPDEST PUSH2 0xA89 JUMPI PUSH1 0x40 MLOAD PUSH32 0x8C379A000000000000000000000000000000000000000000000000000000000 DUP2 MSTORE PUSH1 0x4 ADD PUSH2 0xA80 SWAP1 PUSH2 0x1C8B JUMP JUMPDEST PUSH1 0x40 MLOAD DUP1 SWAP2 SUB SWAP1 REVERT JUMPDEST PUSH1 0x0 JUMPDEST DUP7 DUP7 SWAP1 POP DUP2 LT ISZERO PUSH2 0xB73 JUMPI DUP3 DUP3 DUP3 DUP2 DUP2 LT PUSH2 0xAAA JUMPI PUSH2 0xAA9 PUSH2 0x1CAB JUMP JUMPDEST JUMPDEST SWAP1 POP PUSH1 0x20 MUL ADD PUSH1 0x20 DUP2 ADD SWAP1 PUSH2 0xABF SWAP2 SWAP1 PUSH2 0x1D06 JUMP JUMPDEST PUSH1 0x5 PUSH1 0x0 DUP10 DUP10 DUP6 DUP2 DUP2 LT PUSH2 0xAD6 JUMPI PUSH2 0xAD5 PUSH2 0x1CAB JUMP JUMPDEST JUMPDEST SWAP1 POP PUSH1 0x20 MUL ADD CALLDATALOAD DUP2 MSTORE PUSH1 0x20 ADD SWAP1 DUP2 MSTORE PUSH1 0x20 ADD PUSH1 0x0 KECCAK256 PUSH1 0x0 DUP8 DUP8 DUP6 DUP2 DUP2 LT PUSH2 0xB00 JUMPI PUSH2 0xAFF PUSH2 0x1CAB JUMP JUMPDEST JUMPDEST SWAP1 POP PUSH1 0x20 MUL ADD PUSH1 0x20 DUP2 ADD SWAP1 PUSH2 0xB15 SWAP2 SWAP1 PUSH2 0x1746 JUMP JUMPDEST PUSH20 0xFFFFFFFFFFFFFFFFFFFFFFFFFFFFFFFFFFFFFFFF AND PUSH20 0xFFFFFFFFFFFFFFFFFFFFFFFFFFFFFFFFFFFFFFFF AND DUP2 MSTORE PUSH1 0x20 ADD SWAP1 DUP2 MSTORE PUSH1 0x20 ADD PUSH1 0x0 KECCAK256 PUSH1 0x0 PUSH2 0x100 EXP DUP2 SLOAD DUP2 PUSH1 0xFF MUL NOT AND SWAP1 DUP4 ISZERO ISZERO MUL OR SWAP1 SSTORE POP DUP1 DUP1 PUSH1 0x1 ADD SWAP2 POP POP PUSH2 0xA8C JUMP JUMPDEST POP POP POP POP POP POP POP JUMP JUMPDEST PUSH1 0x0 PUSH1 0x3 PUSH1 0x0 DUP5 DUP2 MSTORE PUSH1 0x20 ADD SWAP1 DUP2 MSTORE PUSH1 0x20 ADD PUSH1 0x0 KECCAK256 PUSH1 0x0 ADD PUSH1 0x0 DUP4 PUSH20 0xFFFFFFFFFFFFFFFFFFFFFFFFFFFFFFFFFFFFFFFF AND PUSH20 0xFFFFFFFFFFFFFFFFFFFFFFFFFFFFFFFFFFFFFFFF AND DUP2 MSTORE PUSH1 0x20 ADD SWAP1 DUP2 MSTORE PUSH1 0x20 ADD PUSH1 0x0 KECCAK256 PUSH1 0x0 SWAP1 SLOAD SWAP1 PUSH2 0x100 EXP SWAP1 DIV PUSH1 0xFF AND SWAP1 POP SWAP3 SWAP2 POP POP JUMP JUMPDEST PUSH1 0x0 DUP1 SHL DUP2 JUMP JUMPDEST PUSH2 0xBF7 DUP3 PUSH2 0x553 JUMP JUMPDEST PUSH2 0xC00 DUP2 PUSH2 0xE1C JUMP JUMPDEST PUSH2 0xC0A DUP4 DUP4 PUSH2 0xF2A JUMP JUMPDEST POP POP POP POP JUMP JUMPDEST PUSH1 0x5 PUSH1 0x20 MSTORE DUP2 PUSH1 0x0 MSTORE PUSH1 0x40 PUSH1 0x0 KECCAK256 PUSH1 0x20 MSTORE DUP1 PUSH1 0x0 MSTORE PUSH1 0x40 PUSH1 0x0 KECCAK256 PUSH1 0x0 SWAP2 POP SWAP2 POP SWAP1 SLOAD SWAP1 PUSH2 0x100 EXP SWAP1 DIV PUSH1 0xFF AND DUP2 JUMP JUMPDEST DUP1 PUSH1 0x1 PUSH1 0x0 CALLER PUSH20 0xFFFFFFFFFFFFFFFFFFFFFFFFFFFFFFFFFFFFFFFF AND PUSH20 0xFFFFFFFFFFFFFFFFFFFFFFFFFFFFFFFFFFFFFFFF AND DUP2 MSTORE PUSH1 0x20 ADD SWAP1 DUP2 MSTORE PUSH1 0x20 ADD PUSH1 0x0 KECCAK256 SLOAD LT ISZERO PUSH2 0xCC1 JUMPI PUSH1 0x40 MLOAD PUSH32 0x8C379A000000000000000000000000000000000000000000000000000000000 DUP2 MSTORE PUSH1 0x4 ADD PUSH2 0xCB8 SWAP1 PUSH2 0x1D7F JUMP JUMPDEST PUSH1 0x40 MLOAD DUP1 SWAP2 SUB SWAP1 REVERT JUMPDEST DUP1 PUSH1 0x1 PUSH1 0x0 CALLER PUSH20 0xFFFFFFFFFFFFFFFFFFFFFFFFFFFFFFFFFFFFFFFF AND PUSH20 0xFFFFFFFFFFFFFFFFFFFFFFFFFFFFFFFFFFFFFFFF AND DUP2 MSTORE PUSH1 0x20 ADD SWAP1 DUP2 MSTORE PUSH1 0x20 ADD PUSH1 0x0 KECCAK256 PUSH1 0x0 DUP3 DUP3 SLOAD PUSH2 0xD10 SWAP2 SWAP1 PUSH2 0x1DCE JUMP JUMPDEST SWAP3 POP POP DUP2 SWAP1 SSTORE POP CALLER PUSH20 0xFFFFFFFFFFFFFFFFFFFFFFFFFFFFFFFFFFFFFFFF AND PUSH2 0x8FC DUP3 SWAP1 DUP2 ISZERO MUL SWAP1 PUSH1 0x40 MLOAD PUSH1 0x0 PUSH1 0x40 MLOAD DUP1 DUP4 SUB DUP2 DUP6 DUP9 DUP9 CALL SWAP4 POP POP POP POP ISZERO DUP1 ISZERO PUSH2 0xD5D JUMPI RETURNDATASIZE PUSH1 0x0 DUP1 RETURNDATACOPY RETURNDATASIZE PUSH1 0x0 REVERT JUMPDEST POP DUP1 PUSH1 0x0 DUP1 DUP3 DUP3 SLOAD PUSH2 0xD6F SWAP2 SWAP1 PUSH2 0x1DCE JUMP JUMPDEST SWAP3 POP POP DUP2 SWAP1 SSTORE POP PUSH32 0xFAD10879470DBB69D36FD4817063D4D24960B3F59D7EBD6192DBC627E4BC1374 CALLER DUP3 PUSH1 0x40 MLOAD PUSH2 0xDA7 SWAP3 SWAP2 SWAP1 PUSH2 0x1B84 JUMP JUMPDEST PUSH1 0x40 MLOAD DUP1 SWAP2 SUB SWAP1 LOG1 POP JUMP JUMPDEST PUSH1 0x0 PUSH32 0x1FFC9A700000000000000000000000000000000000000000000000000000000 PUSH28 0xFFFFFFFFFFFFFFFFFFFFFFFFFFFFFFFFFFFFFFFFFFFFFFFFFFFFFFFF NOT AND DUP3 PUSH28 0xFFFFFFFFFFFFFFFFFFFFFFFFFFFFFFFFFFFFFFFFFFFFFFFFFFFFFFFF NOT AND EQ SWAP1 POP SWAP2 SWAP1 POP JUMP JUMPDEST PUSH2 0xE2D DUP2 PUSH2 0xE28 PUSH2 0xF22 JUMP JUMPDEST PUSH2 0x1289 JUMP JUMPDEST POP JUMP JUMPDEST PUSH1 0x0 PUSH2 0xE3C DUP4 DUP4 PUSH2 0xB7C JUMP JUMPDEST PUSH2 0xF17 JUMPI PUSH1 0x1 PUSH1 0x3 PUSH1 0x0 DUP6 DUP2 MSTORE PUSH1 0x20 ADD SWAP1 DUP2 MSTORE PUSH1 0x20 ADD PUSH1 0x0 KECCAK256 PUSH1 0x0 ADD PUSH1 0x0 DUP5 PUSH20 0xFFFFFFFFFFFFFFFFFFFFFFFFFFFFFFFFFFFFFFFF AND PUSH20 0xFFFFFFFFFFFFFFFFFFFFFFFFFFFFFFFFFFFFFFFF AND DUP2 MSTORE PUSH1 0x20 ADD SWAP1 DUP2 MSTORE PUSH1 0x20 ADD PUSH1 0x0 KECCAK256 PUSH1 0x0 PUSH2 0x100 EXP DUP2 SLOAD DUP2 PUSH1 0xFF MUL NOT AND SWAP1 DUP4 ISZERO ISZERO MUL OR SWAP1 SSTORE POP PUSH2 0xEB4 PUSH2 0xF22 JUMP JUMPDEST PUSH20 0xFFFFFFFFFFFFFFFFFFFFFFFFFFFFFFFFFFFFFFFF AND DUP3 PUSH20 0xFFFFFFFFFFFFFFFFFFFFFFFFFFFFFFFFFFFFFFFF AND DUP5 PUSH32 0x2F8788117E7EFF1D82E926EC794901D17C78024A50270940304540A733656F0D PUSH1 0x40 MLOAD PUSH1 0x40 MLOAD DUP1 SWAP2 SUB SWAP1 LOG4 PUSH1 0x1 SWAP1 POP PUSH2 0xF1C JUMP JUMPDEST PUSH1 0x0 SWAP1 POP JUMPDEST SWAP3 SWAP2 POP POP JUMP JUMPDEST PUSH1 0x0 CALLER SWAP1 POP SWAP1 JUMP JUMPDEST PUSH1 0x0 PUSH2 0xF36 DUP4 DUP4 PUSH2 0xB7C JUMP JUMPDEST ISZERO PUSH2 0x1012 JUMPI PUSH1 0x0 PUSH1 0x3 PUSH1 0x0 DUP6 DUP2 MSTORE PUSH1 0x20 ADD SWAP1 DUP2 MSTORE PUSH1 0x20 ADD PUSH1 0x0 KECCAK256 PUSH1 0x0 ADD PUSH1 0x0 DUP5 PUSH20 0xFFFFFFFFFFFFFFFFFFFFFFFFFFFFFFFFFFFFFFFF AND PUSH20 0xFFFFFFFFFFFFFFFFFFFFFFFFFFFFFFFFFFFFFFFF AND DUP2 MSTORE PUSH1 0x20 ADD SWAP1 DUP2 MSTORE PUSH1 0x20 ADD PUSH1 0x0 KECCAK256 PUSH1 0x0 PUSH2 0x100 EXP DUP2 SLOAD DUP2 PUSH1 0xFF MUL NOT AND SWAP1 DUP4 ISZERO ISZERO MUL OR SWAP1 SSTORE POP PUSH2 0xFAF PUSH2 0xF22 JUMP JUMPDEST PUSH20 0xFFFFFFFFFFFFFFFFFFFFFFFFFFFFFFFFFFFFFFFF AND DUP3 PUSH20 0xFFFFFFFFFFFFFFFFFFFFFFFFFFFFFFFFFFFFFFFF AND DUP5 PUSH32 0xF6391F5C32D9C69D2A47EA670B442974B53935D1EDC7FD64EB21E047A839171B PUSH1 0x40 MLOAD PUSH1 0x40 MLOAD DUP1 SWAP2 SUB SWAP1 LOG4 PUSH1 0x1 SWAP1 POP PUSH2 0x1017 JUMP JUMPDEST PUSH1 0x0 SWAP1 POP JUMPDEST SWAP3 SWAP2 POP POP JUMP JUMPDEST PUSH1 0x0 DUP1 DUP7 DUP7 DUP2 ADD SWAP1 PUSH2 0x102F SWAP2 SWAP1 PUSH2 0x1F81 JUMP JUMPDEST POP SWAP3 POP SWAP3 POP POP PUSH2 0x103E DUP2 PUSH2 0xC3F JUMP JUMPDEST DUP2 PUSH20 0xFFFFFFFFFFFFFFFFFFFFFFFFFFFFFFFFFFFFFFFF AND DUP5 DUP7 PUSH32 0xE54144D90F48A9826FDEC75D150B5BFC91C0752524EB604A5FFBA496B6DD0AAB DUP5 DUP8 PUSH1 0x40 MLOAD PUSH2 0x1088 SWAP3 SWAP2 SWAP1 PUSH2 0x2004 JUMP JUMPDEST PUSH1 0x40 MLOAD DUP1 SWAP2 SUB SWAP1 LOG4 POP POP POP POP POP POP POP JUMP JUMPDEST PUSH1 0x0 PUSH32 0xF0C57E16840DF040F15088DC2F81FE391C3923BEC73E23A9662EFC9C229C6A00 SWAP1 POP SWAP1 JUMP JUMPDEST DUP2 PUSH20 0xFFFFFFFFFFFFFFFFFFFFFFFFFFFFFFFFFFFFFFFF AND CALLER PUSH20 0xFFFFFFFFFFFFFFFFFFFFFFFFFFFFFFFFFFFFFFFF AND EQ PUSH2 0x112F JUMPI PUSH1 0x40 MLOAD PUSH32 0x8C379A000000000000000000000000000000000000000000000000000000000 DUP2 MSTORE PUSH1 0x4 ADD PUSH2 0x1126 SWAP1 PUSH2 0x2079 JUMP JUMPDEST PUSH1 0x40 MLOAD DUP1 SWAP2 SUB SWAP1 REVERT JUMPDEST DUP1 PUSH1 0x1 PUSH1 0x0 CALLER PUSH20 0xFFFFFFFFFFFFFFFFFFFFFFFFFFFFFFFFFFFFFFFF AND PUSH20 0xFFFFFFFFFFFFFFFFFFFFFFFFFFFFFFFFFFFFFFFF AND DUP2 MSTORE PUSH1 0x20 ADD SWAP1 DUP2 MSTORE PUSH1 0x20 ADD PUSH1 0x0 KECCAK256 PUSH1 0x0 DUP3 DUP3 SLOAD PUSH2 0x117E SWAP2 SWAP1 PUSH2 0x2099 JUMP JUMPDEST SWAP3 POP POP DUP2 SWAP1 SSTORE POP DUP1 PUSH1 0x0 DUP1 DUP3 DUP3 SLOAD PUSH2 0x1196 SWAP2 SWAP1 PUSH2 0x2099 JUMP JUMPDEST SWAP3 POP POP DUP2 SWAP1 SSTORE POP PUSH32 0x252449AA0B7DE4AEF34FAA5608272066C34F2CEA678FA4EE8850380955EF09B6 CALLER DUP3 PUSH1 0x40 MLOAD PUSH2 0x11CE SWAP3 SWAP2 SWAP1 PUSH2 0x1B84 JUMP JUMPDEST PUSH1 0x40 MLOAD DUP1 SWAP2 SUB SWAP1 LOG1 POP POP JUMP JUMPDEST PUSH1 0x0 PUSH1 0x4 PUSH1 0x0 SWAP1 SLOAD SWAP1 PUSH2 0x100 EXP SWAP1 DIV PUSH20 0xFFFFFFFFFFFFFFFFFFFFFFFFFFFFFFFFFFFFFFFF AND PUSH20 0xFFFFFFFFFFFFFFFFFFFFFFFFFFFFFFFFFFFFFFFF AND PUSH4 0xFE39827B DUP4 DUP8 DUP8 DUP8 PUSH1 0x40 MLOAD DUP6 PUSH4 0xFFFFFFFF AND PUSH1 0xE0 SHL DUP2 MSTORE PUSH1 0x4 ADD PUSH2 0x123C SWAP4 SWAP3 SWAP2 SWAP1 PUSH2 0x214C JUMP JUMPDEST PUSH1 0x20 PUSH1 0x40 MLOAD DUP1 DUP4 SUB DUP2 DUP6 DUP9 GAS CALL ISZERO DUP1 ISZERO PUSH2 0x125A JUMPI RETURNDATASIZE PUSH1 0x0 DUP1 RETURNDATACOPY RETURNDATASIZE PUSH1 0x0 REVERT JUMPDEST POP POP POP POP POP PUSH1 0x40 MLOAD RETURNDATASIZE PUSH1 0x1F NOT PUSH1 0x1F DUP3 ADD AND DUP3 ADD DUP1 PUSH1 0x40 MSTORE POP DUP2 ADD SWAP1 PUSH2 0x127F SWAP2 SWAP1 PUSH2 0x219F JUMP JUMPDEST SWAP1 POP SWAP5 SWAP4 POP POP POP POP JUMP JUMPDEST PUSH2 0x1293 DUP3 DUP3 PUSH2 0xB7C JUMP JUMPDEST PUSH2 0x12D6 JUMPI DUP1 DUP3 PUSH1 0x40 MLOAD PUSH32 0xE2517D3F00000000000000000000000000000000000000000000000000000000 DUP2 MSTORE PUSH1 0x4 ADD PUSH2 0x12CD SWAP3 SWAP2 SWAP1 PUSH2 0x21CC JUMP JUMPDEST PUSH1 0x40 MLOAD DUP1 SWAP2 SUB SWAP1 REVERT JUMPDEST POP POP JUMP JUMPDEST PUSH1 0x0 PUSH1 0x40 MLOAD SWAP1 POP SWAP1 JUMP JUMPDEST PUSH1 0x0 DUP1 REVERT JUMPDEST PUSH1 0x0 DUP1 REVERT JUMPDEST PUSH1 0x0 DUP2 SWAP1 POP SWAP2 SWAP1 POP JUMP JUMPDEST PUSH2 0x1301 DUP2 PUSH2 0x12EE JUMP JUMPDEST DUP2 EQ PUSH2 0x130C JUMPI PUSH1 0x0 DUP1 REVERT JUMPDEST POP JUMP JUMPDEST PUSH1 0x0 DUP2 CALLDATALOAD SWAP1 POP PUSH2 0x131E DUP2 PUSH2 0x12F8 JUMP JUMPDEST SWAP3 SWAP2 POP POP JUMP JUMPDEST PUSH1 0x0 DUP1 PUSH1 0x40 DUP4 DUP6 SUB SLT ISZERO PUSH2 0x133B JUMPI PUSH2 0x133A PUSH2 0x12E4 JUMP JUMPDEST JUMPDEST PUSH1 0x0 PUSH2 0x1349 DUP6 DUP3 DUP7 ADD PUSH2 0x130F JUMP JUMPDEST SWAP3 POP POP PUSH1 0x20 PUSH2 0x135A DUP6 DUP3 DUP7 ADD PUSH2 0x130F JUMP JUMPDEST SWAP2 POP POP SWAP3 POP SWAP3 SWAP1 POP JUMP JUMPDEST PUSH2 0x136D DUP2 PUSH2 0x12EE JUMP JUMPDEST DUP3 MSTORE POP POP JUMP JUMPDEST PUSH1 0x0 PUSH1 0x20 DUP3 ADD SWAP1 POP PUSH2 0x1388 PUSH1 0x0 DUP4 ADD DUP5 PUSH2 0x1364 JUMP JUMPDEST SWAP3 SWAP2 POP POP JUMP JUMPDEST PUSH1 0x0 PUSH32 0xFFFFFFFF00000000000000000000000000000000000000000000000000000000 DUP3 AND SWAP1 POP SWAP2 SWAP1 POP JUMP JUMPDEST PUSH2 0x13C3 DUP2 PUSH2 0x138E JUMP JUMPDEST DUP2 EQ PUSH2 0x13CE JUMPI PUSH1 0x0 DUP1 REVERT JUMPDEST POP JUMP JUMPDEST PUSH1 0x0 DUP2 CALLDATALOAD SWAP1 POP PUSH2 0x13E0 DUP2 PUSH2 0x13BA JUMP JUMPDEST SWAP3 SWAP2 POP POP JUMP JUMPDEST PUSH1 0x0 PUSH1 0x20 DUP3 DUP5 SUB SLT ISZERO PUSH2 0x13FC JUMPI PUSH2 0x13FB PUSH2 0x12E4 JUMP JUMPDEST JUMPDEST PUSH1 0x0 PUSH2 0x140A DUP5 DUP3 DUP6 ADD PUSH2 0x13D1 JUMP JUMPDEST SWAP2 POP POP SWAP3 SWAP2 POP POP JUMP JUMPDEST PUSH1 0x0 DUP2 ISZERO ISZERO SWAP1 POP SWAP2 SWAP1 POP JUMP JUMPDEST PUSH2 0x1428 DUP2 PUSH2 0x1413 JUMP JUMPDEST DUP3 MSTORE POP POP JUMP JUMPDEST PUSH1 0x0 PUSH1 0x20 DUP3 ADD SWAP1 POP PUSH2 0x1443 PUSH1 0x0 DUP4 ADD DUP5 PUSH2 0x141F JUMP JUMPDEST SWAP3 SWAP2 POP POP JUMP JUMPDEST PUSH1 0x0 DUP2 SWAP1 POP SWAP2 SWAP1 POP JUMP JUMPDEST PUSH2 0x145C DUP2 PUSH2 0x1449 JUMP JUMPDEST DUP2 EQ PUSH2 0x1467 JUMPI PUSH1 0x0 DUP1 REVERT JUMPDEST POP JUMP JUMPDEST PUSH1 0x0 DUP2 CALLDATALOAD SWAP1 POP PUSH2 0x1479 DUP2 PUSH2 0x1453 JUMP JUMPDEST SWAP3 SWAP2 POP POP JUMP JUMPDEST PUSH1 0x0 PUSH1 0x20 DUP3 DUP5 SUB SLT ISZERO PUSH2 0x1495 JUMPI PUSH2 0x1494 PUSH2 0x12E4 JUMP JUMPDEST JUMPDEST PUSH1 0x0 PUSH2 0x14A3 DUP5 DUP3 DUP6 ADD PUSH2 0x146A JUMP JUMPDEST SWAP2 POP POP SWAP3 SWAP2 POP POP JUMP JUMPDEST PUSH2 0x14B5 DUP2 PUSH2 0x1449 JUMP JUMPDEST DUP3 MSTORE POP POP JUMP JUMPDEST PUSH1 0x0 PUSH1 0x20 DUP3 ADD SWAP1 POP PUSH2 0x14D0 PUSH1 0x0 DUP4 ADD DUP5 PUSH2 0x14AC JUMP JUMPDEST SWAP3 SWAP2 POP POP JUMP JUMPDEST PUSH1 0x0 PUSH20 0xFFFFFFFFFFFFFFFFFFFFFFFFFFFFFFFFFFFFFFFF DUP3 AND SWAP1 POP SWAP2 SWAP1 POP JUMP JUMPDEST PUSH1 0x0 PUSH2 0x1501 DUP3 PUSH2 0x14D6 JUMP JUMPDEST SWAP1 POP SWAP2 SWAP1 POP JUMP JUMPDEST PUSH2 0x1511 DUP2 PUSH2 0x14F6 JUMP JUMPDEST DUP2 EQ PUSH2 0x151C JUMPI PUSH1 0x0 DUP1 REVERT JUMPDEST POP JUMP JUMPDEST PUSH1 0x0 DUP2 CALLDATALOAD SWAP1 POP PUSH2 0x152E DUP2 PUSH2 0x1508 JUMP JUMPDEST SWAP3 SWAP2 POP POP JUMP JUMPDEST PUSH1 0x0 DUP1 PUSH1 0x40 DUP4 DUP6 SUB SLT ISZERO PUSH2 0x154B JUMPI PUSH2 0x154A PUSH2 0x12E4 JUMP JUMPDEST JUMPDEST PUSH1 0x0 PUSH2 0x1559 DUP6 DUP3 DUP7 ADD PUSH2 0x146A JUMP JUMPDEST SWAP3 POP POP PUSH1 0x20 PUSH2 0x156A DUP6 DUP3 DUP7 ADD PUSH2 0x151F JUMP JUMPDEST SWAP2 POP POP SWAP3 POP SWAP3 SWAP1 POP JUMP JUMPDEST PUSH2 0x157D DUP2 PUSH2 0x14F6 JUMP JUMPDEST DUP3 MSTORE POP POP JUMP JUMPDEST PUSH1 0x0 PUSH1 0x20 DUP3 ADD SWAP1 POP PUSH2 0x1598 PUSH1 0x0 DUP4 ADD DUP5 PUSH2 0x1574 JUMP JUMPDEST SWAP3 SWAP2 POP POP JUMP JUMPDEST PUSH1 0x0 DUP1 REVERT JUMPDEST PUSH1 0x0 DUP1 REVERT JUMPDEST PUSH1 0x0 DUP1 REVERT JUMPDEST PUSH1 0x0 DUP1 DUP4 PUSH1 0x1F DUP5 ADD SLT PUSH2 0x15C3 JUMPI PUSH2 0x15C2 PUSH2 0x159E JUMP JUMPDEST JUMPDEST DUP3 CALLDATALOAD SWAP1 POP PUSH8 0xFFFFFFFFFFFFFFFF DUP2 GT ISZERO PUSH2 0x15E0 JUMPI PUSH2 0x15DF PUSH2 0x15A3 JUMP JUMPDEST JUMPDEST PUSH1 0x20 DUP4 ADD SWAP2 POP DUP4 PUSH1 0x1 DUP3 MUL DUP4 ADD GT ISZERO PUSH2 0x15FC JUMPI PUSH2 0x15FB PUSH2 0x15A8 JUMP JUMPDEST JUMPDEST SWAP3 POP SWAP3 SWAP1 POP JUMP JUMPDEST PUSH1 0x0 DUP1 PUSH1 0x0 DUP1 PUSH1 0x0 PUSH1 0x80 DUP7 DUP9 SUB SLT ISZERO PUSH2 0x161F JUMPI PUSH2 0x161E PUSH2 0x12E4 JUMP JUMPDEST JUMPDEST PUSH1 0x0 DUP7 ADD CALLDATALOAD PUSH8 0xFFFFFFFFFFFFFFFF DUP2 GT ISZERO PUSH2 0x163D JUMPI PUSH2 0x163C PUSH2 0x12E9 JUMP JUMPDEST JUMPDEST PUSH2 0x1649 DUP9 DUP3 DUP10 ADD PUSH2 0x15AD JUMP JUMPDEST SWAP6 POP SWAP6 POP POP PUSH1 0x20 PUSH2 0x165C DUP9 DUP3 DUP10 ADD PUSH2 0x146A JUMP JUMPDEST SWAP4 POP POP PUSH1 0x40 PUSH2 0x166D DUP9 DUP3 DUP10 ADD PUSH2 0x130F JUMP JUMPDEST SWAP3 POP POP PUSH1 0x60 PUSH2 0x167E DUP9 DUP3 DUP10 ADD PUSH2 0x151F JUMP JUMPDEST SWAP2 POP POP SWAP3 SWAP6 POP SWAP3 SWAP6 SWAP1 SWAP4 POP JUMP JUMPDEST PUSH1 0x0 DUP1 PUSH1 0x40 DUP4 DUP6 SUB SLT ISZERO PUSH2 0x16A2 JUMPI PUSH2 0x16A1 PUSH2 0x12E4 JUMP JUMPDEST JUMPDEST PUSH1 0x0 PUSH2 0x16B0 DUP6 DUP3 DUP7 ADD PUSH2 0x151F JUMP JUMPDEST SWAP3 POP POP PUSH1 0x20 PUSH2 0x16C1 DUP6 DUP3 DUP7 ADD PUSH2 0x151F JUMP JUMPDEST SWAP2 POP POP SWAP3 POP SWAP3 SWAP1 POP JUMP JUMPDEST PUSH1 0x0 DUP1 PUSH1 0x0 DUP1 PUSH1 0x0 PUSH1 0xA0 DUP7 DUP9 SUB SLT ISZERO PUSH2 0x16E7 JUMPI PUSH2 0x16E6 PUSH2 0x12E4 JUMP JUMPDEST JUMPDEST PUSH1 0x0 PUSH2 0x16F5 DUP9 DUP3 DUP10 ADD PUSH2 0x130F JUMP JUMPDEST SWAP6 POP POP PUSH1 0x20 PUSH2 0x1706 DUP9 DUP3 DUP10 ADD PUSH2 0x151F JUMP JUMPDEST SWAP5 POP POP PUSH1 0x40 PUSH2 0x1717 DUP9 DUP3 DUP10 ADD PUSH2 0x151F JUMP JUMPDEST SWAP4 POP POP PUSH1 0x60 PUSH2 0x1728 DUP9 DUP3 DUP10 ADD PUSH2 0x130F JUMP JUMPDEST SWAP3 POP POP PUSH1 0x80 PUSH2 0x1739 DUP9 DUP3 DUP10 ADD PUSH2 0x130F JUMP JUMPDEST SWAP2 POP POP SWAP3 SWAP6 POP SWAP3 SWAP6 SWAP1 SWAP4 POP JUMP JUMPDEST PUSH1 0x0 PUSH1 0x20 DUP3 DUP5 SUB SLT ISZERO PUSH2 0x175C JUMPI PUSH2 0x175B PUSH2 0x12E4 JUMP JUMPDEST JUMPDEST PUSH1 0x0 PUSH2 0x176A DUP5 DUP3 DUP6 ADD PUSH2 0x151F JUMP JUMPDEST SWAP2 POP POP SWAP3 SWAP2 POP POP JUMP JUMPDEST PUSH1 0x0 DUP1 DUP4 PUSH1 0x1F DUP5 ADD SLT PUSH2 0x1789 JUMPI PUSH2 0x1788 PUSH2 0x159E JUMP JUMPDEST JUMPDEST DUP3 CALLDATALOAD SWAP1 POP PUSH8 0xFFFFFFFFFFFFFFFF DUP2 GT ISZERO PUSH2 0x17A6 JUMPI PUSH2 0x17A5 PUSH2 0x15A3 JUMP JUMPDEST JUMPDEST PUSH1 0x20 DUP4 ADD SWAP2 POP DUP4 PUSH1 0x20 DUP3 MUL DUP4 ADD GT ISZERO PUSH2 0x17C2 JUMPI PUSH2 0x17C1 PUSH2 0x15A8 JUMP JUMPDEST JUMPDEST SWAP3 POP SWAP3 SWAP1 POP JUMP JUMPDEST PUSH1 0x0 DUP1 DUP4 PUSH1 0x1F DUP5 ADD SLT PUSH2 0x17DF JUMPI PUSH2 0x17DE PUSH2 0x159E JUMP JUMPDEST JUMPDEST DUP3 CALLDATALOAD SWAP1 POP PUSH8 0xFFFFFFFFFFFFFFFF DUP2 GT ISZERO PUSH2 0x17FC JUMPI PUSH2 0x17FB PUSH2 0x15A3 JUMP JUMPDEST JUMPDEST PUSH1 0x20 DUP4 ADD SWAP2 POP DUP4 PUSH1 0x20 DUP3 MUL DUP4 ADD GT ISZERO PUSH2 0x1818 JUMPI PUSH2 0x1817 PUSH2 0x15A8 JUMP JUMPDEST JUMPDEST SWAP3 POP SWAP3 SWAP1 POP JUMP JUMPDEST PUSH1 0x0 DUP1 DUP4 PUSH1 0x1F DUP5 ADD SLT PUSH2 0x1835 JUMPI PUSH2 0x1834 PUSH2 0x159E JUMP JUMPDEST JUMPDEST DUP3 CALLDATALOAD SWAP1 POP PUSH8 0xFFFFFFFFFFFFFFFF DUP2 GT ISZERO PUSH2 0x1852 JUMPI PUSH2 0x1851 PUSH2 0x15A3 JUMP JUMPDEST JUMPDEST PUSH1 0x20 DUP4 ADD SWAP2 POP DUP4 PUSH1 0x20 DUP3 MUL DUP4 ADD GT ISZERO PUSH2 0x186E JUMPI PUSH2 0x186D PUSH2 0x15A8 JUMP JUMPDEST JUMPDEST SWAP3 POP SWAP3 SWAP1 POP JUMP JUMPDEST PUSH1 0x0 DUP1 PUSH1 0x0 DUP1 PUSH1 0x0 DUP1 PUSH1 0x60 DUP8 DUP10 SUB SLT ISZERO PUSH2 0x1892 JUMPI PUSH2 0x1891 PUSH2 0x12E4 JUMP JUMPDEST JUMPDEST PUSH1 0x0 DUP8 ADD CALLDATALOAD PUSH8 0xFFFFFFFFFFFFFFFF DUP2 GT ISZERO PUSH2 0x18B0 JUMPI PUSH2 0x18AF PUSH2 0x12E9 JUMP JUMPDEST JUMPDEST PUSH2 0x18BC DUP10 DUP3 DUP11 ADD PUSH2 0x1773 JUMP JUMPDEST SWAP7 POP SWAP7 POP POP PUSH1 0x20 DUP8 ADD CALLDATALOAD PUSH8 0xFFFFFFFFFFFFFFFF DUP2 GT ISZERO PUSH2 0x18DF JUMPI PUSH2 0x18DE PUSH2 0x12E9 JUMP JUMPDEST JUMPDEST PUSH2 0x18EB DUP10 DUP3 DUP11 ADD PUSH2 0x17C9 JUMP JUMPDEST SWAP5 POP SWAP5 POP POP PUSH1 0x40 DUP8 ADD CALLDATALOAD PUSH8 0xFFFFFFFFFFFFFFFF DUP2 GT ISZERO PUSH2 0x190E JUMPI PUSH2 0x190D PUSH2 0x12E9 JUMP JUMPDEST JUMPDEST PUSH2 0x191A DUP10 DUP3 DUP11 ADD PUSH2 0x181F JUMP JUMPDEST SWAP3 POP SWAP3 POP POP SWAP3 SWAP6 POP SWAP3 SWAP6 POP SWAP3 SWAP6 JUMP JUMPDEST PUSH1 0x0 DUP1 PUSH1 0x40 DUP4 DUP6 SUB SLT ISZERO PUSH2 0x1940 JUMPI PUSH2 0x193F PUSH2 0x12E4 JUMP JUMPDEST JUMPDEST PUSH1 0x0 PUSH2 0x194E DUP6 DUP3 DUP7 ADD PUSH2 0x130F JUMP JUMPDEST SWAP3 POP POP PUSH1 0x20 PUSH2 0x195F DUP6 DUP3 DUP7 ADD PUSH2 0x151F JUMP JUMPDEST SWAP2 POP POP SWAP3 POP SWAP3 SWAP1 POP JUMP JUMPDEST PUSH1 0x0 PUSH1 0x20 DUP3 DUP5 SUB SLT ISZERO PUSH2 0x197F JUMPI PUSH2 0x197E PUSH2 0x12E4 JUMP JUMPDEST JUMPDEST PUSH1 0x0 PUSH2 0x198D DUP5 DUP3 DUP6 ADD PUSH2 0x130F JUMP JUMPDEST SWAP2 POP POP SWAP3 SWAP2 POP POP JUMP JUMPDEST PUSH1 0x0 PUSH1 0x40 DUP3 ADD SWAP1 POP PUSH2 0x19AB PUSH1 0x0 DUP4 ADD DUP6 PUSH2 0x1364 JUMP JUMPDEST PUSH2 0x19B8 PUSH1 0x20 DUP4 ADD DUP5 PUSH2 0x1364 JUMP JUMPDEST SWAP4 SWAP3 POP POP POP JUMP JUMPDEST PUSH1 0x0 DUP2 MLOAD SWAP1 POP PUSH2 0x19CE DUP2 PUSH2 0x12F8 JUMP JUMPDEST SWAP3 SWAP2 POP POP JUMP JUMPDEST PUSH1 0x0 PUSH1 0x20 DUP3 DUP5 SUB SLT ISZERO PUSH2 0x19EA JUMPI PUSH2 0x19E9 PUSH2 0x12E4 JUMP JUMPDEST JUMPDEST PUSH1 0x0 PUSH2 0x19F8 DUP5 DUP3 DUP6 ADD PUSH2 0x19BF JUMP JUMPDEST SWAP2 POP POP SWAP3 SWAP2 POP POP JUMP JUMPDEST PUSH1 0x0 DUP3 DUP3 MSTORE PUSH1 0x20 DUP3 ADD SWAP1 POP SWAP3 SWAP2 POP POP JUMP JUMPDEST PUSH32 0x576D624170703A204F6E6C7920574D4220676174657761792063616E2063616C PUSH1 0x0 DUP3 ADD MSTORE PUSH32 0x6C20746869732066756E6374696F6E0000000000000000000000000000000000 PUSH1 0x20 DUP3 ADD MSTORE POP JUMP JUMPDEST PUSH1 0x0 PUSH2 0x1A6E PUSH1 0x2F DUP4 PUSH2 0x1A01 JUMP JUMPDEST SWAP2 POP PUSH2 0x1A79 DUP3 PUSH2 0x1A12 JUMP JUMPDEST PUSH1 0x40 DUP3 ADD SWAP1 POP SWAP2 SWAP1 POP JUMP JUMPDEST PUSH1 0x0 PUSH1 0x20 DUP3 ADD SWAP1 POP DUP2 DUP2 SUB PUSH1 0x0 DUP4 ADD MSTORE PUSH2 0x1A9D DUP2 PUSH2 0x1A61 JUMP JUMPDEST SWAP1 POP SWAP2 SWAP1 POP JUMP JUMPDEST PUSH32 0x576D624170703A2052656D6F7465206973206E6F742074727573746564000000 PUSH1 0x0 DUP3 ADD MSTORE POP JUMP JUMPDEST PUSH1 0x0 PUSH2 0x1ADA PUSH1 0x1D DUP4 PUSH2 0x1A01 JUMP JUMPDEST SWAP2 POP PUSH2 0x1AE5 DUP3 PUSH2 0x1AA4 JUMP JUMPDEST PUSH1 0x20 DUP3 ADD SWAP1 POP SWAP2 SWAP1 POP JUMP JUMPDEST PUSH1 0x0 PUSH1 0x20 DUP3 ADD SWAP1 POP DUP2 DUP2 SUB PUSH1 0x0 DUP4 ADD MSTORE PUSH2 0x1B09 DUP2 PUSH2 0x1ACD JUMP JUMPDEST SWAP1 POP SWAP2 SWAP1 POP JUMP JUMPDEST PUSH1 0x0 DUP2 SWAP1 POP SWAP2 SWAP1 POP JUMP JUMPDEST PUSH1 0x0 PUSH8 0xFFFFFFFFFFFFFFFF DUP3 AND SWAP1 POP SWAP2 SWAP1 POP JUMP JUMPDEST PUSH1 0x0 DUP2 SWAP1 POP SWAP2 SWAP1 POP JUMP JUMPDEST PUSH1 0x0 PUSH2 0x1B53 PUSH2 0x1B4E PUSH2 0x1B49 DUP5 PUSH2 0x1B10 JUMP JUMPDEST PUSH2 0x1B2E JUMP JUMPDEST PUSH2 0x1B1A JUMP JUMPDEST SWAP1 POP SWAP2 SWAP1 POP JUMP JUMPDEST PUSH2 0x1B63 DUP2 PUSH2 0x1B38 JUMP JUMPDEST DUP3 MSTORE POP POP JUMP JUMPDEST PUSH1 0x0 PUSH1 0x20 DUP3 ADD SWAP1 POP PUSH2 0x1B7E PUSH1 0x0 DUP4 ADD DUP5 PUSH2 0x1B5A JUMP JUMPDEST SWAP3 SWAP2 POP POP JUMP JUMPDEST PUSH1 0x0 PUSH1 0x40 DUP3 ADD SWAP1 POP PUSH2 0x1B99 PUSH1 0x0 DUP4 ADD DUP6 PUSH2 0x1574 JUMP JUMPDEST PUSH2 0x1BA6 PUSH1 0x20 DUP4 ADD DUP5 PUSH2 0x1364 JUMP JUMPDEST SWAP4 SWAP3 POP POP POP JUMP JUMPDEST PUSH32 0x576D624170703A206D75737420686176652061646D696E20726F6C6520746F20 PUSH1 0x0 DUP3 ADD MSTORE PUSH32 0x73657420747275737465642072656D6F74657300000000000000000000000000 PUSH1 0x20 DUP3 ADD MSTORE POP JUMP JUMPDEST PUSH1 0x0 PUSH2 0x1C09 PUSH1 0x33 DUP4 PUSH2 0x1A01 JUMP JUMPDEST SWAP2 POP PUSH2 0x1C14 DUP3 PUSH2 0x1BAD JUMP JUMPDEST PUSH1 0x40 DUP3 ADD SWAP1 POP SWAP2 SWAP1 POP JUMP JUMPDEST PUSH1 0x0 PUSH1 0x20 DUP3 ADD SWAP1 POP DUP2 DUP2 SUB PUSH1 0x0 DUP4 ADD MSTORE PUSH2 0x1C38 DUP2 PUSH2 0x1BFC JUMP JUMPDEST SWAP1 POP SWAP2 SWAP1 POP JUMP JUMPDEST PUSH32 0x576D624170703A20696E76616C696420696E7075740000000000000000000000 PUSH1 0x0 DUP3 ADD MSTORE POP JUMP JUMPDEST PUSH1 0x0 PUSH2 0x1C75 PUSH1 0x15 DUP4 PUSH2 0x1A01 JUMP JUMPDEST SWAP2 POP PUSH2 0x1C80 DUP3 PUSH2 0x1C3F JUMP JUMPDEST PUSH1 0x20 DUP3 ADD SWAP1 POP SWAP2 SWAP1 POP JUMP JUMPDEST PUSH1 0x0 PUSH1 0x20 DUP3 ADD SWAP1 POP DUP2 DUP2 SUB PUSH1 0x0 DUP4 ADD MSTORE PUSH2 0x1CA4 DUP2 PUSH2 0x1C68 JUMP JUMPDEST SWAP1 POP SWAP2 SWAP1 POP JUMP JUMPDEST PUSH32 0x4E487B7100000000000000000000000000000000000000000000000000000000 PUSH1 0x0 MSTORE PUSH1 0x32 PUSH1 0x4 MSTORE PUSH1 0x24 PUSH1 0x0 REVERT JUMPDEST PUSH2 0x1CE3 DUP2 PUSH2 0x1413 JUMP JUMPDEST DUP2 EQ PUSH2 0x1CEE JUMPI PUSH1 0x0 DUP1 REVERT JUMPDEST POP JUMP JUMPDEST PUSH1 0x0 DUP2 CALLDATALOAD SWAP1 POP PUSH2 0x1D00 DUP2 PUSH2 0x1CDA JUMP JUMPDEST SWAP3 SWAP2 POP POP JUMP JUMPDEST PUSH1 0x0 PUSH1 0x20 DUP3 DUP5 SUB SLT ISZERO PUSH2 0x1D1C JUMPI PUSH2 0x1D1B PUSH2 0x12E4 JUMP JUMPDEST JUMPDEST PUSH1 0x0 PUSH2 0x1D2A DUP5 DUP3 DUP6 ADD PUSH2 0x1CF1 JUMP JUMPDEST SWAP2 POP POP SWAP3 SWAP2 POP POP JUMP JUMPDEST PUSH32 0x496E73756666696369656E742062616C616E6365000000000000000000000000 PUSH1 0x0 DUP3 ADD MSTORE POP JUMP JUMPDEST PUSH1 0x0 PUSH2 0x1D69 PUSH1 0x14 DUP4 PUSH2 0x1A01 JUMP JUMPDEST SWAP2 POP PUSH2 0x1D74 DUP3 PUSH2 0x1D33 JUMP JUMPDEST PUSH1 0x20 DUP3 ADD SWAP1 POP SWAP2 SWAP1 POP JUMP JUMPDEST PUSH1 0x0 PUSH1 0x20 DUP3 ADD SWAP1 POP DUP2 DUP2 SUB PUSH1 0x0 DUP4 ADD MSTORE PUSH2 0x1D98 DUP2 PUSH2 0x1D5C JUMP JUMPDEST SWAP1 POP SWAP2 SWAP1 POP JUMP JUMPDEST PUSH32 0x4E487B7100000000000000000000000000000000000000000000000000000000 PUSH1 0x0 MSTORE PUSH1 0x11 PUSH1 0x4 MSTORE PUSH1 0x24 PUSH1 0x0 REVERT JUMPDEST PUSH1 0x0 PUSH2 0x1DD9 DUP3 PUSH2 0x12EE JUMP JUMPDEST SWAP2 POP PUSH2 0x1DE4 DUP4 PUSH2 0x12EE JUMP JUMPDEST SWAP3 POP DUP3 DUP3 SUB SWAP1 POP DUP2 DUP2 GT ISZERO PUSH2 0x1DFC JUMPI PUSH2 0x1DFB PUSH2 0x1D9F JUMP JUMPDEST JUMPDEST SWAP3 SWAP2 POP POP JUMP JUMPDEST PUSH1 0x0 PUSH2 0x1E0D DUP3 PUSH2 0x14D6 JUMP JUMPDEST SWAP1 POP SWAP2 SWAP1 POP JUMP JUMPDEST PUSH2 0x1E1D DUP2 PUSH2 0x1E02 JUMP JUMPDEST DUP2 EQ PUSH2 0x1E28 JUMPI PUSH1 0x0 DUP1 REVERT JUMPDEST POP JUMP JUMPDEST PUSH1 0x0 DUP2 CALLDATALOAD SWAP1 POP PUSH2 0x1E3A DUP2 PUSH2 0x1E14 JUMP JUMPDEST SWAP3 SWAP2 POP POP JUMP JUMPDEST PUSH1 0x0 DUP1 REVERT JUMPDEST PUSH1 0x0 PUSH1 0x1F NOT PUSH1 0x1F DUP4 ADD AND SWAP1 POP SWAP2 SWAP1 POP JUMP JUMPDEST PUSH32 0x4E487B7100000000000000000000000000000000000000000000000000000000 PUSH1 0x0 MSTORE PUSH1 0x41 PUSH1 0x4 MSTORE PUSH1 0x24 PUSH1 0x0 REVERT JUMPDEST PUSH2 0x1E8E DUP3 PUSH2 0x1E45 JUMP JUMPDEST DUP2 ADD DUP2 DUP2 LT PUSH8 0xFFFFFFFFFFFFFFFF DUP3 GT OR ISZERO PUSH2 0x1EAD JUMPI PUSH2 0x1EAC PUSH2 0x1E56 JUMP JUMPDEST JUMPDEST DUP1 PUSH1 0x40 MSTORE POP POP POP JUMP JUMPDEST PUSH1 0x0 PUSH2 0x1EC0 PUSH2 0x12DA JUMP JUMPDEST SWAP1 POP PUSH2 0x1ECC DUP3 DUP3 PUSH2 0x1E85 JUMP JUMPDEST SWAP2 SWAP1 POP JUMP JUMPDEST PUSH1 0x0 PUSH8 0xFFFFFFFFFFFFFFFF DUP3 GT ISZERO PUSH2 0x1EEC JUMPI PUSH2 0x1EEB PUSH2 0x1E56 JUMP JUMPDEST JUMPDEST PUSH2 0x1EF5 DUP3 PUSH2 0x1E45 JUMP JUMPDEST SWAP1 POP PUSH1 0x20 DUP2 ADD SWAP1 POP SWAP2 SWAP1 POP JUMP JUMPDEST DUP3 DUP2 DUP4 CALLDATACOPY PUSH1 0x0 DUP4 DUP4 ADD MSTORE POP POP POP JUMP JUMPDEST PUSH1 0x0 PUSH2 0x1F24 PUSH2 0x1F1F DUP5 PUSH2 0x1ED1 JUMP JUMPDEST PUSH2 0x1EB6 JUMP JUMPDEST SWAP1 POP DUP3 DUP2 MSTORE PUSH1 0x20 DUP2 ADD DUP5 DUP5 DUP5 ADD GT ISZERO PUSH2 0x1F40 JUMPI PUSH2 0x1F3F PUSH2 0x1E40 JUMP JUMPDEST JUMPDEST PUSH2 0x1F4B DUP5 DUP3 DUP6 PUSH2 0x1F02 JUMP JUMPDEST POP SWAP4 SWAP3 POP POP POP JUMP JUMPDEST PUSH1 0x0 DUP3 PUSH1 0x1F DUP4 ADD SLT PUSH2 0x1F68 JUMPI PUSH2 0x1F67 PUSH2 0x159E JUMP JUMPDEST JUMPDEST DUP2 CALLDATALOAD PUSH2 0x1F78 DUP5 DUP3 PUSH1 0x20 DUP7 ADD PUSH2 0x1F11 JUMP JUMPDEST SWAP2 POP POP SWAP3 SWAP2 POP POP JUMP JUMPDEST PUSH1 0x0 DUP1 PUSH1 0x0 DUP1 PUSH1 0x80 DUP6 DUP8 SUB SLT ISZERO PUSH2 0x1F9B JUMPI PUSH2 0x1F9A PUSH2 0x12E4 JUMP JUMPDEST JUMPDEST PUSH1 0x0 PUSH2 0x1FA9 DUP8 DUP3 DUP9 ADD PUSH2 0x1E2B JUMP JUMPDEST SWAP5 POP POP PUSH1 0x20 PUSH2 0x1FBA DUP8 DUP3 DUP9 ADD PUSH2 0x1E2B JUMP JUMPDEST SWAP4 POP POP PUSH1 0x40 PUSH2 0x1FCB DUP8 DUP3 DUP9 ADD PUSH2 0x130F JUMP JUMPDEST SWAP3 POP POP PUSH1 0x60 DUP6 ADD CALLDATALOAD PUSH8 0xFFFFFFFFFFFFFFFF DUP2 GT ISZERO PUSH2 0x1FEC JUMPI PUSH2 0x1FEB PUSH2 0x12E9 JUMP JUMPDEST JUMPDEST PUSH2 0x1FF8 DUP8 DUP3 DUP9 ADD PUSH2 0x1F53 JUMP JUMPDEST SWAP2 POP POP SWAP3 SWAP6 SWAP2 SWAP5 POP SWAP3 POP JUMP JUMPDEST PUSH1 0x0 PUSH1 0x40 DUP3 ADD SWAP1 POP PUSH2 0x2019 PUSH1 0x0 DUP4 ADD DUP6 PUSH2 0x1364 JUMP JUMPDEST PUSH2 0x2026 PUSH1 0x20 DUP4 ADD DUP5 PUSH2 0x1574 JUMP JUMPDEST SWAP4 SWAP3 POP POP POP JUMP JUMPDEST PUSH32 0x4F6E6C79206F776E65722063616E204C6F636B20436F696E7300000000000000 PUSH1 0x0 DUP3 ADD MSTORE POP JUMP JUMPDEST PUSH1 0x0 PUSH2 0x2063 PUSH1 0x19 DUP4 PUSH2 0x1A01 JUMP JUMPDEST SWAP2 POP PUSH2 0x206E DUP3 PUSH2 0x202D JUMP JUMPDEST PUSH1 0x20 DUP3 ADD SWAP1 POP SWAP2 SWAP1 POP JUMP JUMPDEST PUSH1 0x0 PUSH1 0x20 DUP3 ADD SWAP1 POP DUP2 DUP2 SUB PUSH1 0x0 DUP4 ADD MSTORE PUSH2 0x2092 DUP2 PUSH2 0x2056 JUMP JUMPDEST SWAP1 POP SWAP2 SWAP1 POP JUMP JUMPDEST PUSH1 0x0 PUSH2 0x20A4 DUP3 PUSH2 0x12EE JUMP JUMPDEST SWAP2 POP PUSH2 0x20AF DUP4 PUSH2 0x12EE JUMP JUMPDEST SWAP3 POP DUP3 DUP3 ADD SWAP1 POP DUP1 DUP3 GT ISZERO PUSH2 0x20C7 JUMPI PUSH2 0x20C6 PUSH2 0x1D9F JUMP JUMPDEST JUMPDEST SWAP3 SWAP2 POP POP JUMP JUMPDEST PUSH1 0x0 DUP2 MLOAD SWAP1 POP SWAP2 SWAP1 POP JUMP JUMPDEST PUSH1 0x0 DUP3 DUP3 MSTORE PUSH1 0x20 DUP3 ADD SWAP1 POP SWAP3 SWAP2 POP POP JUMP JUMPDEST PUSH1 0x0 JUMPDEST DUP4 DUP2 LT ISZERO PUSH2 0x2107 JUMPI DUP1 DUP3 ADD MLOAD DUP2 DUP5 ADD MSTORE PUSH1 0x20 DUP2 ADD SWAP1 POP PUSH2 0x20EC JUMP JUMPDEST PUSH1 0x0 DUP5 DUP5 ADD MSTORE POP POP POP POP JUMP JUMPDEST PUSH1 0x0 PUSH2 0x211E DUP3 PUSH2 0x20CD JUMP JUMPDEST PUSH2 0x2128 DUP2 DUP6 PUSH2 0x20D8 JUMP JUMPDEST SWAP4 POP PUSH2 0x2138 DUP2 DUP6 PUSH1 0x20 DUP7 ADD PUSH2 0x20E9 JUMP JUMPDEST PUSH2 0x2141 DUP2 PUSH2 0x1E45 JUMP JUMPDEST DUP5 ADD SWAP2 POP POP SWAP3 SWAP2 POP POP JUMP JUMPDEST PUSH1 0x0 PUSH1 0x60 DUP3 ADD SWAP1 POP PUSH2 0x2161 PUSH1 0x0 DUP4 ADD DUP7 PUSH2 0x1364 JUMP JUMPDEST PUSH2 0x216E PUSH1 0x20 DUP4 ADD DUP6 PUSH2 0x1574 JUMP JUMPDEST DUP2 DUP2 SUB PUSH1 0x40 DUP4 ADD MSTORE PUSH2 0x2180 DUP2 DUP5 PUSH2 0x2113 JUMP JUMPDEST SWAP1 POP SWAP5 SWAP4 POP POP POP POP JUMP JUMPDEST PUSH1 0x0 DUP2 MLOAD SWAP1 POP PUSH2 0x2199 DUP2 PUSH2 0x1453 JUMP JUMPDEST SWAP3 SWAP2 POP POP JUMP JUMPDEST PUSH1 0x0 PUSH1 0x20 DUP3 DUP5 SUB SLT ISZERO PUSH2 0x21B5 JUMPI PUSH2 0x21B4 PUSH2 0x12E4 JUMP JUMPDEST JUMPDEST PUSH1 0x0 PUSH2 0x21C3 DUP5 DUP3 DUP6 ADD PUSH2 0x218A JUMP JUMPDEST SWAP2 POP POP SWAP3 SWAP2 POP POP JUMP JUMPDEST PUSH1 0x0 PUSH1 0x40 DUP3 ADD SWAP1 POP PUSH2 0x21E1 PUSH1 0x0 DUP4 ADD DUP6 PUSH2 0x1574 JUMP JUMPDEST PUSH2 0x21EE PUSH1 0x20 DUP4 ADD DUP5 PUSH2 0x14AC JUMP JUMPDEST SWAP4 SWAP3 POP POP POP JUMP INVALID LOG2 PUSH5 0x6970667358 0x22 SLT KECCAK256 0x28 0xA9 SWAP5 SSTORE 0xE9 0xC8 0xEA 0x4E SHR PUSH19 0x7B485508F6E3455EDCABD45BB1D8A939B9C0F 0x5C 0xE 0xDF PUSH5 0x736F6C6343 STOP ADDMOD AND STOP CALLER "},"methodIdentifiers":{"DEFAULT_ADMIN_ROLE()":"a217fddf","balanceOf(address)":"70a08231","crossTo(uint256,address,address,uint256,uint256)":"5f4f9f14","estimateFee(uint256,uint256)":"00e1d8d0","getRoleAdmin(bytes32)":"248a9ca3","grantRole(bytes32,address)":"2f2ff15d","hasRole(bytes32,address)":"91d14854","initialize(address,address)":"485cc955","renounceRole(bytes32,address)":"36568abe","revokeRole(bytes32,address)":"d547741f","setTrustedRemotes(uint256[],address[],bool[])":"7f34071d","supportsInterface(bytes4)":"01ffc9a7","totalSupply()":"18160ddd","trustedRemotes(uint256,address)":"e3d4683b","withdrawCoins(uint256)":"f9f95a0f","wmbGateway()":"3088a5f9","wmbReceive(bytes,bytes32,uint256,address)":"3a1a5b76"}}}}}