{
  "_format": "hh-sol-artifact-1",
  "contractName": "lockContract",
  "sourceName": "contracts/deployed/lockContract.sol",
  "abi": [
    {
      "inputs": [
        {
          "internalType": "address",
          "name": "_admin",
          "type": "address"
        },
        {
          "internalType": "address",
          "name": "_wmbGateway",
          "type": "address"
        }
      ],
      "stateMutability": "nonpayable",
      "type": "constructor"
    },
    {
      "inputs": [],
      "name": "AccessControlBadConfirmation",
      "type": "error"
    },
    {
      "inputs": [
        {
          "internalType": "address",
          "name": "account",
          "type": "address"
        },
        {
          "internalType": "bytes32",
          "name": "neededRole",
          "type": "bytes32"
        }
      ],
      "name": "AccessControlUnauthorizedAccount",
      "type": "error"
    },
    {
      "inputs": [],
      "name": "InvalidInitialization",
      "type": "error"
    },
    {
      "inputs": [],
      "name": "NotInitializing",
      "type": "error"
    },
    {
      "anonymous": false,
      "inputs": [
        {
          "indexed": true,
          "internalType": "bytes32",
          "name": "messageId",
          "type": "bytes32"
        },
        {
          "indexed": true,
          "internalType": "uint256",
          "name": "fromChainId",
          "type": "uint256"
        },
        {
          "indexed": true,
          "internalType": "address",
          "name": "to",
          "type": "address"
        },
        {
          "indexed": false,
          "internalType": "uint256",
          "name": "amount",
          "type": "uint256"
        },
        {
          "indexed": false,
          "internalType": "address",
          "name": "fromSC",
          "type": "address"
        }
      ],
      "name": "CrossChainMint",
      "type": "event"
    },
    {
      "anonymous": false,
      "inputs": [
        {
          "indexed": false,
          "internalType": "uint64",
          "name": "version",
          "type": "uint64"
        }
      ],
      "name": "Initialized",
      "type": "event"
    },
    {
      "anonymous": false,
      "inputs": [
        {
          "indexed": true,
          "internalType": "bytes32",
          "name": "role",
          "type": "bytes32"
        },
        {
          "indexed": true,
          "internalType": "bytes32",
          "name": "previousAdminRole",
          "type": "bytes32"
        },
        {
          "indexed": true,
          "internalType": "bytes32",
          "name": "newAdminRole",
          "type": "bytes32"
        }
      ],
      "name": "RoleAdminChanged",
      "type": "event"
    },
    {
      "anonymous": false,
      "inputs": [
        {
          "indexed": true,
          "internalType": "bytes32",
          "name": "role",
          "type": "bytes32"
        },
        {
          "indexed": true,
          "internalType": "address",
          "name": "account",
          "type": "address"
        },
        {
          "indexed": true,
          "internalType": "address",
          "name": "sender",
          "type": "address"
        }
      ],
      "name": "RoleGranted",
      "type": "event"
    },
    {
      "anonymous": false,
      "inputs": [
        {
          "indexed": true,
          "internalType": "bytes32",
          "name": "role",
          "type": "bytes32"
        },
        {
          "indexed": true,
          "internalType": "address",
          "name": "account",
          "type": "address"
        },
        {
          "indexed": true,
          "internalType": "address",
          "name": "sender",
          "type": "address"
        }
      ],
      "name": "RoleRevoked",
      "type": "event"
    },
    {
      "anonymous": false,
      "inputs": [
        {
          "indexed": false,
          "internalType": "address",
          "name": "user",
          "type": "address"
        },
        {
          "indexed": false,
          "internalType": "uint256",
          "name": "amount",
          "type": "uint256"
        }
      ],
      "name": "coinsLocked",
      "type": "event"
    },
    {
      "anonymous": false,
      "inputs": [
        {
          "indexed": false,
          "internalType": "address",
          "name": "user",
          "type": "address"
        },
        {
          "indexed": false,
          "internalType": "uint256",
          "name": "amount",
          "type": "uint256"
        }
      ],
      "name": "coinsReleased",
      "type": "event"
    },
    {
      "inputs": [],
      "name": "DEFAULT_ADMIN_ROLE",
      "outputs": [
        {
          "internalType": "bytes32",
          "name": "",
          "type": "bytes32"
        }
      ],
      "stateMutability": "view",
      "type": "function"
    },
    {
      "inputs": [
        {
          "internalType": "address",
          "name": "user",
          "type": "address"
        }
      ],
      "name": "balanceOf",
      "outputs": [
        {
          "internalType": "uint256",
          "name": "",
          "type": "uint256"
        }
      ],
      "stateMutability": "view",
      "type": "function"
    },
    {
      "inputs": [
        {
          "internalType": "uint256",
          "name": "toChainId",
          "type": "uint256"
        },
        {
          "internalType": "address",
          "name": "toSC",
          "type": "address"
        },
        {
          "internalType": "address",
          "name": "toUser",
          "type": "address"
        },
        {
          "internalType": "uint256",
          "name": "amount",
          "type": "uint256"
        },
        {
          "internalType": "uint256",
          "name": "gasLimit",
          "type": "uint256"
        }
      ],
      "name": "crossTo",
      "outputs": [],
      "stateMutability": "payable",
      "type": "function"
    },
    {
      "inputs": [
        {
          "internalType": "uint256",
          "name": "toChain",
          "type": "uint256"
        },
        {
          "internalType": "uint256",
          "name": "gasLimit",
          "type": "uint256"
        }
      ],
      "name": "estimateFee",
      "outputs": [
        {
          "internalType": "uint256",
          "name": "",
          "type": "uint256"
        }
      ],
      "stateMutability": "view",
      "type": "function"
    },
    {
      "inputs": [
        {
          "internalType": "bytes32",
          "name": "role",
          "type": "bytes32"
        }
      ],
      "name": "getRoleAdmin",
      "outputs": [
        {
          "internalType": "bytes32",
          "name": "",
          "type": "bytes32"
        }
      ],
      "stateMutability": "view",
      "type": "function"
    },
    {
      "inputs": [
        {
          "internalType": "bytes32",
          "name": "role",
          "type": "bytes32"
        },
        {
          "internalType": "address",
          "name": "account",
          "type": "address"
        }
      ],
      "name": "grantRole",
      "outputs": [],
      "stateMutability": "nonpayable",
      "type": "function"
    },
    {
      "inputs": [
        {
          "internalType": "bytes32",
          "name": "role",
          "type": "bytes32"
        },
        {
          "internalType": "address",
          "name": "account",
          "type": "address"
        }
      ],
      "name": "hasRole",
      "outputs": [
        {
          "internalType": "bool",
          "name": "",
          "type": "bool"
        }
      ],
      "stateMutability": "view",
      "type": "function"
    },
    {
      "inputs": [
        {
          "internalType": "address",
          "name": "admin",
          "type": "address"
        },
        {
          "internalType": "address",
          "name": "_wmbGateway",
          "type": "address"
        }
      ],
      "name": "initialize",
      "outputs": [],
      "stateMutability": "nonpayable",
      "type": "function"
    },
    {
      "inputs": [
        {
          "internalType": "bytes32",
          "name": "role",
          "type": "bytes32"
        },
        {
          "internalType": "address",
          "name": "callerConfirmation",
          "type": "address"
        }
      ],
      "name": "renounceRole",
      "outputs": [],
      "stateMutability": "nonpayable",
      "type": "function"
    },
    {
      "inputs": [
        {
          "internalType": "bytes32",
          "name": "role",
          "type": "bytes32"
        },
        {
          "internalType": "address",
          "name": "account",
          "type": "address"
        }
      ],
      "name": "revokeRole",
      "outputs": [],
      "stateMutability": "nonpayable",
      "type": "function"
    },
    {
      "inputs": [
        {
          "internalType": "uint256[]",
          "name": "fromChainIds",
          "type": "uint256[]"
        },
        {
          "internalType": "address[]",
          "name": "froms",
          "type": "address[]"
        },
        {
          "internalType": "bool[]",
          "name": "trusted",
          "type": "bool[]"
        }
      ],
      "name": "setTrustedRemotes",
      "outputs": [],
      "stateMutability": "nonpayable",
      "type": "function"
    },
    {
      "inputs": [
        {
          "internalType": "bytes4",
          "name": "interfaceId",
          "type": "bytes4"
        }
      ],
      "name": "supportsInterface",
      "outputs": [
        {
          "internalType": "bool",
          "name": "",
          "type": "bool"
        }
      ],
      "stateMutability": "view",
      "type": "function"
    },
    {
      "inputs": [],
      "name": "totalSupply",
      "outputs": [
        {
          "internalType": "uint256",
          "name": "",
          "type": "uint256"
        }
      ],
      "stateMutability": "view",
      "type": "function"
    },
    {
      "inputs": [
        {
          "internalType": "uint256",
          "name": "",
          "type": "uint256"
        },
        {
          "internalType": "address",
          "name": "",
          "type": "address"
        }
      ],
      "name": "trustedRemotes",
      "outputs": [
        {
          "internalType": "bool",
          "name": "",
          "type": "bool"
        }
      ],
      "stateMutability": "view",
      "type": "function"
    },
    {
      "inputs": [
        {
          "internalType": "uint256",
          "name": "amount",
          "type": "uint256"
        }
      ],
      "name": "withdrawCoins",
      "outputs": [],
      "stateMutability": "nonpayable",
      "type": "function"
    },
    {
      "inputs": [],
      "name": "wmbGateway",
      "outputs": [
        {
          "internalType": "address",
          "name": "",
          "type": "address"
        }
      ],
      "stateMutability": "view",
      "type": "function"
    },
    {
      "inputs": [
        {
          "internalType": "bytes",
          "name": "data",
          "type": "bytes"
        },
        {
          "internalType": "bytes32",
          "name": "messageId",
          "type": "bytes32"
        },
        {
          "internalType": "uint256",
          "name": "fromChainId",
          "type": "uint256"
        },
        {
          "internalType": "address",
          "name": "from",
          "type": "address"
        }
      ],
      "name": "wmbReceive",
      "outputs": [],
      "stateMutability": "nonpayable",
      "type": "function"
    }
  ],
  "bytecode": "0x60806040523480156200001157600080fd5b506040516200274838038062002748833981810160405281019062000037919062000448565b6200004982826200005160201b60201c565b50506200050d565b6000620000636200023f60201b60201c565b905060008160000160089054906101000a900460ff1615905060008260000160009054906101000a900467ffffffffffffffff1690506000808267ffffffffffffffff16148015620000b25750825b9050600060018367ffffffffffffffff16148015620000e8575060003073ffffffffffffffffffffffffffffffffffffffff163b145b905081158015620000f7575080155b156200012f576040517ff92ee8a900000000000000000000000000000000000000000000000000000000815260040160405180910390fd5b60018560000160006101000a81548167ffffffffffffffff021916908367ffffffffffffffff1602179055508315620001805760018560000160086101000a81548160ff0219169083151502179055505b620001956000801b886200026760201b60201c565b5085600460006101000a81548173ffffffffffffffffffffffffffffffffffffffff021916908373ffffffffffffffffffffffffffffffffffffffff1602179055508315620002365760008560000160086101000a81548160ff0219169083151502179055507fc7f505b2f371ae2175ee4913f4499e1f2633a7b5936321eed1cdaeb6115181d260016040516200022d9190620004f0565b60405180910390a15b50505050505050565b60007ff0c57e16840df040f15088dc2f81fe391c3923bec73e23a9662efc9c229c6a00905090565b60006200027b83836200036b60201b60201c565b620003605760016003600085815260200190815260200160002060000160008473ffffffffffffffffffffffffffffffffffffffff1673ffffffffffffffffffffffffffffffffffffffff16815260200190815260200160002060006101000a81548160ff021916908315150217905550620002fc620003d660201b60201c565b73ffffffffffffffffffffffffffffffffffffffff168273ffffffffffffffffffffffffffffffffffffffff16847f2f8788117e7eff1d82e926ec794901d17c78024a50270940304540a733656f0d60405160405180910390a46001905062000365565b600090505b92915050565b60006003600084815260200190815260200160002060000160008373ffffffffffffffffffffffffffffffffffffffff1673ffffffffffffffffffffffffffffffffffffffff16815260200190815260200160002060009054906101000a900460ff16905092915050565b600033905090565b600080fd5b600073ffffffffffffffffffffffffffffffffffffffff82169050919050565b60006200041082620003e3565b9050919050565b620004228162000403565b81146200042e57600080fd5b50565b600081519050620004428162000417565b92915050565b60008060408385031215620004625762000461620003de565b5b6000620004728582860162000431565b9250506020620004858582860162000431565b9150509250929050565b6000819050919050565b600067ffffffffffffffff82169050919050565b6000819050919050565b6000620004d8620004d2620004cc846200048f565b620004ad565b62000499565b9050919050565b620004ea81620004b7565b82525050565b6000602082019050620005076000830184620004df565b92915050565b61222b806200051d6000396000f3fe6080604052600436106100fd5760003560e01c8063485cc9551161009557806391d148541161006457806391d1485414610335578063a217fddf14610372578063d547741f1461039d578063e3d4683b146103c6578063f9f95a0f14610403576100fd565b8063485cc9551461028a5780635f4f9f14146102b357806370a08231146102cf5780637f34071d1461030c576100fd565b80632f2ff15d116100d15780632f2ff15d146101e45780633088a5f91461020d57806336568abe146102385780633a1a5b7614610261576100fd565b8062e1d8d01461010257806301ffc9a71461013f57806318160ddd1461017c578063248a9ca3146101a7575b600080fd5b34801561010e57600080fd5b5061012960048036038101906101249190611324565b61042c565b6040516101369190611373565b60405180910390f35b34801561014b57600080fd5b50610166600480360381019061016191906113e6565b6104d3565b604051610173919061142e565b60405180910390f35b34801561018857600080fd5b5061019161054d565b60405161019e9190611373565b60405180910390f35b3480156101b357600080fd5b506101ce60048036038101906101c9919061147f565b610553565b6040516101db91906114bb565b60405180910390f35b3480156101f057600080fd5b5061020b60048036038101906102069190611534565b610573565b005b34801561021957600080fd5b50610222610595565b60405161022f9190611583565b60405180910390f35b34801561024457600080fd5b5061025f600480360381019061025a9190611534565b6105bb565b005b34801561026d57600080fd5b5061028860048036038101906102839190611603565b610636565b005b34801561029657600080fd5b506102b160048036038101906102ac919061168b565b610777565b005b6102cd60048036038101906102c891906116cb565b61094d565b005b3480156102db57600080fd5b506102f660048036038101906102f19190611746565b61099b565b6040516103039190611373565b60405180910390f35b34801561031857600080fd5b50610333600480360381019061032e9190611875565b6109e4565b005b34801561034157600080fd5b5061035c60048036038101906103579190611534565b610b7c565b604051610369919061142e565b60405180910390f35b34801561037e57600080fd5b50610387610be7565b60405161039491906114bb565b60405180910390f35b3480156103a957600080fd5b506103c460048036038101906103bf9190611534565b610bee565b005b3480156103d257600080fd5b506103ed60048036038101906103e89190611929565b610c10565b6040516103fa919061142e565b60405180910390f35b34801561040f57600080fd5b5061042a60048036038101906104259190611969565b610c3f565b005b6000600460009054906101000a900473ffffffffffffffffffffffffffffffffffffffff1673ffffffffffffffffffffffffffffffffffffffff1662e1d8d084846040518363ffffffff1660e01b815260040161048a929190611996565b602060405180830381865afa1580156104a7573d6000803e3d6000fd5b505050506040513d601f19601f820116820180604052508101906104cb91906119d4565b905092915050565b60007f7965db0b000000000000000000000000000000000000000000000000000000007bffffffffffffffffffffffffffffffffffffffffffffffffffffffff1916827bffffffffffffffffffffffffffffffffffffffffffffffffffffffff19161480610546575061054582610db2565b5b9050919050565b60005481565b600060036000838152602001908152602001600020600101549050919050565b61057c82610553565b61058581610e1c565b61058f8383610e30565b50505050565b600460009054906101000a900473ffffffffffffffffffffffffffffffffffffffff1681565b6105c3610f22565b73ffffffffffffffffffffffffffffffffffffffff168173ffffffffffffffffffffffffffffffffffffffff1614610627576040517f6697b23200000000000000000000000000000000000000000000000000000000815260040160405180910390fd5b6106318282610f2a565b505050565b600460009054906101000a900473ffffffffffffffffffffffffffffffffffffffff1673ffffffffffffffffffffffffffffffffffffffff163373ffffffffffffffffffffffffffffffffffffffff16146106c6576040517f08c379a00000000000000000000000000000000000000000000000000000000081526004016106bd90611a84565b60405180910390fd5b6005600083815260200190815260200160002060008273ffffffffffffffffffffffffffffffffffffffff1673ffffffffffffffffffffffffffffffffffffffff16815260200190815260200160002060009054906101000a900460ff16610763576040517f08c379a000000000000000000000000000000000000000000000000000000000815260040161075a90611af0565b60405180910390fd5b610770858585858561101d565b5050505050565b6000610781611099565b905060008160000160089054906101000a900460ff1615905060008260000160009054906101000a900467ffffffffffffffff1690506000808267ffffffffffffffff161480156107cf5750825b9050600060018367ffffffffffffffff16148015610804575060003073ffffffffffffffffffffffffffffffffffffffff163b145b905081158015610812575080155b15610849576040517ff92ee8a900000000000000000000000000000000000000000000000000000000815260040160405180910390fd5b60018560000160006101000a81548167ffffffffffffffff021916908367ffffffffffffffff16021790555083156108995760018560000160086101000a81548160ff0219169083151502179055505b6108a66000801b88610e30565b5085600460006101000a81548173ffffffffffffffffffffffffffffffffffffffff021916908373ffffffffffffffffffffffffffffffffffffffff16021790555083156109445760008560000160086101000a81548160ff0219169083151502179055507fc7f505b2f371ae2175ee4913f4499e1f2633a7b5936321eed1cdaeb6115181d2600160405161093b9190611b69565b60405180910390a15b50505050505050565b61095733836110c1565b6000610963868361042c565b90506109928686868660405160200161097d929190611b84565b604051602081830303815290604052846111da565b50505050505050565b6000600160008373ffffffffffffffffffffffffffffffffffffffff1673ffffffffffffffffffffffffffffffffffffffff168152602001908152602001600020549050919050565b6109f16000801b33610b7c565b610a30576040517f08c379a0000000000000000000000000000000000000000000000000000000008152600401610a2790611c1f565b60405180910390fd5b8383905086869050148015610a4a57508181905084849050145b610a89576040517f08c379a0000000000000000000000000000000000000000000000000000000008152600401610a8090611c8b565b60405180910390fd5b60005b86869050811015610b7357828282818110610aaa57610aa9611cab565b5b9050602002016020810190610abf9190611d06565b60056000898985818110610ad657610ad5611cab565b5b9050602002013581526020019081526020016000206000878785818110610b0057610aff611cab565b5b9050602002016020810190610b159190611746565b73ffffffffffffffffffffffffffffffffffffffff1673ffffffffffffffffffffffffffffffffffffffff16815260200190815260200160002060006101000a81548160ff0219169083151502179055508080600101915050610a8c565b50505050505050565b60006003600084815260200190815260200160002060000160008373ffffffffffffffffffffffffffffffffffffffff1673ffffffffffffffffffffffffffffffffffffffff16815260200190815260200160002060009054906101000a900460ff16905092915050565b6000801b81565b610bf782610553565b610c0081610e1c565b610c0a8383610f2a565b50505050565b60056020528160005260406000206020528060005260406000206000915091509054906101000a900460ff1681565b80600160003373ffffffffffffffffffffffffffffffffffffffff1673ffffffffffffffffffffffffffffffffffffffff168152602001908152602001600020541015610cc1576040517f08c379a0000000000000000000000000000000000000000000000000000000008152600401610cb890611d7f565b60405180910390fd5b80600160003373ffffffffffffffffffffffffffffffffffffffff1673ffffffffffffffffffffffffffffffffffffffff1681526020019081526020016000206000828254610d109190611dce565b925050819055503373ffffffffffffffffffffffffffffffffffffffff166108fc829081150290604051600060405180830381858888f19350505050158015610d5d573d6000803e3d6000fd5b5080600080828254610d6f9190611dce565b925050819055507ffad10879470dbb69d36fd4817063d4d24960b3f59d7ebd6192dbc627e4bc13743382604051610da7929190611b84565b60405180910390a150565b60007f01ffc9a7000000000000000000000000000000000000000000000000000000007bffffffffffffffffffffffffffffffffffffffffffffffffffffffff1916827bffffffffffffffffffffffffffffffffffffffffffffffffffffffff1916149050919050565b610e2d81610e28610f22565b611289565b50565b6000610e3c8383610b7c565b610f175760016003600085815260200190815260200160002060000160008473ffffffffffffffffffffffffffffffffffffffff1673ffffffffffffffffffffffffffffffffffffffff16815260200190815260200160002060006101000a81548160ff021916908315150217905550610eb4610f22565b73ffffffffffffffffffffffffffffffffffffffff168273ffffffffffffffffffffffffffffffffffffffff16847f2f8788117e7eff1d82e926ec794901d17c78024a50270940304540a733656f0d60405160405180910390a460019050610f1c565b600090505b92915050565b600033905090565b6000610f368383610b7c565b156110125760006003600085815260200190815260200160002060000160008473ffffffffffffffffffffffffffffffffffffffff1673ffffffffffffffffffffffffffffffffffffffff16815260200190815260200160002060006101000a81548160ff021916908315150217905550610faf610f22565b73ffffffffffffffffffffffffffffffffffffffff168273ffffffffffffffffffffffffffffffffffffffff16847ff6391f5c32d9c69d2a47ea670b442974b53935d1edc7fd64eb21e047a839171b60405160405180910390a460019050611017565b600090505b92915050565b600080868681019061102f9190611f81565b50925092505061103e81610c3f565b8173ffffffffffffffffffffffffffffffffffffffff1684867fe54144d90f48a9826fdec75d150b5bfc91c0752524eb604a5ffba496b6dd0aab8487604051611088929190612004565b60405180910390a450505050505050565b60007ff0c57e16840df040f15088dc2f81fe391c3923bec73e23a9662efc9c229c6a00905090565b8173ffffffffffffffffffffffffffffffffffffffff163373ffffffffffffffffffffffffffffffffffffffff161461112f576040517f08c379a000000000000000000000000000000000000000000000000000000000815260040161112690612079565b60405180910390fd5b80600160003373ffffffffffffffffffffffffffffffffffffffff1673ffffffffffffffffffffffffffffffffffffffff168152602001908152602001600020600082825461117e9190612099565b92505081905550806000808282546111969190612099565b925050819055507f252449aa0b7de4aef34faa5608272066c34f2cea678fa4ee8850380955ef09b633826040516111ce929190611b84565b60405180910390a15050565b6000600460009054906101000a900473ffffffffffffffffffffffffffffffffffffffff1673ffffffffffffffffffffffffffffffffffffffff1663fe39827b838787876040518563ffffffff1660e01b815260040161123c9392919061214c565b60206040518083038185885af115801561125a573d6000803e3d6000fd5b50505050506040513d601f19601f8201168201806040525081019061127f919061219f565b9050949350505050565b6112938282610b7c565b6112d65780826040517fe2517d3f0000000000000000000000000000000000000000000000000000000081526004016112cd9291906121cc565b60405180910390fd5b5050565b6000604051905090565b600080fd5b600080fd5b6000819050919050565b611301816112ee565b811461130c57600080fd5b50565b60008135905061131e816112f8565b92915050565b6000806040838503121561133b5761133a6112e4565b5b60006113498582860161130f565b925050602061135a8582860161130f565b9150509250929050565b61136d816112ee565b82525050565b60006020820190506113886000830184611364565b92915050565b60007fffffffff0000000000000000000000000000000000000000000000000000000082169050919050565b6113c38161138e565b81146113ce57600080fd5b50565b6000813590506113e0816113ba565b92915050565b6000602082840312156113fc576113fb6112e4565b5b600061140a848285016113d1565b91505092915050565b60008115159050919050565b61142881611413565b82525050565b6000602082019050611443600083018461141f565b92915050565b6000819050919050565b61145c81611449565b811461146757600080fd5b50565b60008135905061147981611453565b92915050565b600060208284031215611495576114946112e4565b5b60006114a38482850161146a565b91505092915050565b6114b581611449565b82525050565b60006020820190506114d060008301846114ac565b92915050565b600073ffffffffffffffffffffffffffffffffffffffff82169050919050565b6000611501826114d6565b9050919050565b611511816114f6565b811461151c57600080fd5b50565b60008135905061152e81611508565b92915050565b6000806040838503121561154b5761154a6112e4565b5b60006115598582860161146a565b925050602061156a8582860161151f565b9150509250929050565b61157d816114f6565b82525050565b60006020820190506115986000830184611574565b92915050565b600080fd5b600080fd5b600080fd5b60008083601f8401126115c3576115c261159e565b5b8235905067ffffffffffffffff8111156115e0576115df6115a3565b5b6020830191508360018202830111156115fc576115fb6115a8565b5b9250929050565b60008060008060006080868803121561161f5761161e6112e4565b5b600086013567ffffffffffffffff81111561163d5761163c6112e9565b5b611649888289016115ad565b9550955050602061165c8882890161146a565b935050604061166d8882890161130f565b925050606061167e8882890161151f565b9150509295509295909350565b600080604083850312156116a2576116a16112e4565b5b60006116b08582860161151f565b92505060206116c18582860161151f565b9150509250929050565b600080600080600060a086880312156116e7576116e66112e4565b5b60006116f58882890161130f565b95505060206117068882890161151f565b94505060406117178882890161151f565b93505060606117288882890161130f565b92505060806117398882890161130f565b9150509295509295909350565b60006020828403121561175c5761175b6112e4565b5b600061176a8482850161151f565b91505092915050565b60008083601f8401126117895761178861159e565b5b8235905067ffffffffffffffff8111156117a6576117a56115a3565b5b6020830191508360208202830111156117c2576117c16115a8565b5b9250929050565b60008083601f8401126117df576117de61159e565b5b8235905067ffffffffffffffff8111156117fc576117fb6115a3565b5b602083019150836020820283011115611818576118176115a8565b5b9250929050565b60008083601f8401126118355761183461159e565b5b8235905067ffffffffffffffff811115611852576118516115a3565b5b60208301915083602082028301111561186e5761186d6115a8565b5b9250929050565b60008060008060008060608789031215611892576118916112e4565b5b600087013567ffffffffffffffff8111156118b0576118af6112e9565b5b6118bc89828a01611773565b9650965050602087013567ffffffffffffffff8111156118df576118de6112e9565b5b6118eb89828a016117c9565b9450945050604087013567ffffffffffffffff81111561190e5761190d6112e9565b5b61191a89828a0161181f565b92509250509295509295509295565b600080604083850312156119405761193f6112e4565b5b600061194e8582860161130f565b925050602061195f8582860161151f565b9150509250929050565b60006020828403121561197f5761197e6112e4565b5b600061198d8482850161130f565b91505092915050565b60006040820190506119ab6000830185611364565b6119b86020830184611364565b9392505050565b6000815190506119ce816112f8565b92915050565b6000602082840312156119ea576119e96112e4565b5b60006119f8848285016119bf565b91505092915050565b600082825260208201905092915050565b7f576d624170703a204f6e6c7920574d4220676174657761792063616e2063616c60008201527f6c20746869732066756e6374696f6e0000000000000000000000000000000000602082015250565b6000611a6e602f83611a01565b9150611a7982611a12565b604082019050919050565b60006020820190508181036000830152611a9d81611a61565b9050919050565b7f576d624170703a2052656d6f7465206973206e6f742074727573746564000000600082015250565b6000611ada601d83611a01565b9150611ae582611aa4565b602082019050919050565b60006020820190508181036000830152611b0981611acd565b9050919050565b6000819050919050565b600067ffffffffffffffff82169050919050565b6000819050919050565b6000611b53611b4e611b4984611b10565b611b2e565b611b1a565b9050919050565b611b6381611b38565b82525050565b6000602082019050611b7e6000830184611b5a565b92915050565b6000604082019050611b996000830185611574565b611ba66020830184611364565b9392505050565b7f576d624170703a206d75737420686176652061646d696e20726f6c6520746f2060008201527f73657420747275737465642072656d6f74657300000000000000000000000000602082015250565b6000611c09603383611a01565b9150611c1482611bad565b604082019050919050565b60006020820190508181036000830152611c3881611bfc565b9050919050565b7f576d624170703a20696e76616c696420696e7075740000000000000000000000600082015250565b6000611c75601583611a01565b9150611c8082611c3f565b602082019050919050565b60006020820190508181036000830152611ca481611c68565b9050919050565b7f4e487b7100000000000000000000000000000000000000000000000000000000600052603260045260246000fd5b611ce381611413565b8114611cee57600080fd5b50565b600081359050611d0081611cda565b92915050565b600060208284031215611d1c57611d1b6112e4565b5b6000611d2a84828501611cf1565b91505092915050565b7f496e73756666696369656e742062616c616e6365000000000000000000000000600082015250565b6000611d69601483611a01565b9150611d7482611d33565b602082019050919050565b60006020820190508181036000830152611d9881611d5c565b9050919050565b7f4e487b7100000000000000000000000000000000000000000000000000000000600052601160045260246000fd5b6000611dd9826112ee565b9150611de4836112ee565b9250828203905081811115611dfc57611dfb611d9f565b5b92915050565b6000611e0d826114d6565b9050919050565b611e1d81611e02565b8114611e2857600080fd5b50565b600081359050611e3a81611e14565b92915050565b600080fd5b6000601f19601f8301169050919050565b7f4e487b7100000000000000000000000000000000000000000000000000000000600052604160045260246000fd5b611e8e82611e45565b810181811067ffffffffffffffff82111715611ead57611eac611e56565b5b80604052505050565b6000611ec06112da565b9050611ecc8282611e85565b919050565b600067ffffffffffffffff821115611eec57611eeb611e56565b5b611ef582611e45565b9050602081019050919050565b82818337600083830152505050565b6000611f24611f1f84611ed1565b611eb6565b905082815260208101848484011115611f4057611f3f611e40565b5b611f4b848285611f02565b509392505050565b600082601f830112611f6857611f6761159e565b5b8135611f78848260208601611f11565b91505092915050565b60008060008060808587031215611f9b57611f9a6112e4565b5b6000611fa987828801611e2b565b9450506020611fba87828801611e2b565b9350506040611fcb8782880161130f565b925050606085013567ffffffffffffffff811115611fec57611feb6112e9565b5b611ff887828801611f53565b91505092959194509250565b60006040820190506120196000830185611364565b6120266020830184611574565b9392505050565b7f4f6e6c79206f776e65722063616e204c6f636b20436f696e7300000000000000600082015250565b6000612063601983611a01565b915061206e8261202d565b602082019050919050565b6000602082019050818103600083015261209281612056565b9050919050565b60006120a4826112ee565b91506120af836112ee565b92508282019050808211156120c7576120c6611d9f565b5b92915050565b600081519050919050565b600082825260208201905092915050565b60005b838110156121075780820151818401526020810190506120ec565b60008484015250505050565b600061211e826120cd565b61212881856120d8565b93506121388185602086016120e9565b61214181611e45565b840191505092915050565b60006060820190506121616000830186611364565b61216e6020830185611574565b81810360408301526121808184612113565b9050949350505050565b60008151905061219981611453565b92915050565b6000602082840312156121b5576121b46112e4565b5b60006121c38482850161218a565b91505092915050565b60006040820190506121e16000830185611574565b6121ee60208301846114ac565b939250505056fea264697066735822122028a99455e9c8ea4e1c7207b485508f6e3455edcabd45bb1d8a939b9c0f5c0edf64736f6c63430008160033",
  "linkReferences": {},
  "deployedLinkReferences": {}
}