{
  "_format": "hh-sol-artifact-1",
  "contractName": "lockContract",
  "sourceName": "contracts/deployed/lockContract.sol",
  "abi": [
    {
      "inputs": [
        {
          "internalType": "address",
          "name": "_admin",
          "type": "address"
        },
        {
          "internalType": "address",
          "name": "_wmbGateway",
          "type": "address"
        }
      ],
      "stateMutability": "nonpayable",
      "type": "constructor"
    },
    {
      "inputs": [],
      "name": "AccessControlBadConfirmation",
      "type": "error"
    },
    {
      "inputs": [
        {
          "internalType": "address",
          "name": "account",
          "type": "address"
        },
        {
          "internalType": "bytes32",
          "name": "neededRole",
          "type": "bytes32"
        }
      ],
      "name": "AccessControlUnauthorizedAccount",
      "type": "error"
    },
    {
      "inputs": [],
      "name": "InvalidInitialization",
      "type": "error"
    },
    {
      "inputs": [],
      "name": "NotInitializing",
      "type": "error"
    },
    {
      "anonymous": false,
      "inputs": [
        {
          "indexed": true,
          "internalType": "bytes32",
          "name": "messageId",
          "type": "bytes32"
        },
        {
          "indexed": true,
          "internalType": "uint256",
          "name": "fromChainId",
          "type": "uint256"
        },
        {
          "indexed": true,
          "internalType": "address",
          "name": "to",
          "type": "address"
        },
        {
          "indexed": false,
          "internalType": "uint256",
          "name": "amount",
          "type": "uint256"
        },
        {
          "indexed": false,
          "internalType": "address",
          "name": "fromSC",
          "type": "address"
        }
      ],
      "name": "CrossChainMint",
      "type": "event"
    },
    {
      "anonymous": false,
      "inputs": [
        {
          "indexed": false,
          "internalType": "uint64",
          "name": "version",
          "type": "uint64"
        }
      ],
      "name": "Initialized",
      "type": "event"
    },
    {
      "anonymous": false,
      "inputs": [
        {
          "indexed": true,
          "internalType": "bytes32",
          "name": "role",
          "type": "bytes32"
        },
        {
          "indexed": true,
          "internalType": "bytes32",
          "name": "previousAdminRole",
          "type": "bytes32"
        },
        {
          "indexed": true,
          "internalType": "bytes32",
          "name": "newAdminRole",
          "type": "bytes32"
        }
      ],
      "name": "RoleAdminChanged",
      "type": "event"
    },
    {
      "anonymous": false,
      "inputs": [
        {
          "indexed": true,
          "internalType": "bytes32",
          "name": "role",
          "type": "bytes32"
        },
        {
          "indexed": true,
          "internalType": "address",
          "name": "account",
          "type": "address"
        },
        {
          "indexed": true,
          "internalType": "address",
          "name": "sender",
          "type": "address"
        }
      ],
      "name": "RoleGranted",
      "type": "event"
    },
    {
      "anonymous": false,
      "inputs": [
        {
          "indexed": true,
          "internalType": "bytes32",
          "name": "role",
          "type": "bytes32"
        },
        {
          "indexed": true,
          "internalType": "address",
          "name": "account",
          "type": "address"
        },
        {
          "indexed": true,
          "internalType": "address",
          "name": "sender",
          "type": "address"
        }
      ],
      "name": "RoleRevoked",
      "type": "event"
    },
    {
      "anonymous": false,
      "inputs": [
        {
          "indexed": false,
          "internalType": "address",
          "name": "user",
          "type": "address"
        },
        {
          "indexed": false,
          "internalType": "uint256",
          "name": "amount",
          "type": "uint256"
        }
      ],
      "name": "coinsLocked",
      "type": "event"
    },
    {
      "anonymous": false,
      "inputs": [
        {
          "indexed": false,
          "internalType": "address",
          "name": "user",
          "type": "address"
        },
        {
          "indexed": false,
          "internalType": "uint256",
          "name": "amount",
          "type": "uint256"
        }
      ],
      "name": "coinsReleased",
      "type": "event"
    },
    {
      "inputs": [],
      "name": "DEFAULT_ADMIN_ROLE",
      "outputs": [
        {
          "internalType": "bytes32",
          "name": "",
          "type": "bytes32"
        }
      ],
      "stateMutability": "view",
      "type": "function"
    },
    {
      "inputs": [
        {
          "internalType": "address",
          "name": "user",
          "type": "address"
        }
      ],
      "name": "balanceOf",
      "outputs": [
        {
          "internalType": "uint256",
          "name": "",
          "type": "uint256"
        }
      ],
      "stateMutability": "view",
      "type": "function"
    },
    {
      "inputs": [
        {
          "internalType": "uint256",
          "name": "toChainId",
          "type": "uint256"
        },
        {
          "internalType": "address",
          "name": "toSC",
          "type": "address"
        },
        {
          "internalType": "address",
          "name": "toUser",
          "type": "address"
        },
        {
          "internalType": "uint256",
          "name": "amount",
          "type": "uint256"
        },
        {
          "internalType": "uint256",
          "name": "gasLimit",
          "type": "uint256"
        }
      ],
      "name": "crossTo",
      "outputs": [],
      "stateMutability": "payable",
      "type": "function"
    },
    {
      "inputs": [
        {
          "internalType": "uint256",
          "name": "toChain",
          "type": "uint256"
        },
        {
          "internalType": "uint256",
          "name": "gasLimit",
          "type": "uint256"
        }
      ],
      "name": "estimateFee",
      "outputs": [
        {
          "internalType": "uint256",
          "name": "",
          "type": "uint256"
        }
      ],
      "stateMutability": "view",
      "type": "function"
    },
    {
      "inputs": [
        {
          "internalType": "bytes32",
          "name": "role",
          "type": "bytes32"
        }
      ],
      "name": "getRoleAdmin",
      "outputs": [
        {
          "internalType": "bytes32",
          "name": "",
          "type": "bytes32"
        }
      ],
      "stateMutability": "view",
      "type": "function"
    },
    {
      "inputs": [
        {
          "internalType": "bytes32",
          "name": "role",
          "type": "bytes32"
        },
        {
          "internalType": "address",
          "name": "account",
          "type": "address"
        }
      ],
      "name": "grantRole",
      "outputs": [],
      "stateMutability": "nonpayable",
      "type": "function"
    },
    {
      "inputs": [
        {
          "internalType": "bytes32",
          "name": "role",
          "type": "bytes32"
        },
        {
          "internalType": "address",
          "name": "account",
          "type": "address"
        }
      ],
      "name": "hasRole",
      "outputs": [
        {
          "internalType": "bool",
          "name": "",
          "type": "bool"
        }
      ],
      "stateMutability": "view",
      "type": "function"
    },
    {
      "inputs": [
        {
          "internalType": "address",
          "name": "admin",
          "type": "address"
        },
        {
          "internalType": "address",
          "name": "_wmbGateway",
          "type": "address"
        }
      ],
      "name": "initialize",
      "outputs": [],
      "stateMutability": "nonpayable",
      "type": "function"
    },
    {
      "inputs": [],
      "name": "lockCoin",
      "outputs": [],
      "stateMutability": "payable",
      "type": "function"
    },
    {
      "inputs": [
        {
          "internalType": "bytes32",
          "name": "role",
          "type": "bytes32"
        },
        {
          "internalType": "address",
          "name": "callerConfirmation",
          "type": "address"
        }
      ],
      "name": "renounceRole",
      "outputs": [],
      "stateMutability": "nonpayable",
      "type": "function"
    },
    {
      "inputs": [
        {
          "internalType": "bytes32",
          "name": "role",
          "type": "bytes32"
        },
        {
          "internalType": "address",
          "name": "account",
          "type": "address"
        }
      ],
      "name": "revokeRole",
      "outputs": [],
      "stateMutability": "nonpayable",
      "type": "function"
    },
    {
      "inputs": [
        {
          "internalType": "uint256[]",
          "name": "fromChainIds",
          "type": "uint256[]"
        },
        {
          "internalType": "address[]",
          "name": "froms",
          "type": "address[]"
        },
        {
          "internalType": "bool[]",
          "name": "trusted",
          "type": "bool[]"
        }
      ],
      "name": "setTrustedRemotes",
      "outputs": [],
      "stateMutability": "nonpayable",
      "type": "function"
    },
    {
      "inputs": [
        {
          "internalType": "bytes4",
          "name": "interfaceId",
          "type": "bytes4"
        }
      ],
      "name": "supportsInterface",
      "outputs": [
        {
          "internalType": "bool",
          "name": "",
          "type": "bool"
        }
      ],
      "stateMutability": "view",
      "type": "function"
    },
    {
      "inputs": [],
      "name": "totalSupply",
      "outputs": [
        {
          "internalType": "uint256",
          "name": "",
          "type": "uint256"
        }
      ],
      "stateMutability": "view",
      "type": "function"
    },
    {
      "inputs": [
        {
          "internalType": "uint256",
          "name": "",
          "type": "uint256"
        },
        {
          "internalType": "address",
          "name": "",
          "type": "address"
        }
      ],
      "name": "trustedRemotes",
      "outputs": [
        {
          "internalType": "bool",
          "name": "",
          "type": "bool"
        }
      ],
      "stateMutability": "view",
      "type": "function"
    },
    {
      "inputs": [
        {
          "internalType": "uint256",
          "name": "amount",
          "type": "uint256"
        }
      ],
      "name": "withdrawCoins",
      "outputs": [],
      "stateMutability": "nonpayable",
      "type": "function"
    },
    {
      "inputs": [],
      "name": "wmbGateway",
      "outputs": [
        {
          "internalType": "address",
          "name": "",
          "type": "address"
        }
      ],
      "stateMutability": "view",
      "type": "function"
    },
    {
      "inputs": [
        {
          "internalType": "bytes",
          "name": "data",
          "type": "bytes"
        },
        {
          "internalType": "bytes32",
          "name": "messageId",
          "type": "bytes32"
        },
        {
          "internalType": "uint256",
          "name": "fromChainId",
          "type": "uint256"
        },
        {
          "internalType": "address",
          "name": "from",
          "type": "address"
        }
      ],
      "name": "wmbReceive",
      "outputs": [],
      "stateMutability": "nonpayable",
      "type": "function"
    }
  ],
  "bytecode": "0x60806040523480156200001157600080fd5b506040516200267f3803806200267f833981810160405281019062000037919062000448565b6200004982826200005160201b60201c565b50506200050d565b6000620000636200023f60201b60201c565b905060008160000160089054906101000a900460ff1615905060008260000160009054906101000a900467ffffffffffffffff1690506000808267ffffffffffffffff16148015620000b25750825b9050600060018367ffffffffffffffff16148015620000e8575060003073ffffffffffffffffffffffffffffffffffffffff163b145b905081158015620000f7575080155b156200012f576040517ff92ee8a900000000000000000000000000000000000000000000000000000000815260040160405180910390fd5b60018560000160006101000a81548167ffffffffffffffff021916908367ffffffffffffffff1602179055508315620001805760018560000160086101000a81548160ff0219169083151502179055505b620001956000801b886200026760201b60201c565b5085600460006101000a81548173ffffffffffffffffffffffffffffffffffffffff021916908373ffffffffffffffffffffffffffffffffffffffff1602179055508315620002365760008560000160086101000a81548160ff0219169083151502179055507fc7f505b2f371ae2175ee4913f4499e1f2633a7b5936321eed1cdaeb6115181d260016040516200022d9190620004f0565b60405180910390a15b50505050505050565b60007ff0c57e16840df040f15088dc2f81fe391c3923bec73e23a9662efc9c229c6a00905090565b60006200027b83836200036b60201b60201c565b620003605760016003600085815260200190815260200160002060000160008473ffffffffffffffffffffffffffffffffffffffff1673ffffffffffffffffffffffffffffffffffffffff16815260200190815260200160002060006101000a81548160ff021916908315150217905550620002fc620003d660201b60201c565b73ffffffffffffffffffffffffffffffffffffffff168273ffffffffffffffffffffffffffffffffffffffff16847f2f8788117e7eff1d82e926ec794901d17c78024a50270940304540a733656f0d60405160405180910390a46001905062000365565b600090505b92915050565b60006003600084815260200190815260200160002060000160008373ffffffffffffffffffffffffffffffffffffffff1673ffffffffffffffffffffffffffffffffffffffff16815260200190815260200160002060009054906101000a900460ff16905092915050565b600033905090565b600080fd5b600073ffffffffffffffffffffffffffffffffffffffff82169050919050565b60006200041082620003e3565b9050919050565b620004228162000403565b81146200042e57600080fd5b50565b600081519050620004428162000417565b92915050565b60008060408385031215620004625762000461620003de565b5b6000620004728582860162000431565b9250506020620004858582860162000431565b9150509250929050565b6000819050919050565b600067ffffffffffffffff82169050919050565b6000819050919050565b6000620004d8620004d2620004cc846200048f565b620004ad565b62000499565b9050919050565b620004ea81620004b7565b82525050565b6000602082019050620005076000830184620004df565b92915050565b612162806200051d6000396000f3fe6080604052600436106101085760003560e01c80635f4f9f141161009557806391d148541161006457806391d148541461034a578063a217fddf14610387578063d547741f146103b2578063e3d4683b146103db578063f9f95a0f1461041857610108565b80635f4f9f14146102be57806370a08231146102da5780637821d205146103175780637f34071d1461032157610108565b80632f2ff15d116100dc5780632f2ff15d146101ef5780633088a5f91461021857806336568abe146102435780633a1a5b761461026c578063485cc9551461029557610108565b8062e1d8d01461010d57806301ffc9a71461014a57806318160ddd14610187578063248a9ca3146101b2575b600080fd5b34801561011957600080fd5b50610134600480360381019061012f91906112c7565b610441565b6040516101419190611316565b60405180910390f35b34801561015657600080fd5b50610171600480360381019061016c9190611389565b6104e8565b60405161017e91906113d1565b60405180910390f35b34801561019357600080fd5b5061019c610562565b6040516101a99190611316565b60405180910390f35b3480156101be57600080fd5b506101d960048036038101906101d49190611422565b610568565b6040516101e6919061145e565b60405180910390f35b3480156101fb57600080fd5b50610216600480360381019061021191906114d7565b610588565b005b34801561022457600080fd5b5061022d6105aa565b60405161023a9190611526565b60405180910390f35b34801561024f57600080fd5b5061026a600480360381019061026591906114d7565b6105d0565b005b34801561027857600080fd5b50610293600480360381019061028e91906115a6565b61064b565b005b3480156102a157600080fd5b506102bc60048036038101906102b7919061162e565b61078c565b005b6102d860048036038101906102d3919061166e565b610962565b005b3480156102e657600080fd5b5061030160048036038101906102fc91906116e9565b6109ae565b60405161030e9190611316565b60405180910390f35b61031f6109f7565b005b34801561032d57600080fd5b5061034860048036038101906103439190611818565b610aa0565b005b34801561035657600080fd5b50610371600480360381019061036c91906114d7565b610c38565b60405161037e91906113d1565b60405180910390f35b34801561039357600080fd5b5061039c610ca3565b6040516103a9919061145e565b60405180910390f35b3480156103be57600080fd5b506103d960048036038101906103d491906114d7565b610caa565b005b3480156103e757600080fd5b5061040260048036038101906103fd91906118cc565b610ccc565b60405161040f91906113d1565b60405180910390f35b34801561042457600080fd5b5061043f600480360381019061043a919061190c565b610cfb565b005b6000600460009054906101000a900473ffffffffffffffffffffffffffffffffffffffff1673ffffffffffffffffffffffffffffffffffffffff1662e1d8d084846040518363ffffffff1660e01b815260040161049f929190611939565b602060405180830381865afa1580156104bc573d6000803e3d6000fd5b505050506040513d601f19601f820116820180604052508101906104e09190611977565b905092915050565b60007f7965db0b000000000000000000000000000000000000000000000000000000007bffffffffffffffffffffffffffffffffffffffffffffffffffffffff1916827bffffffffffffffffffffffffffffffffffffffffffffffffffffffff1916148061055b575061055a82610e6e565b5b9050919050565b60005481565b600060036000838152602001908152602001600020600101549050919050565b61059182610568565b61059a81610ed8565b6105a48383610eec565b50505050565b600460009054906101000a900473ffffffffffffffffffffffffffffffffffffffff1681565b6105d8610fde565b73ffffffffffffffffffffffffffffffffffffffff168173ffffffffffffffffffffffffffffffffffffffff161461063c576040517f6697b23200000000000000000000000000000000000000000000000000000000815260040160405180910390fd5b6106468282610fe6565b505050565b600460009054906101000a900473ffffffffffffffffffffffffffffffffffffffff1673ffffffffffffffffffffffffffffffffffffffff163373ffffffffffffffffffffffffffffffffffffffff16146106db576040517f08c379a00000000000000000000000000000000000000000000000000000000081526004016106d290611a27565b60405180910390fd5b6005600083815260200190815260200160002060008273ffffffffffffffffffffffffffffffffffffffff1673ffffffffffffffffffffffffffffffffffffffff16815260200190815260200160002060009054906101000a900460ff16610778576040517f08c379a000000000000000000000000000000000000000000000000000000000815260040161076f90611a93565b60405180910390fd5b61078585858585856110d9565b5050505050565b6000610796611155565b905060008160000160089054906101000a900460ff1615905060008260000160009054906101000a900467ffffffffffffffff1690506000808267ffffffffffffffff161480156107e45750825b9050600060018367ffffffffffffffff16148015610819575060003073ffffffffffffffffffffffffffffffffffffffff163b145b905081158015610827575080155b1561085e576040517ff92ee8a900000000000000000000000000000000000000000000000000000000815260040160405180910390fd5b60018560000160006101000a81548167ffffffffffffffff021916908367ffffffffffffffff16021790555083156108ae5760018560000160086101000a81548160ff0219169083151502179055505b6108bb6000801b88610eec565b5085600460006101000a81548173ffffffffffffffffffffffffffffffffffffffff021916908373ffffffffffffffffffffffffffffffffffffffff16021790555083156109595760008560000160086101000a81548160ff0219169083151502179055507fc7f505b2f371ae2175ee4913f4499e1f2633a7b5936321eed1cdaeb6115181d260016040516109509190611b0c565b60405180910390a15b50505050505050565b61096a6109f7565b60006109768683610441565b90506109a586868686604051602001610990929190611b27565b6040516020818303038152906040528461117d565b50505050505050565b6000600160008373ffffffffffffffffffffffffffffffffffffffff1673ffffffffffffffffffffffffffffffffffffffff168152602001908152602001600020549050919050565b34600160003373ffffffffffffffffffffffffffffffffffffffff1673ffffffffffffffffffffffffffffffffffffffff1681526020019081526020016000206000828254610a469190611b7f565b9250508190555034600080828254610a5e9190611b7f565b925050819055507f252449aa0b7de4aef34faa5608272066c34f2cea678fa4ee8850380955ef09b63334604051610a96929190611b27565b60405180910390a1565b610aad6000801b33610c38565b610aec576040517f08c379a0000000000000000000000000000000000000000000000000000000008152600401610ae390611c25565b60405180910390fd5b8383905086869050148015610b0657508181905084849050145b610b45576040517f08c379a0000000000000000000000000000000000000000000000000000000008152600401610b3c90611c91565b60405180910390fd5b60005b86869050811015610c2f57828282818110610b6657610b65611cb1565b5b9050602002016020810190610b7b9190611d0c565b60056000898985818110610b9257610b91611cb1565b5b9050602002013581526020019081526020016000206000878785818110610bbc57610bbb611cb1565b5b9050602002016020810190610bd191906116e9565b73ffffffffffffffffffffffffffffffffffffffff1673ffffffffffffffffffffffffffffffffffffffff16815260200190815260200160002060006101000a81548160ff0219169083151502179055508080600101915050610b48565b50505050505050565b60006003600084815260200190815260200160002060000160008373ffffffffffffffffffffffffffffffffffffffff1673ffffffffffffffffffffffffffffffffffffffff16815260200190815260200160002060009054906101000a900460ff16905092915050565b6000801b81565b610cb382610568565b610cbc81610ed8565b610cc68383610fe6565b50505050565b60056020528160005260406000206020528060005260406000206000915091509054906101000a900460ff1681565b80600160003373ffffffffffffffffffffffffffffffffffffffff1673ffffffffffffffffffffffffffffffffffffffff168152602001908152602001600020541015610d7d576040517f08c379a0000000000000000000000000000000000000000000000000000000008152600401610d7490611d85565b60405180910390fd5b80600160003373ffffffffffffffffffffffffffffffffffffffff1673ffffffffffffffffffffffffffffffffffffffff1681526020019081526020016000206000828254610dcc9190611da5565b925050819055503373ffffffffffffffffffffffffffffffffffffffff166108fc829081150290604051600060405180830381858888f19350505050158015610e19573d6000803e3d6000fd5b5080600080828254610e2b9190611da5565b925050819055507ffad10879470dbb69d36fd4817063d4d24960b3f59d7ebd6192dbc627e4bc13743382604051610e63929190611b27565b60405180910390a150565b60007f01ffc9a7000000000000000000000000000000000000000000000000000000007bffffffffffffffffffffffffffffffffffffffffffffffffffffffff1916827bffffffffffffffffffffffffffffffffffffffffffffffffffffffff1916149050919050565b610ee981610ee4610fde565b61122c565b50565b6000610ef88383610c38565b610fd35760016003600085815260200190815260200160002060000160008473ffffffffffffffffffffffffffffffffffffffff1673ffffffffffffffffffffffffffffffffffffffff16815260200190815260200160002060006101000a81548160ff021916908315150217905550610f70610fde565b73ffffffffffffffffffffffffffffffffffffffff168273ffffffffffffffffffffffffffffffffffffffff16847f2f8788117e7eff1d82e926ec794901d17c78024a50270940304540a733656f0d60405160405180910390a460019050610fd8565b600090505b92915050565b600033905090565b6000610ff28383610c38565b156110ce5760006003600085815260200190815260200160002060000160008473ffffffffffffffffffffffffffffffffffffffff1673ffffffffffffffffffffffffffffffffffffffff16815260200190815260200160002060006101000a81548160ff02191690831515021790555061106b610fde565b73ffffffffffffffffffffffffffffffffffffffff168273ffffffffffffffffffffffffffffffffffffffff16847ff6391f5c32d9c69d2a47ea670b442974b53935d1edc7fd64eb21e047a839171b60405160405180910390a4600190506110d3565b600090505b92915050565b60008086868101906110eb9190611f58565b5092509250506110fa81610cfb565b8173ffffffffffffffffffffffffffffffffffffffff1684867fe54144d90f48a9826fdec75d150b5bfc91c0752524eb604a5ffba496b6dd0aab8487604051611144929190611fdb565b60405180910390a450505050505050565b60007ff0c57e16840df040f15088dc2f81fe391c3923bec73e23a9662efc9c229c6a00905090565b6000600460009054906101000a900473ffffffffffffffffffffffffffffffffffffffff1673ffffffffffffffffffffffffffffffffffffffff1663fe39827b838787876040518563ffffffff1660e01b81526004016111df93929190612083565b60206040518083038185885af11580156111fd573d6000803e3d6000fd5b50505050506040513d601f19601f8201168201806040525081019061122291906120d6565b9050949350505050565b6112368282610c38565b6112795780826040517fe2517d3f000000000000000000000000000000000000000000000000000000008152600401611270929190612103565b60405180910390fd5b5050565b6000604051905090565b600080fd5b600080fd5b6000819050919050565b6112a481611291565b81146112af57600080fd5b50565b6000813590506112c18161129b565b92915050565b600080604083850312156112de576112dd611287565b5b60006112ec858286016112b2565b92505060206112fd858286016112b2565b9150509250929050565b61131081611291565b82525050565b600060208201905061132b6000830184611307565b92915050565b60007fffffffff0000000000000000000000000000000000000000000000000000000082169050919050565b61136681611331565b811461137157600080fd5b50565b6000813590506113838161135d565b92915050565b60006020828403121561139f5761139e611287565b5b60006113ad84828501611374565b91505092915050565b60008115159050919050565b6113cb816113b6565b82525050565b60006020820190506113e660008301846113c2565b92915050565b6000819050919050565b6113ff816113ec565b811461140a57600080fd5b50565b60008135905061141c816113f6565b92915050565b60006020828403121561143857611437611287565b5b60006114468482850161140d565b91505092915050565b611458816113ec565b82525050565b6000602082019050611473600083018461144f565b92915050565b600073ffffffffffffffffffffffffffffffffffffffff82169050919050565b60006114a482611479565b9050919050565b6114b481611499565b81146114bf57600080fd5b50565b6000813590506114d1816114ab565b92915050565b600080604083850312156114ee576114ed611287565b5b60006114fc8582860161140d565b925050602061150d858286016114c2565b9150509250929050565b61152081611499565b82525050565b600060208201905061153b6000830184611517565b92915050565b600080fd5b600080fd5b600080fd5b60008083601f84011261156657611565611541565b5b8235905067ffffffffffffffff81111561158357611582611546565b5b60208301915083600182028301111561159f5761159e61154b565b5b9250929050565b6000806000806000608086880312156115c2576115c1611287565b5b600086013567ffffffffffffffff8111156115e0576115df61128c565b5b6115ec88828901611550565b955095505060206115ff8882890161140d565b9350506040611610888289016112b2565b9250506060611621888289016114c2565b9150509295509295909350565b6000806040838503121561164557611644611287565b5b6000611653858286016114c2565b9250506020611664858286016114c2565b9150509250929050565b600080600080600060a0868803121561168a57611689611287565b5b6000611698888289016112b2565b95505060206116a9888289016114c2565b94505060406116ba888289016114c2565b93505060606116cb888289016112b2565b92505060806116dc888289016112b2565b9150509295509295909350565b6000602082840312156116ff576116fe611287565b5b600061170d848285016114c2565b91505092915050565b60008083601f84011261172c5761172b611541565b5b8235905067ffffffffffffffff81111561174957611748611546565b5b6020830191508360208202830111156117655761176461154b565b5b9250929050565b60008083601f84011261178257611781611541565b5b8235905067ffffffffffffffff81111561179f5761179e611546565b5b6020830191508360208202830111156117bb576117ba61154b565b5b9250929050565b60008083601f8401126117d8576117d7611541565b5b8235905067ffffffffffffffff8111156117f5576117f4611546565b5b6020830191508360208202830111156118115761181061154b565b5b9250929050565b6000806000806000806060878903121561183557611834611287565b5b600087013567ffffffffffffffff8111156118535761185261128c565b5b61185f89828a01611716565b9650965050602087013567ffffffffffffffff8111156118825761188161128c565b5b61188e89828a0161176c565b9450945050604087013567ffffffffffffffff8111156118b1576118b061128c565b5b6118bd89828a016117c2565b92509250509295509295509295565b600080604083850312156118e3576118e2611287565b5b60006118f1858286016112b2565b9250506020611902858286016114c2565b9150509250929050565b60006020828403121561192257611921611287565b5b6000611930848285016112b2565b91505092915050565b600060408201905061194e6000830185611307565b61195b6020830184611307565b9392505050565b6000815190506119718161129b565b92915050565b60006020828403121561198d5761198c611287565b5b600061199b84828501611962565b91505092915050565b600082825260208201905092915050565b7f576d624170703a204f6e6c7920574d4220676174657761792063616e2063616c60008201527f6c20746869732066756e6374696f6e0000000000000000000000000000000000602082015250565b6000611a11602f836119a4565b9150611a1c826119b5565b604082019050919050565b60006020820190508181036000830152611a4081611a04565b9050919050565b7f576d624170703a2052656d6f7465206973206e6f742074727573746564000000600082015250565b6000611a7d601d836119a4565b9150611a8882611a47565b602082019050919050565b60006020820190508181036000830152611aac81611a70565b9050919050565b6000819050919050565b600067ffffffffffffffff82169050919050565b6000819050919050565b6000611af6611af1611aec84611ab3565b611ad1565b611abd565b9050919050565b611b0681611adb565b82525050565b6000602082019050611b216000830184611afd565b92915050565b6000604082019050611b3c6000830185611517565b611b496020830184611307565b9392505050565b7f4e487b7100000000000000000000000000000000000000000000000000000000600052601160045260246000fd5b6000611b8a82611291565b9150611b9583611291565b9250828201905080821115611bad57611bac611b50565b5b92915050565b7f576d624170703a206d75737420686176652061646d696e20726f6c6520746f2060008201527f73657420747275737465642072656d6f74657300000000000000000000000000602082015250565b6000611c0f6033836119a4565b9150611c1a82611bb3565b604082019050919050565b60006020820190508181036000830152611c3e81611c02565b9050919050565b7f576d624170703a20696e76616c696420696e7075740000000000000000000000600082015250565b6000611c7b6015836119a4565b9150611c8682611c45565b602082019050919050565b60006020820190508181036000830152611caa81611c6e565b9050919050565b7f4e487b7100000000000000000000000000000000000000000000000000000000600052603260045260246000fd5b611ce9816113b6565b8114611cf457600080fd5b50565b600081359050611d0681611ce0565b92915050565b600060208284031215611d2257611d21611287565b5b6000611d3084828501611cf7565b91505092915050565b7f496e73756666696369656e742062616c616e6365000000000000000000000000600082015250565b6000611d6f6014836119a4565b9150611d7a82611d39565b602082019050919050565b60006020820190508181036000830152611d9e81611d62565b9050919050565b6000611db082611291565b9150611dbb83611291565b9250828203905081811115611dd357611dd2611b50565b5b92915050565b6000611de482611479565b9050919050565b611df481611dd9565b8114611dff57600080fd5b50565b600081359050611e1181611deb565b92915050565b600080fd5b6000601f19601f8301169050919050565b7f4e487b7100000000000000000000000000000000000000000000000000000000600052604160045260246000fd5b611e6582611e1c565b810181811067ffffffffffffffff82111715611e8457611e83611e2d565b5b80604052505050565b6000611e9761127d565b9050611ea38282611e5c565b919050565b600067ffffffffffffffff821115611ec357611ec2611e2d565b5b611ecc82611e1c565b9050602081019050919050565b82818337600083830152505050565b6000611efb611ef684611ea8565b611e8d565b905082815260208101848484011115611f1757611f16611e17565b5b611f22848285611ed9565b509392505050565b600082601f830112611f3f57611f3e611541565b5b8135611f4f848260208601611ee8565b91505092915050565b60008060008060808587031215611f7257611f71611287565b5b6000611f8087828801611e02565b9450506020611f9187828801611e02565b9350506040611fa2878288016112b2565b925050606085013567ffffffffffffffff811115611fc357611fc261128c565b5b611fcf87828801611f2a565b91505092959194509250565b6000604082019050611ff06000830185611307565b611ffd6020830184611517565b9392505050565b600081519050919050565b600082825260208201905092915050565b60005b8381101561203e578082015181840152602081019050612023565b60008484015250505050565b600061205582612004565b61205f818561200f565b935061206f818560208601612020565b61207881611e1c565b840191505092915050565b60006060820190506120986000830186611307565b6120a56020830185611517565b81810360408301526120b7818461204a565b9050949350505050565b6000815190506120d0816113f6565b92915050565b6000602082840312156120ec576120eb611287565b5b60006120fa848285016120c1565b91505092915050565b60006040820190506121186000830185611517565b612125602083018461144f565b939250505056fea264697066735822122039783f28f32eea3357253dde827aa8840df53bae88647dc1b2136a57606dedc564736f6c63430008160033",
  "linkReferences": {},
  "deployedLinkReferences": {}
}