{
  "_format": "hh-sol-artifact-1",
  "contractName": "lockCoins",
  "sourceName": "contracts/app/lockCoins.sol",
  "abi": [
    {
      "anonymous": false,
      "inputs": [
        {
          "indexed": false,
          "internalType": "address",
          "name": "user",
          "type": "address"
        },
        {
          "indexed": false,
          "internalType": "uint256",
          "name": "amount",
          "type": "uint256"
        }
      ],
      "name": "coinsLocked",
      "type": "event"
    },
    {
      "anonymous": false,
      "inputs": [
        {
          "indexed": false,
          "internalType": "address",
          "name": "user",
          "type": "address"
        },
        {
          "indexed": false,
          "internalType": "uint256",
          "name": "amount",
          "type": "uint256"
        }
      ],
      "name": "coinsReleased",
      "type": "event"
    },
    {
      "inputs": [
        {
          "internalType": "address",
          "name": "user",
          "type": "address"
        }
      ],
      "name": "balanceOf",
      "outputs": [
        {
          "internalType": "uint256",
          "name": "",
          "type": "uint256"
        }
      ],
      "stateMutability": "view",
      "type": "function"
    },
    {
      "inputs": [],
      "name": "lockCoin",
      "outputs": [],
      "stateMutability": "payable",
      "type": "function"
    },
    {
      "inputs": [],
      "name": "totalSupply",
      "outputs": [
        {
          "internalType": "uint256",
          "name": "",
          "type": "uint256"
        }
      ],
      "stateMutability": "view",
      "type": "function"
    },
    {
      "inputs": [
        {
          "internalType": "uint256",
          "name": "amount",
          "type": "uint256"
        }
      ],
      "name": "withdrawCoins",
      "outputs": [],
      "stateMutability": "nonpayable",
      "type": "function"
    }
  ],
  "bytecode": "0x608060405234801561001057600080fd5b506105e9806100206000396000f3fe60806040526004361061003f5760003560e01c806318160ddd1461004457806370a082311461006f5780637821d205146100ac578063f9f95a0f146100b6575b600080fd5b34801561005057600080fd5b506100596100df565b6040516100669190610363565b60405180910390f35b34801561007b57600080fd5b50610096600480360381019061009191906103e1565b6100e5565b6040516100a39190610363565b60405180910390f35b6100b461012e565b005b3480156100c257600080fd5b506100dd60048036038101906100d8919061043a565b6101d7565b005b60005481565b6000600160008373ffffffffffffffffffffffffffffffffffffffff1673ffffffffffffffffffffffffffffffffffffffff168152602001908152602001600020549050919050565b34600160003373ffffffffffffffffffffffffffffffffffffffff1673ffffffffffffffffffffffffffffffffffffffff168152602001908152602001600020600082825461017d9190610496565b92505081905550346000808282546101959190610496565b925050819055507f252449aa0b7de4aef34faa5608272066c34f2cea678fa4ee8850380955ef09b633346040516101cd9291906104d9565b60405180910390a1565b80600160003373ffffffffffffffffffffffffffffffffffffffff1673ffffffffffffffffffffffffffffffffffffffff168152602001908152602001600020541015610259576040517f08c379a00000000000000000000000000000000000000000000000000000000081526004016102509061055f565b60405180910390fd5b80600160003373ffffffffffffffffffffffffffffffffffffffff1673ffffffffffffffffffffffffffffffffffffffff16815260200190815260200160002060008282546102a8919061057f565b925050819055503373ffffffffffffffffffffffffffffffffffffffff166108fc829081150290604051600060405180830381858888f193505050501580156102f5573d6000803e3d6000fd5b5080600080828254610307919061057f565b925050819055507ffad10879470dbb69d36fd4817063d4d24960b3f59d7ebd6192dbc627e4bc1374338260405161033f9291906104d9565b60405180910390a150565b6000819050919050565b61035d8161034a565b82525050565b60006020820190506103786000830184610354565b92915050565b600080fd5b600073ffffffffffffffffffffffffffffffffffffffff82169050919050565b60006103ae82610383565b9050919050565b6103be816103a3565b81146103c957600080fd5b50565b6000813590506103db816103b5565b92915050565b6000602082840312156103f7576103f661037e565b5b6000610405848285016103cc565b91505092915050565b6104178161034a565b811461042257600080fd5b50565b6000813590506104348161040e565b92915050565b6000602082840312156104505761044f61037e565b5b600061045e84828501610425565b91505092915050565b7f4e487b7100000000000000000000000000000000000000000000000000000000600052601160045260246000fd5b60006104a18261034a565b91506104ac8361034a565b92508282019050808211156104c4576104c3610467565b5b92915050565b6104d3816103a3565b82525050565b60006040820190506104ee60008301856104ca565b6104fb6020830184610354565b9392505050565b600082825260208201905092915050565b7f496e73756666696369656e742062616c616e6365000000000000000000000000600082015250565b6000610549601483610502565b915061055482610513565b602082019050919050565b600060208201905081810360008301526105788161053c565b9050919050565b600061058a8261034a565b91506105958361034a565b92508282039050818111156105ad576105ac610467565b5b9291505056fea26469706673582212208ff73959188216cdfd4a661aea436aed2af0e4020eb7387c3bfc17ee36234a3264736f6c63430008160033",
  "linkReferences": {},
  "deployedLinkReferences": {}
}