{
  "_format": "hh-sol-artifact-1",
  "contractName": "ETH",
  "sourceName": "contracts/app/W5IRE.sol",
  "abi": [
    {
      "inputs": [
        {
          "internalType": "string",
          "name": "_name",
          "type": "string"
        },
        {
          "internalType": "string",
          "name": "_symbol",
          "type": "string"
        },
        {
          "internalType": "uint8",
          "name": "_decimals",
          "type": "uint8"
        },
        {
          "internalType": "address",
          "name": "_owner",
          "type": "address"
        }
      ],
      "stateMutability": "nonpayable",
      "type": "constructor"
    },
    {
      "anonymous": false,
      "inputs": [
        {
          "indexed": true,
          "internalType": "address",
          "name": "owner",
          "type": "address"
        },
        {
          "indexed": true,
          "internalType": "address",
          "name": "spender",
          "type": "address"
        },
        {
          "indexed": false,
          "internalType": "uint256",
          "name": "value",
          "type": "uint256"
        }
      ],
      "name": "Approval",
      "type": "event"
    },
    {
      "anonymous": false,
      "inputs": [
        {
          "indexed": true,
          "internalType": "address",
          "name": "oldOwner",
          "type": "address"
        },
        {
          "indexed": true,
          "internalType": "address",
          "name": "newOwner",
          "type": "address"
        },
        {
          "indexed": true,
          "internalType": "uint256",
          "name": "effectiveTime",
          "type": "uint256"
        }
      ],
      "name": "LogChangeDCRMOwner",
      "type": "event"
    },
    {
      "anonymous": false,
      "inputs": [
        {
          "indexed": true,
          "internalType": "bytes32",
          "name": "txhash",
          "type": "bytes32"
        },
        {
          "indexed": true,
          "internalType": "address",
          "name": "account",
          "type": "address"
        },
        {
          "indexed": false,
          "internalType": "uint256",
          "name": "amount",
          "type": "uint256"
        }
      ],
      "name": "LogSwapin",
      "type": "event"
    },
    {
      "anonymous": false,
      "inputs": [
        {
          "indexed": true,
          "internalType": "address",
          "name": "account",
          "type": "address"
        },
        {
          "indexed": true,
          "internalType": "address",
          "name": "bindaddr",
          "type": "address"
        },
        {
          "indexed": false,
          "internalType": "uint256",
          "name": "amount",
          "type": "uint256"
        }
      ],
      "name": "LogSwapout",
      "type": "event"
    },
    {
      "anonymous": false,
      "inputs": [
        {
          "indexed": true,
          "internalType": "address",
          "name": "from",
          "type": "address"
        },
        {
          "indexed": true,
          "internalType": "address",
          "name": "to",
          "type": "address"
        },
        {
          "indexed": false,
          "internalType": "uint256",
          "name": "value",
          "type": "uint256"
        }
      ],
      "name": "Transfer",
      "type": "event"
    },
    {
      "inputs": [],
      "name": "DOMAIN_SEPARATOR",
      "outputs": [
        {
          "internalType": "bytes32",
          "name": "",
          "type": "bytes32"
        }
      ],
      "stateMutability": "view",
      "type": "function"
    },
    {
      "inputs": [],
      "name": "PERMIT_TYPEHASH",
      "outputs": [
        {
          "internalType": "bytes32",
          "name": "",
          "type": "bytes32"
        }
      ],
      "stateMutability": "view",
      "type": "function"
    },
    {
      "inputs": [
        {
          "internalType": "bytes32",
          "name": "txhash",
          "type": "bytes32"
        },
        {
          "internalType": "address",
          "name": "account",
          "type": "address"
        },
        {
          "internalType": "uint256",
          "name": "amount",
          "type": "uint256"
        }
      ],
      "name": "Swapin",
      "outputs": [
        {
          "internalType": "bool",
          "name": "",
          "type": "bool"
        }
      ],
      "stateMutability": "nonpayable",
      "type": "function"
    },
    {
      "inputs": [
        {
          "internalType": "uint256",
          "name": "amount",
          "type": "uint256"
        },
        {
          "internalType": "address",
          "name": "bindaddr",
          "type": "address"
        }
      ],
      "name": "Swapout",
      "outputs": [
        {
          "internalType": "bool",
          "name": "",
          "type": "bool"
        }
      ],
      "stateMutability": "nonpayable",
      "type": "function"
    },
    {
      "inputs": [],
      "name": "TRANSFER_TYPEHASH",
      "outputs": [
        {
          "internalType": "bytes32",
          "name": "",
          "type": "bytes32"
        }
      ],
      "stateMutability": "view",
      "type": "function"
    },
    {
      "inputs": [
        {
          "internalType": "address",
          "name": "",
          "type": "address"
        },
        {
          "internalType": "address",
          "name": "",
          "type": "address"
        }
      ],
      "name": "allowance",
      "outputs": [
        {
          "internalType": "uint256",
          "name": "",
          "type": "uint256"
        }
      ],
      "stateMutability": "view",
      "type": "function"
    },
    {
      "inputs": [
        {
          "internalType": "address",
          "name": "spender",
          "type": "address"
        },
        {
          "internalType": "uint256",
          "name": "value",
          "type": "uint256"
        }
      ],
      "name": "approve",
      "outputs": [
        {
          "internalType": "bool",
          "name": "",
          "type": "bool"
        }
      ],
      "stateMutability": "nonpayable",
      "type": "function"
    },
    {
      "inputs": [
        {
          "internalType": "address",
          "name": "spender",
          "type": "address"
        },
        {
          "internalType": "uint256",
          "name": "value",
          "type": "uint256"
        },
        {
          "internalType": "bytes",
          "name": "data",
          "type": "bytes"
        }
      ],
      "name": "approveAndCall",
      "outputs": [
        {
          "internalType": "bool",
          "name": "",
          "type": "bool"
        }
      ],
      "stateMutability": "nonpayable",
      "type": "function"
    },
    {
      "inputs": [
        {
          "internalType": "address",
          "name": "",
          "type": "address"
        }
      ],
      "name": "balanceOf",
      "outputs": [
        {
          "internalType": "uint256",
          "name": "",
          "type": "uint256"
        }
      ],
      "stateMutability": "view",
      "type": "function"
    },
    {
      "inputs": [
        {
          "internalType": "address",
          "name": "newOwner",
          "type": "address"
        }
      ],
      "name": "changeDCRMOwner",
      "outputs": [
        {
          "internalType": "bool",
          "name": "",
          "type": "bool"
        }
      ],
      "stateMutability": "nonpayable",
      "type": "function"
    },
    {
      "inputs": [],
      "name": "decimals",
      "outputs": [
        {
          "internalType": "uint8",
          "name": "",
          "type": "uint8"
        }
      ],
      "stateMutability": "view",
      "type": "function"
    },
    {
      "inputs": [],
      "name": "name",
      "outputs": [
        {
          "internalType": "string",
          "name": "",
          "type": "string"
        }
      ],
      "stateMutability": "view",
      "type": "function"
    },
    {
      "inputs": [
        {
          "internalType": "address",
          "name": "",
          "type": "address"
        }
      ],
      "name": "nonces",
      "outputs": [
        {
          "internalType": "uint256",
          "name": "",
          "type": "uint256"
        }
      ],
      "stateMutability": "view",
      "type": "function"
    },
    {
      "inputs": [],
      "name": "owner",
      "outputs": [
        {
          "internalType": "address",
          "name": "",
          "type": "address"
        }
      ],
      "stateMutability": "view",
      "type": "function"
    },
    {
      "inputs": [
        {
          "internalType": "address",
          "name": "target",
          "type": "address"
        },
        {
          "internalType": "address",
          "name": "spender",
          "type": "address"
        },
        {
          "internalType": "uint256",
          "name": "value",
          "type": "uint256"
        },
        {
          "internalType": "uint256",
          "name": "deadline",
          "type": "uint256"
        },
        {
          "internalType": "uint8",
          "name": "v",
          "type": "uint8"
        },
        {
          "internalType": "bytes32",
          "name": "r",
          "type": "bytes32"
        },
        {
          "internalType": "bytes32",
          "name": "s",
          "type": "bytes32"
        }
      ],
      "name": "permit",
      "outputs": [],
      "stateMutability": "nonpayable",
      "type": "function"
    },
    {
      "inputs": [],
      "name": "symbol",
      "outputs": [
        {
          "internalType": "string",
          "name": "",
          "type": "string"
        }
      ],
      "stateMutability": "view",
      "type": "function"
    },
    {
      "inputs": [],
      "name": "totalSupply",
      "outputs": [
        {
          "internalType": "uint256",
          "name": "",
          "type": "uint256"
        }
      ],
      "stateMutability": "view",
      "type": "function"
    },
    {
      "inputs": [
        {
          "internalType": "address",
          "name": "to",
          "type": "address"
        },
        {
          "internalType": "uint256",
          "name": "value",
          "type": "uint256"
        }
      ],
      "name": "transfer",
      "outputs": [
        {
          "internalType": "bool",
          "name": "",
          "type": "bool"
        }
      ],
      "stateMutability": "nonpayable",
      "type": "function"
    },
    {
      "inputs": [
        {
          "internalType": "address",
          "name": "to",
          "type": "address"
        },
        {
          "internalType": "uint256",
          "name": "value",
          "type": "uint256"
        },
        {
          "internalType": "bytes",
          "name": "data",
          "type": "bytes"
        }
      ],
      "name": "transferAndCall",
      "outputs": [
        {
          "internalType": "bool",
          "name": "",
          "type": "bool"
        }
      ],
      "stateMutability": "nonpayable",
      "type": "function"
    },
    {
      "inputs": [
        {
          "internalType": "address",
          "name": "from",
          "type": "address"
        },
        {
          "internalType": "address",
          "name": "to",
          "type": "address"
        },
        {
          "internalType": "uint256",
          "name": "value",
          "type": "uint256"
        }
      ],
      "name": "transferFrom",
      "outputs": [
        {
          "internalType": "bool",
          "name": "",
          "type": "bool"
        }
      ],
      "stateMutability": "nonpayable",
      "type": "function"
    },
    {
      "inputs": [
        {
          "internalType": "address",
          "name": "target",
          "type": "address"
        },
        {
          "internalType": "address",
          "name": "to",
          "type": "address"
        },
        {
          "internalType": "uint256",
          "name": "value",
          "type": "uint256"
        },
        {
          "internalType": "uint256",
          "name": "deadline",
          "type": "uint256"
        },
        {
          "internalType": "uint8",
          "name": "v",
          "type": "uint8"
        },
        {
          "internalType": "bytes32",
          "name": "r",
          "type": "bytes32"
        },
        {
          "internalType": "bytes32",
          "name": "s",
          "type": "bytes32"
        }
      ],
      "name": "transferWithPermit",
      "outputs": [
        {
          "internalType": "bool",
          "name": "",
          "type": "bool"
        }
      ],
      "stateMutability": "nonpayable",
      "type": "function"
    }
  ],
  "bytecode": "0x60c06040523480156200001157600080fd5b506040516200369a3803806200369a8339818101604052810190620000379190620003a3565b83600090816200004891906200069e565b5082600190816200005a91906200069e565b508160ff1660808160ff168152505080600560006101000a81548173ffffffffffffffffffffffffffffffffffffffff021916908373ffffffffffffffffffffffffffffffffffffffff1602179055504260068190555060004690507f8b73c3c69bb8fe3d512ecc4cf759cc79239f7b179b0ffacaa9a75d522b39400f6000604051620000e8919062000834565b60405180910390206040518060400160405280600181526020017f3100000000000000000000000000000000000000000000000000000000000000815250805190602001208330604051602001620001459594939291906200088a565b6040516020818303038152906040528051906020012060a081815250505050505050620008e7565b6000604051905090565b600080fd5b600080fd5b600080fd5b600080fd5b6000601f19601f8301169050919050565b7f4e487b7100000000000000000000000000000000000000000000000000000000600052604160045260246000fd5b620001d6826200018b565b810181811067ffffffffffffffff82111715620001f857620001f76200019c565b5b80604052505050565b60006200020d6200016d565b90506200021b8282620001cb565b919050565b600067ffffffffffffffff8211156200023e576200023d6200019c565b5b62000249826200018b565b9050602081019050919050565b60005b838110156200027657808201518184015260208101905062000259565b60008484015250505050565b600062000299620002938462000220565b62000201565b905082815260208101848484011115620002b857620002b762000186565b5b620002c584828562000256565b509392505050565b600082601f830112620002e557620002e462000181565b5b8151620002f784826020860162000282565b91505092915050565b600060ff82169050919050565b620003188162000300565b81146200032457600080fd5b50565b60008151905062000338816200030d565b92915050565b600073ffffffffffffffffffffffffffffffffffffffff82169050919050565b60006200036b826200033e565b9050919050565b6200037d816200035e565b81146200038957600080fd5b50565b6000815190506200039d8162000372565b92915050565b60008060008060808587031215620003c057620003bf62000177565b5b600085015167ffffffffffffffff811115620003e157620003e06200017c565b5b620003ef87828801620002cd565b945050602085015167ffffffffffffffff8111156200041357620004126200017c565b5b6200042187828801620002cd565b9350506040620004348782880162000327565b925050606062000447878288016200038c565b91505092959194509250565b600081519050919050565b7f4e487b7100000000000000000000000000000000000000000000000000000000600052602260045260246000fd5b60006002820490506001821680620004a657607f821691505b602082108103620004bc57620004bb6200045e565b5b50919050565b60008190508160005260206000209050919050565b60006020601f8301049050919050565b600082821b905092915050565b600060088302620005267fffffffffffffffffffffffffffffffffffffffffffffffffffffffffffffffff82620004e7565b620005328683620004e7565b95508019841693508086168417925050509392505050565b6000819050919050565b6000819050919050565b60006200057f6200057962000573846200054a565b62000554565b6200054a565b9050919050565b6000819050919050565b6200059b836200055e565b620005b3620005aa8262000586565b848454620004f4565b825550505050565b600090565b620005ca620005bb565b620005d781848462000590565b505050565b5b81811015620005ff57620005f3600082620005c0565b600181019050620005dd565b5050565b601f8211156200064e576200061881620004c2565b6200062384620004d7565b8101602085101562000633578190505b6200064b6200064285620004d7565b830182620005dc565b50505b505050565b600082821c905092915050565b6000620006736000198460080262000653565b1980831691505092915050565b60006200068e838362000660565b9150826002028217905092915050565b620006a98262000453565b67ffffffffffffffff811115620006c557620006c46200019c565b5b620006d182546200048d565b620006de82828562000603565b600060209050601f83116001811462000716576000841562000701578287015190505b6200070d858262000680565b8655506200077d565b601f1984166200072686620004c2565b60005b82811015620007505784890151825560018201915060208501945060208101905062000729565b868310156200077057848901516200076c601f89168262000660565b8355505b6001600288020188555050505b505050505050565b600081905092915050565b60008190508160005260206000209050919050565b60008154620007b4816200048d565b620007c0818662000785565b94506001821660008114620007de5760018114620007f4576200082b565b60ff19831686528115158202860193506200082b565b620007ff8562000790565b60005b83811015620008235781548189015260018201915060208101905062000802565b838801955050505b50505092915050565b6000620008428284620007a5565b915081905092915050565b6000819050919050565b62000862816200084d565b82525050565b62000873816200054a565b82525050565b62000884816200035e565b82525050565b600060a082019050620008a1600083018862000857565b620008b0602083018762000857565b620008bf604083018662000857565b620008ce606083018562000868565b620008dd608083018462000879565b9695505050505050565b60805160a051612d866200091460003960008181610aa60152611b4001526000610a820152612d866000f3fe608060405234801561001057600080fd5b50600436106101365760003560e01c8063628d6cba116100b8578063a9059cbb1161007c578063a9059cbb1461037b578063b524f3a5146103ab578063cae9ca51146103db578063d505accf1461040b578063dd62ed3e14610427578063ec126c771461045757610136565b8063628d6cba146102af57806370a08231146102df5780637ecebe001461030f5780638da5cb5b1461033f57806395d89b411461035d57610136565b806330adf81f116100ff57806330adf81f146101f5578063313ce567146102135780633644e515146102315780634000aea01461024f578063605629d61461027f57610136565b8062bf26f41461013b57806306fdde0314610159578063095ea7b31461017757806318160ddd146101a757806323b872dd146101c5575b600080fd5b610143610487565b6040516101509190612000565b60405180910390f35b6101616104ab565b60405161016e91906120ab565b60405180910390f35b610191600480360381019061018c919061216b565b610539565b60405161019e91906121c6565b60405180910390f35b6101af61062b565b6040516101bc91906121f0565b60405180910390f35b6101df60048036038101906101da919061220b565b610635565b6040516101ec91906121c6565b60405180910390f35b6101fd610a5c565b60405161020a9190612000565b60405180910390f35b61021b610a80565b604051610228919061227a565b60405180910390f35b610239610aa4565b6040516102469190612000565b60405180910390f35b610269600480360381019061026491906122fa565b610ac8565b60405161027691906121c6565b60405180910390f35b610299600480360381019061029491906123c6565b610d58565b6040516102a691906121c6565b60405180910390f35b6102c960048036038101906102c49190612468565b611082565b6040516102d691906121c6565b60405180910390f35b6102f960048036038101906102f491906124a8565b61116b565b60405161030691906121f0565b60405180910390f35b610329600480360381019061032491906124a8565b611183565b60405161033691906121f0565b60405180910390f35b61034761119b565b60405161035491906124e4565b60405180910390f35b6103656111f9565b60405161037291906120ab565b60405180910390f35b6103956004803603810190610390919061216b565b611287565b6040516103a291906121c6565b60405180910390f35b6103c560048036038101906103c091906124a8565b611495565b6040516103d291906121c6565b60405180910390f35b6103f560048036038101906103f091906122fa565b6116c3565b60405161040291906121c6565b60405180910390f35b610425600480360381019061042091906123c6565b611836565b005b610441600480360381019061043c91906124ff565b611a3b565b60405161044e91906121f0565b60405180910390f35b610471600480360381019061046c919061253f565b611a60565b60405161047e91906121c6565b60405180910390f35b7f42ce63790c28229c123925d83266e77c04d28784552ab68b350a9003226cbd5981565b600080546104b8906125c1565b80601f01602080910402602001604051908101604052809291908181526020018280546104e4906125c1565b80156105315780601f1061050657610100808354040283529160200191610531565b820191906000526020600020905b81548152906001019060200180831161051457829003601f168201915b505050505081565b600081600860003373ffffffffffffffffffffffffffffffffffffffff1673ffffffffffffffffffffffffffffffffffffffff16815260200190815260200160002060008573ffffffffffffffffffffffffffffffffffffffff1673ffffffffffffffffffffffffffffffffffffffff168152602001908152602001600020819055508273ffffffffffffffffffffffffffffffffffffffff163373ffffffffffffffffffffffffffffffffffffffff167f8c5be1e5ebec7d5bd14f71427d1e84f3dd0314c0f7b2291e5b200ac8c7c3b9258460405161061991906121f0565b60405180910390a36001905092915050565b6000600354905090565b60008073ffffffffffffffffffffffffffffffffffffffff168373ffffffffffffffffffffffffffffffffffffffff1614158061069e57503073ffffffffffffffffffffffffffffffffffffffff168373ffffffffffffffffffffffffffffffffffffffff1614155b6106a757600080fd5b3373ffffffffffffffffffffffffffffffffffffffff168473ffffffffffffffffffffffffffffffffffffffff16146108bf576000600860008673ffffffffffffffffffffffffffffffffffffffff1673ffffffffffffffffffffffffffffffffffffffff16815260200190815260200160002060003373ffffffffffffffffffffffffffffffffffffffff1673ffffffffffffffffffffffffffffffffffffffff1681526020019081526020016000205490507fffffffffffffffffffffffffffffffffffffffffffffffffffffffffffffffff81146108bd57828110156107c5576040517f08c379a00000000000000000000000000000000000000000000000000000000081526004016107bc90612664565b60405180910390fd5b600083826107d391906126b3565b905080600860008873ffffffffffffffffffffffffffffffffffffffff1673ffffffffffffffffffffffffffffffffffffffff16815260200190815260200160002060003373ffffffffffffffffffffffffffffffffffffffff1673ffffffffffffffffffffffffffffffffffffffff168152602001908152602001600020819055503373ffffffffffffffffffffffffffffffffffffffff168673ffffffffffffffffffffffffffffffffffffffff167f8c5be1e5ebec7d5bd14f71427d1e84f3dd0314c0f7b2291e5b200ac8c7c3b925836040516108b391906121f0565b60405180910390a3505b505b6000600260008673ffffffffffffffffffffffffffffffffffffffff1673ffffffffffffffffffffffffffffffffffffffff16815260200190815260200160002054905082811015610946576040517f08c379a000000000000000000000000000000000000000000000000000000000815260040161093d90612759565b60405180910390fd5b828161095291906126b3565b600260008773ffffffffffffffffffffffffffffffffffffffff1673ffffffffffffffffffffffffffffffffffffffff1681526020019081526020016000208190555082600260008673ffffffffffffffffffffffffffffffffffffffff1673ffffffffffffffffffffffffffffffffffffffff16815260200190815260200160002060008282546109e49190612779565b925050819055508373ffffffffffffffffffffffffffffffffffffffff168573ffffffffffffffffffffffffffffffffffffffff167fddf252ad1be2c89b69c2b068fc378daa952ba7f163c4a11628f55a4df523b3ef85604051610a4891906121f0565b60405180910390a360019150509392505050565b7f6e71edae12b1b97f4d1f60370fef10105fa2faae0126114a169c64845d6126c981565b7f000000000000000000000000000000000000000000000000000000000000000081565b7f000000000000000000000000000000000000000000000000000000000000000081565b60008073ffffffffffffffffffffffffffffffffffffffff168573ffffffffffffffffffffffffffffffffffffffff16141580610b3157503073ffffffffffffffffffffffffffffffffffffffff168573ffffffffffffffffffffffffffffffffffffffff1614155b610b3a57600080fd5b6000600260003373ffffffffffffffffffffffffffffffffffffffff1673ffffffffffffffffffffffffffffffffffffffff16815260200190815260200160002054905084811015610bc1576040517f08c379a0000000000000000000000000000000000000000000000000000000008152600401610bb890612759565b60405180910390fd5b8481610bcd91906126b3565b600260003373ffffffffffffffffffffffffffffffffffffffff1673ffffffffffffffffffffffffffffffffffffffff1681526020019081526020016000208190555084600260008873ffffffffffffffffffffffffffffffffffffffff1673ffffffffffffffffffffffffffffffffffffffff1681526020019081526020016000206000828254610c5f9190612779565b925050819055508573ffffffffffffffffffffffffffffffffffffffff163373ffffffffffffffffffffffffffffffffffffffff167fddf252ad1be2c89b69c2b068fc378daa952ba7f163c4a11628f55a4df523b3ef87604051610cc391906121f0565b60405180910390a38573ffffffffffffffffffffffffffffffffffffffff1663a4c0ed36338787876040518563ffffffff1660e01b8152600401610d0a94939291906127fa565b6020604051808303816000875af1158015610d29573d6000803e3d6000fd5b505050506040513d601f19601f82011682018060405250810190610d4d9190612866565b915050949350505050565b600084421115610d9d576040517f08c379a0000000000000000000000000000000000000000000000000000000008152600401610d94906128df565b60405180910390fd5b60007f42ce63790c28229c123925d83266e77c04d28784552ab68b350a9003226cbd59898989600760008e73ffffffffffffffffffffffffffffffffffffffff1673ffffffffffffffffffffffffffffffffffffffff1681526020019081526020016000206000815480929190610e13906128ff565b919050558a604051602001610e2d96959493929190612947565b604051602081830303815290604052805190602001209050610e528982878787611b3b565b80610e665750610e658982878787611c51565b5b610e6f57600080fd5b600073ffffffffffffffffffffffffffffffffffffffff168873ffffffffffffffffffffffffffffffffffffffff16141580610ed757503073ffffffffffffffffffffffffffffffffffffffff168873ffffffffffffffffffffffffffffffffffffffff1614155b610ee057600080fd5b6000600260008b73ffffffffffffffffffffffffffffffffffffffff1673ffffffffffffffffffffffffffffffffffffffff16815260200190815260200160002054905087811015610f67576040517f08c379a0000000000000000000000000000000000000000000000000000000008152600401610f5e90612759565b60405180910390fd5b8781610f7391906126b3565b600260008c73ffffffffffffffffffffffffffffffffffffffff1673ffffffffffffffffffffffffffffffffffffffff1681526020019081526020016000208190555087600260008b73ffffffffffffffffffffffffffffffffffffffff1673ffffffffffffffffffffffffffffffffffffffff16815260200190815260200160002060008282546110059190612779565b925050819055508873ffffffffffffffffffffffffffffffffffffffff168a73ffffffffffffffffffffffffffffffffffffffff167fddf252ad1be2c89b69c2b068fc378daa952ba7f163c4a11628f55a4df523b3ef8a60405161106991906121f0565b60405180910390a3600192505050979650505050505050565b60008073ffffffffffffffffffffffffffffffffffffffff168273ffffffffffffffffffffffffffffffffffffffff16036110f2576040517f08c379a00000000000000000000000000000000000000000000000000000000081526004016110e9906129f4565b60405180910390fd5b6110fc3384611d27565b8173ffffffffffffffffffffffffffffffffffffffff163373ffffffffffffffffffffffffffffffffffffffff167f6b616089d04950dc06c45c6dd787d657980543f89651aec47924752c7d16c8888560405161115991906121f0565b60405180910390a36001905092915050565b60026020528060005260406000206000915090505481565b60076020528060005260406000206000915090505481565b600060065442106111d057600560009054906101000a900473ffffffffffffffffffffffffffffffffffffffff1690506111f6565b600460009054906101000a900473ffffffffffffffffffffffffffffffffffffffff1690505b90565b60018054611206906125c1565b80601f0160208091040260200160405190810160405280929190818152602001828054611232906125c1565b801561127f5780601f106112545761010080835404028352916020019161127f565b820191906000526020600020905b81548152906001019060200180831161126257829003601f168201915b505050505081565b60008073ffffffffffffffffffffffffffffffffffffffff168373ffffffffffffffffffffffffffffffffffffffff161415806112f057503073ffffffffffffffffffffffffffffffffffffffff168373ffffffffffffffffffffffffffffffffffffffff1614155b6112f957600080fd5b6000600260003373ffffffffffffffffffffffffffffffffffffffff1673ffffffffffffffffffffffffffffffffffffffff16815260200190815260200160002054905082811015611380576040517f08c379a000000000000000000000000000000000000000000000000000000000815260040161137790612759565b60405180910390fd5b828161138c91906126b3565b600260003373ffffffffffffffffffffffffffffffffffffffff1673ffffffffffffffffffffffffffffffffffffffff1681526020019081526020016000208190555082600260008673ffffffffffffffffffffffffffffffffffffffff1673ffffffffffffffffffffffffffffffffffffffff168152602001908152602001600020600082825461141e9190612779565b925050819055508373ffffffffffffffffffffffffffffffffffffffff163373ffffffffffffffffffffffffffffffffffffffff167fddf252ad1be2c89b69c2b068fc378daa952ba7f163c4a11628f55a4df523b3ef8560405161148291906121f0565b60405180910390a3600191505092915050565b600061149f61119b565b73ffffffffffffffffffffffffffffffffffffffff163373ffffffffffffffffffffffffffffffffffffffff161461150c576040517f08c379a000000000000000000000000000000000000000000000000000000000815260040161150390612a60565b60405180910390fd5b600073ffffffffffffffffffffffffffffffffffffffff168273ffffffffffffffffffffffffffffffffffffffff160361157b576040517f08c379a000000000000000000000000000000000000000000000000000000000815260040161157290612acc565b60405180910390fd5b61158361119b565b600460006101000a81548173ffffffffffffffffffffffffffffffffffffffff021916908373ffffffffffffffffffffffffffffffffffffffff16021790555081600560006101000a81548173ffffffffffffffffffffffffffffffffffffffff021916908373ffffffffffffffffffffffffffffffffffffffff1602179055506202a300426116139190612779565b600681905550600654600560009054906101000a900473ffffffffffffffffffffffffffffffffffffffff1673ffffffffffffffffffffffffffffffffffffffff16600460009054906101000a900473ffffffffffffffffffffffffffffffffffffffff1673ffffffffffffffffffffffffffffffffffffffff167fe1968d4263a733e2597ef67ea6ad267343bba5f8bf0f99d85190e06b05d824d960405160405180910390a460019050919050565b600083600860003373ffffffffffffffffffffffffffffffffffffffff1673ffffffffffffffffffffffffffffffffffffffff16815260200190815260200160002060008773ffffffffffffffffffffffffffffffffffffffff1673ffffffffffffffffffffffffffffffffffffffff168152602001908152602001600020819055508473ffffffffffffffffffffffffffffffffffffffff163373ffffffffffffffffffffffffffffffffffffffff167f8c5be1e5ebec7d5bd14f71427d1e84f3dd0314c0f7b2291e5b200ac8c7c3b925866040516117a391906121f0565b60405180910390a38473ffffffffffffffffffffffffffffffffffffffff1662ba451f338686866040518563ffffffff1660e01b81526004016117e994939291906127fa565b6020604051808303816000875af1158015611808573d6000803e3d6000fd5b505050506040513d601f19601f8201168201806040525081019061182c9190612866565b9050949350505050565b83421115611879576040517f08c379a0000000000000000000000000000000000000000000000000000000008152600401611870906128df565b60405180910390fd5b60007f6e71edae12b1b97f4d1f60370fef10105fa2faae0126114a169c64845d6126c9888888600760008d73ffffffffffffffffffffffffffffffffffffffff1673ffffffffffffffffffffffffffffffffffffffff16815260200190815260200160002060008154809291906118ef906128ff565b919050558960405160200161190996959493929190612947565b60405160208183030381529060405280519060200120905061192e8882868686611b3b565b8061194257506119418882868686611c51565b5b61194b57600080fd5b85600860008a73ffffffffffffffffffffffffffffffffffffffff1673ffffffffffffffffffffffffffffffffffffffff16815260200190815260200160002060008973ffffffffffffffffffffffffffffffffffffffff1673ffffffffffffffffffffffffffffffffffffffff168152602001908152602001600020819055508673ffffffffffffffffffffffffffffffffffffffff168873ffffffffffffffffffffffffffffffffffffffff167f8c5be1e5ebec7d5bd14f71427d1e84f3dd0314c0f7b2291e5b200ac8c7c3b92588604051611a2991906121f0565b60405180910390a35050505050505050565b6008602052816000526040600020602052806000526040600020600091509150505481565b6000611a6a61119b565b73ffffffffffffffffffffffffffffffffffffffff163373ffffffffffffffffffffffffffffffffffffffff1614611ad7576040517f08c379a0000000000000000000000000000000000000000000000000000000008152600401611ace90612a60565b60405180910390fd5b611ae18383611e6f565b8273ffffffffffffffffffffffffffffffffffffffff16847f05d0634fe981be85c22e2942a880821b70095d84e152c3ea3c17a4e4250d9d6184604051611b2891906121f0565b60405180910390a3600190509392505050565b6000807f000000000000000000000000000000000000000000000000000000000000000086604051602001611b71929190612b64565b604051602081830303815290604052805190602001209050600060018287878760405160008152602001604052604051611bae9493929190612b9b565b6020604051602081039080840390855afa158015611bd0573d6000803e3d6000fd5b505050602060405103519050600073ffffffffffffffffffffffffffffffffffffffff168173ffffffffffffffffffffffffffffffffffffffff1614158015611c4457508773ffffffffffffffffffffffffffffffffffffffff168173ffffffffffffffffffffffffffffffffffffffff16145b9250505095945050505050565b600080611c5d86611fb7565b9050600060018287878760405160008152602001604052604051611c849493929190612b9b565b6020604051602081039080840390855afa158015611ca6573d6000803e3d6000fd5b505050602060405103519050600073ffffffffffffffffffffffffffffffffffffffff168173ffffffffffffffffffffffffffffffffffffffff1614158015611d1a57508773ffffffffffffffffffffffffffffffffffffffff168173ffffffffffffffffffffffffffffffffffffffff16145b9250505095945050505050565b600073ffffffffffffffffffffffffffffffffffffffff168273ffffffffffffffffffffffffffffffffffffffff1603611d96576040517f08c379a0000000000000000000000000000000000000000000000000000000008152600401611d8d90612c52565b60405180910390fd5b80600260008473ffffffffffffffffffffffffffffffffffffffff1673ffffffffffffffffffffffffffffffffffffffff1681526020019081526020016000206000828254611de591906126b3565b925050819055508060036000828254611dfe91906126b3565b92505081905550600073ffffffffffffffffffffffffffffffffffffffff168273ffffffffffffffffffffffffffffffffffffffff167fddf252ad1be2c89b69c2b068fc378daa952ba7f163c4a11628f55a4df523b3ef83604051611e6391906121f0565b60405180910390a35050565b600073ffffffffffffffffffffffffffffffffffffffff168273ffffffffffffffffffffffffffffffffffffffff1603611ede576040517f08c379a0000000000000000000000000000000000000000000000000000000008152600401611ed590612cbe565b60405180910390fd5b8060036000828254611ef09190612779565b9250508190555080600260008473ffffffffffffffffffffffffffffffffffffffff1673ffffffffffffffffffffffffffffffffffffffff1681526020019081526020016000206000828254611f469190612779565b925050819055508173ffffffffffffffffffffffffffffffffffffffff16600073ffffffffffffffffffffffffffffffffffffffff167fddf252ad1be2c89b69c2b068fc378daa952ba7f163c4a11628f55a4df523b3ef83604051611fab91906121f0565b60405180910390a35050565b600081604051602001611fca9190612d2a565b604051602081830303815290604052805190602001209050919050565b6000819050919050565b611ffa81611fe7565b82525050565b60006020820190506120156000830184611ff1565b92915050565b600081519050919050565b600082825260208201905092915050565b60005b8381101561205557808201518184015260208101905061203a565b60008484015250505050565b6000601f19601f8301169050919050565b600061207d8261201b565b6120878185612026565b9350612097818560208601612037565b6120a081612061565b840191505092915050565b600060208201905081810360008301526120c58184612072565b905092915050565b600080fd5b600080fd5b600073ffffffffffffffffffffffffffffffffffffffff82169050919050565b6000612102826120d7565b9050919050565b612112816120f7565b811461211d57600080fd5b50565b60008135905061212f81612109565b92915050565b6000819050919050565b61214881612135565b811461215357600080fd5b50565b6000813590506121658161213f565b92915050565b60008060408385031215612182576121816120cd565b5b600061219085828601612120565b92505060206121a185828601612156565b9150509250929050565b60008115159050919050565b6121c0816121ab565b82525050565b60006020820190506121db60008301846121b7565b92915050565b6121ea81612135565b82525050565b600060208201905061220560008301846121e1565b92915050565b600080600060608486031215612224576122236120cd565b5b600061223286828701612120565b935050602061224386828701612120565b925050604061225486828701612156565b9150509250925092565b600060ff82169050919050565b6122748161225e565b82525050565b600060208201905061228f600083018461226b565b92915050565b600080fd5b600080fd5b600080fd5b60008083601f8401126122ba576122b9612295565b5b8235905067ffffffffffffffff8111156122d7576122d661229a565b5b6020830191508360018202830111156122f3576122f261229f565b5b9250929050565b60008060008060608587031215612314576123136120cd565b5b600061232287828801612120565b945050602061233387828801612156565b935050604085013567ffffffffffffffff811115612354576123536120d2565b5b612360878288016122a4565b925092505092959194509250565b6123778161225e565b811461238257600080fd5b50565b6000813590506123948161236e565b92915050565b6123a381611fe7565b81146123ae57600080fd5b50565b6000813590506123c08161239a565b92915050565b600080600080600080600060e0888a0312156123e5576123e46120cd565b5b60006123f38a828b01612120565b97505060206124048a828b01612120565b96505060406124158a828b01612156565b95505060606124268a828b01612156565b94505060806124378a828b01612385565b93505060a06124488a828b016123b1565b92505060c06124598a828b016123b1565b91505092959891949750929550565b6000806040838503121561247f5761247e6120cd565b5b600061248d85828601612156565b925050602061249e85828601612120565b9150509250929050565b6000602082840312156124be576124bd6120cd565b5b60006124cc84828501612120565b91505092915050565b6124de816120f7565b82525050565b60006020820190506124f960008301846124d5565b92915050565b60008060408385031215612516576125156120cd565b5b600061252485828601612120565b925050602061253585828601612120565b9150509250929050565b600080600060608486031215612558576125576120cd565b5b6000612566868287016123b1565b935050602061257786828701612120565b925050604061258886828701612156565b9150509250925092565b7f4e487b7100000000000000000000000000000000000000000000000000000000600052602260045260246000fd5b600060028204905060018216806125d957607f821691505b6020821081036125ec576125eb612592565b5b50919050565b7f5745524331303a2072657175657374206578636565647320616c6c6f77616e6360008201527f6500000000000000000000000000000000000000000000000000000000000000602082015250565b600061264e602183612026565b9150612659826125f2565b604082019050919050565b6000602082019050818103600083015261267d81612641565b9050919050565b7f4e487b7100000000000000000000000000000000000000000000000000000000600052601160045260246000fd5b60006126be82612135565b91506126c983612135565b92508282039050818111156126e1576126e0612684565b5b92915050565b7f5745524331303a207472616e7366657220616d6f756e7420657863656564732060008201527f62616c616e636500000000000000000000000000000000000000000000000000602082015250565b6000612743602783612026565b915061274e826126e7565b604082019050919050565b6000602082019050818103600083015261277281612736565b9050919050565b600061278482612135565b915061278f83612135565b92508282019050808211156127a7576127a6612684565b5b92915050565b600082825260208201905092915050565b82818337600083830152505050565b60006127d983856127ad565b93506127e68385846127be565b6127ef83612061565b840190509392505050565b600060608201905061280f60008301876124d5565b61281c60208301866121e1565b818103604083015261282f8184866127cd565b905095945050505050565b612843816121ab565b811461284e57600080fd5b50565b6000815190506128608161283a565b92915050565b60006020828403121561287c5761287b6120cd565b5b600061288a84828501612851565b91505092915050565b7f5745524331303a2045787069726564207065726d697400000000000000000000600082015250565b60006128c9601683612026565b91506128d482612893565b602082019050919050565b600060208201905081810360008301526128f8816128bc565b9050919050565b600061290a82612135565b91507fffffffffffffffffffffffffffffffffffffffffffffffffffffffffffffffff820361293c5761293b612684565b5b600182019050919050565b600060c08201905061295c6000830189611ff1565b61296960208301886124d5565b61297660408301876124d5565b61298360608301866121e1565b61299060808301856121e1565b61299d60a08301846121e1565b979650505050505050565b7f62696e64206164647265737320697320746865207a65726f2061646472657373600082015250565b60006129de602083612026565b91506129e9826129a8565b602082019050919050565b60006020820190508181036000830152612a0d816129d1565b9050919050565b7f6f6e6c79206f776e657200000000000000000000000000000000000000000000600082015250565b6000612a4a600a83612026565b9150612a5582612a14565b602082019050919050565b60006020820190508181036000830152612a7981612a3d565b9050919050565b7f6e6577206f776e657220697320746865207a65726f2061646472657373000000600082015250565b6000612ab6601d83612026565b9150612ac182612a80565b602082019050919050565b60006020820190508181036000830152612ae581612aa9565b9050919050565b600081905092915050565b7f1901000000000000000000000000000000000000000000000000000000000000600082015250565b6000612b2d600283612aec565b9150612b3882612af7565b600282019050919050565b6000819050919050565b612b5e612b5982611fe7565b612b43565b82525050565b6000612b6f82612b20565b9150612b7b8285612b4d565b602082019150612b8b8284612b4d565b6020820191508190509392505050565b6000608082019050612bb06000830187611ff1565b612bbd602083018661226b565b612bca6040830185611ff1565b612bd76060830184611ff1565b95945050505050565b7f45524332303a206275726e2066726f6d20746865207a65726f2061646472657360008201527f7300000000000000000000000000000000000000000000000000000000000000602082015250565b6000612c3c602183612026565b9150612c4782612be0565b604082019050919050565b60006020820190508181036000830152612c6b81612c2f565b9050919050565b7f45524332303a206d696e7420746f20746865207a65726f206164647265737300600082015250565b6000612ca8601f83612026565b9150612cb382612c72565b602082019050919050565b60006020820190508181036000830152612cd781612c9b565b9050919050565b7f19457468657265756d205369676e6564204d6573736167653a0a333200000000600082015250565b6000612d14601c83612aec565b9150612d1f82612cde565b601c82019050919050565b6000612d3582612d07565b9150612d418284612b4d565b6020820191508190509291505056fea2646970667358221220b61b4f19f183c3ff00add7d82a0a1bc24beb3bd8adb329a5bf22fe7dd24de57a64736f6c63430008160033",
  "linkReferences": {},
  "deployedLinkReferences": {}
}